{
  "contractName": "ChainLinkStub",
  "abi": [
    {
      "inputs": [
        {
          "internalType": "int256",
          "name": "_value",
          "type": "int256"
        }
      ],
      "stateMutability": "nonpayable",
      "type": "constructor"
    },
    {
      "anonymous": false,
      "inputs": [
        {
          "indexed": true,
          "internalType": "address",
          "name": "previousOwner",
          "type": "address"
        },
        {
          "indexed": true,
          "internalType": "address",
          "name": "newOwner",
          "type": "address"
        }
      ],
      "name": "OwnershipTransferred",
      "type": "event"
    },
    {
      "inputs": [],
      "name": "owner",
      "outputs": [
        {
          "internalType": "address",
          "name": "",
          "type": "address"
        }
      ],
      "stateMutability": "view",
      "type": "function",
      "constant": true
    },
    {
      "inputs": [],
      "name": "renounceOwnership",
      "outputs": [],
      "stateMutability": "nonpayable",
      "type": "function"
    },
    {
      "inputs": [
        {
          "internalType": "address",
          "name": "newOwner",
          "type": "address"
        }
      ],
      "name": "transferOwnership",
      "outputs": [],
      "stateMutability": "nonpayable",
      "type": "function"
    },
    {
      "inputs": [],
      "name": "decimals",
      "outputs": [
        {
          "internalType": "uint8",
          "name": "",
          "type": "uint8"
        }
      ],
      "stateMutability": "view",
      "type": "function",
      "constant": true
    },
    {
      "inputs": [],
      "name": "description",
      "outputs": [
        {
          "internalType": "string",
          "name": "",
          "type": "string"
        }
      ],
      "stateMutability": "view",
      "type": "function",
      "constant": true
    },
    {
      "inputs": [],
      "name": "version",
      "outputs": [
        {
          "internalType": "uint256",
          "name": "",
          "type": "uint256"
        }
      ],
      "stateMutability": "view",
      "type": "function",
      "constant": true
    },
    {
      "inputs": [
        {
          "internalType": "uint80",
          "name": "_roundId",
          "type": "uint80"
        }
      ],
      "name": "getRoundData",
      "outputs": [
        {
          "internalType": "uint80",
          "name": "roundId",
          "type": "uint80"
        },
        {
          "internalType": "int256",
          "name": "answer",
          "type": "int256"
        },
        {
          "internalType": "uint256",
          "name": "startedAt",
          "type": "uint256"
        },
        {
          "internalType": "uint256",
          "name": "updatedAt",
          "type": "uint256"
        },
        {
          "internalType": "uint80",
          "name": "answeredInRound",
          "type": "uint80"
        }
      ],
      "stateMutability": "view",
      "type": "function",
      "constant": true
    },
    {
      "inputs": [],
      "name": "latestRoundData",
      "outputs": [
        {
          "internalType": "uint80",
          "name": "roundId",
          "type": "uint80"
        },
        {
          "internalType": "int256",
          "name": "answer",
          "type": "int256"
        },
        {
          "internalType": "uint256",
          "name": "startedAt",
          "type": "uint256"
        },
        {
          "internalType": "uint256",
          "name": "updatedAt",
          "type": "uint256"
        },
        {
          "internalType": "uint80",
          "name": "answeredInRound",
          "type": "uint80"
        }
      ],
      "stateMutability": "view",
      "type": "function",
      "constant": true
    }
  ],
  "bytecode": "0x608060405234801561001057600080fd5b50604051610be2380380610be28339818101604052810190610032919061010a565b60006100426100ed60201b60201c565b9050806000806101000a81548173ffffffffffffffffffffffffffffffffffffffff021916908373ffffffffffffffffffffffffffffffffffffffff1602179055508073ffffffffffffffffffffffffffffffffffffffff16600073ffffffffffffffffffffffffffffffffffffffff167f8be0079c531659141344cd1fd0a4f28419497f9722a3daafe3b4186f6b6457e060405160405180910390a3508060018190555050610154565b600033905090565b6000815190506101048161013d565b92915050565b60006020828403121561011c57600080fd5b600061012a848285016100f5565b91505092915050565b6000819050919050565b61014681610133565b811461015157600080fd5b50565b610a7f806101636000396000f3fe608060405234801561001057600080fd5b50600436106100885760003560e01c80638da5cb5b1161005b5780638da5cb5b146100f15780639a6fc8f51461010f578063f2fde38b14610143578063feaf968c1461015f57610088565b8063313ce5671461008d57806354fd4d50146100ab578063715018a6146100c95780637284e416146100d3575b600080fd5b610095610181565b6040516100a29190610779565b60405180910390f35b6100b361018a565b6040516100c0919061070b565b60405180910390f35b6100d1610193565b005b6100db6102cd565b6040516100e891906106a9565b60405180910390f35b6100f961030a565b604051610106919061068e565b60405180910390f35b6101296004803603810190610124919061059b565b610333565b60405161013a959493929190610726565b60405180910390f35b61015d60048036038101906101589190610572565b610366565b005b61016761050f565b604051610178959493929190610726565b60405180910390f35b60006008905090565b60006001905090565b61019b610540565b73ffffffffffffffffffffffffffffffffffffffff166101b961030a565b73ffffffffffffffffffffffffffffffffffffffff161461020f576040517f08c379a0000000000000000000000000000000000000000000000000000000008152600401610206906106eb565b60405180910390fd5b600073ffffffffffffffffffffffffffffffffffffffff1660008054906101000a900473ffffffffffffffffffffffffffffffffffffffff1673ffffffffffffffffffffffffffffffffffffffff167f8be0079c531659141344cd1fd0a4f28419497f9722a3daafe3b4186f6b6457e060405160405180910390a360008060006101000a81548173ffffffffffffffffffffffffffffffffffffffff021916908373ffffffffffffffffffffffffffffffffffffffff160217905550565b60606040518060400160405280600d81526020017f436861696e4c696e6b5374756200000000000000000000000000000000000000815250905090565b60008060009054906101000a900473ffffffffffffffffffffffffffffffffffffffff16905090565b6000806000806000856305f5e10060015461034e91906107b0565b60018060019450945094509450945091939590929450565b61036e610540565b73ffffffffffffffffffffffffffffffffffffffff1661038c61030a565b73ffffffffffffffffffffffffffffffffffffffff16146103e2576040517f08c379a00000000000000000000000000000000000000000000000000000000081526004016103d9906106eb565b60405180910390fd5b600073ffffffffffffffffffffffffffffffffffffffff168173ffffffffffffffffffffffffffffffffffffffff161415610452576040517f08c379a0000000000000000000000000000000000000000000000000000000008152600401610449906106cb565b60405180910390fd5b8073ffffffffffffffffffffffffffffffffffffffff1660008054906101000a900473ffffffffffffffffffffffffffffffffffffffff1673ffffffffffffffffffffffffffffffffffffffff167f8be0079c531659141344cd1fd0a4f28419497f9722a3daafe3b4186f6b6457e060405160405180910390a3806000806101000a81548173ffffffffffffffffffffffffffffffffffffffff021916908373ffffffffffffffffffffffffffffffffffffffff16021790555050565b6000806000806000806305f5e10060015461052a91906107b0565b6001806001945094509450945094509091929394565b600033905090565b60008135905061055781610a1b565b92915050565b60008135905061056c81610a32565b92915050565b60006020828403121561058457600080fd5b600061059284828501610548565b91505092915050565b6000602082840312156105ad57600080fd5b60006105bb8482850161055d565b91505092915050565b6105cd816108c7565b82525050565b6105dc816108d9565b82525050565b60006105ed82610794565b6105f7818561079f565b9350610607818560208601610930565b61061081610992565b840191505092915050565b600061062860268361079f565b9150610633826109a3565b604082019050919050565b600061064b60208361079f565b9150610656826109f2565b602082019050919050565b61066a81610903565b82525050565b6106798161091a565b82525050565b6106888161090d565b82525050565b60006020820190506106a360008301846105c4565b92915050565b600060208201905081810360008301526106c381846105e2565b905092915050565b600060208201905081810360008301526106e48161061b565b9050919050565b600060208201905081810360008301526107048161063e565b9050919050565b60006020820190506107206000830184610661565b92915050565b600060a08201905061073b6000830188610670565b61074860208301876105d3565b6107556040830186610661565b6107626060830185610661565b61076f6080830184610670565b9695505050505050565b600060208201905061078e600083018461067f565b92915050565b600081519050919050565b600082825260208201905092915050565b60006107bb826108d9565b91506107c6836108d9565b9250827f7fffffffffffffffffffffffffffffffffffffffffffffffffffffffffffffff048211600084136000841316161561080557610804610963565b5b817f8000000000000000000000000000000000000000000000000000000000000000058312600084126000841316161561084257610841610963565b5b827f8000000000000000000000000000000000000000000000000000000000000000058212600084136000841216161561087f5761087e610963565b5b827f7fffffffffffffffffffffffffffffffffffffffffffffffffffffffffffffff05821260008412600084121616156108bc576108bb610963565b5b828202905092915050565b60006108d2826108e3565b9050919050565b6000819050919050565b600073ffffffffffffffffffffffffffffffffffffffff82169050919050565b6000819050919050565b600060ff82169050919050565b600069ffffffffffffffffffff82169050919050565b60005b8381101561094e578082015181840152602081019050610933565b8381111561095d576000848401525b50505050565b7f4e487b7100000000000000000000000000000000000000000000000000000000600052601160045260246000fd5b6000601f19601f8301169050919050565b7f4f776e61626c653a206e6577206f776e657220697320746865207a65726f206160008201527f6464726573730000000000000000000000000000000000000000000000000000602082015250565b7f4f776e61626c653a2063616c6c6572206973206e6f7420746865206f776e6572600082015250565b610a24816108c7565b8114610a2f57600080fd5b50565b610a3b8161091a565b8114610a4657600080fd5b5056fea2646970667358221220fde9e0f408b396f9eb97605e7754ee920681cfa9845e45c9136e332749356b9b64736f6c63430008030033",
  "immutableReferences": {},
  "source": "// SPDX-License-Identifier: MIT\r\npragma solidity 0.8.3;\r\n\r\nimport '@openzeppelin/contracts/access/Ownable.sol';\r\nimport '@openzeppelin/contracts/token/ERC20/IERC20.sol';\r\nimport '@chainlink/contracts/src/v0.8/interfaces/AggregatorV3Interface.sol';\r\n\r\n\r\n// @dev For tests only\r\ncontract ChainLinkStub is AggregatorV3Interface, Ownable {\r\n\r\n    int256 value;\r\n\r\n    constructor(int256 _value) {\r\n        value = _value;\r\n    }\r\n\r\n    function decimals() override external view returns (uint8) {\r\n        return 8;\r\n    }\r\n\r\n    function description() override external view returns (string memory) {\r\n        return \"ChainLinkStub\";\r\n    }\r\n\r\n    function version() override external view returns (uint256) {\r\n        return 1;\r\n    }\r\n\r\n  \r\n    function getRoundData(uint80 _roundId) override external view returns (uint80 roundId, int256 answer, uint256 startedAt, uint256 updatedAt, uint80 answeredInRound) {\r\n        return (_roundId, value * 10 ** 8, 1, 1, 1);\r\n    }\r\n\r\n    function latestRoundData() override external view returns (uint80 roundId, int256 answer, uint256 startedAt, uint256 updatedAt, uint80 answeredInRound) {\r\n        return (0, value * 10 ** 8, 1, 1, 1);\r\n    }\r\n}",
  "sourcePath": "C:/ws/alyra/dapp-staking/contracts/ChainLinkStub.sol",
  "compiler": {
    "name": "solc",
    "version": "0.8.3+commit.8d00100c.Emscripten.clang"
  },
  "schemaVersion": "3.4.1",
  "updatedAt": "2021-06-05T09:43:53.093Z",
  "networkType": "ethereum",
  "devdoc": {
    "kind": "dev",
    "methods": {
      "owner()": {
        "details": "Returns the address of the current owner."
      },
      "renounceOwnership()": {
        "details": "Leaves the contract without owner. It will not be possible to call `onlyOwner` functions anymore. Can only be called by the current owner. NOTE: Renouncing ownership will leave the contract without an owner, thereby removing any functionality that is only available to the owner."
      },
      "transferOwnership(address)": {
        "details": "Transfers ownership of the contract to a new account (`newOwner`). Can only be called by the current owner."
      }
    },
    "version": 1
  },
  "userdoc": {
    "kind": "user",
    "methods": {},
    "version": 1
  }
}