{
  "contractName": "ChainLinkStub",
  "abi": [
    {
      "inputs": [
        {
          "internalType": "int256",
          "name": "value",
          "type": "int256"
        }
      ],
      "stateMutability": "nonpayable",
      "type": "constructor"
    },
    {
      "anonymous": false,
      "inputs": [
        {
          "indexed": true,
          "internalType": "address",
          "name": "previousOwner",
          "type": "address"
        },
        {
          "indexed": true,
          "internalType": "address",
          "name": "newOwner",
          "type": "address"
        }
      ],
      "name": "OwnershipTransferred",
      "type": "event"
    },
    {
      "inputs": [],
      "name": "owner",
      "outputs": [
        {
          "internalType": "address",
          "name": "",
          "type": "address"
        }
      ],
      "stateMutability": "view",
      "type": "function",
      "constant": true
    },
    {
      "inputs": [],
      "name": "renounceOwnership",
      "outputs": [],
      "stateMutability": "nonpayable",
      "type": "function"
    },
    {
      "inputs": [
        {
          "internalType": "address",
          "name": "newOwner",
          "type": "address"
        }
      ],
      "name": "transferOwnership",
      "outputs": [],
      "stateMutability": "nonpayable",
      "type": "function"
    },
    {
      "inputs": [],
      "name": "decimals",
      "outputs": [
        {
          "internalType": "uint8",
          "name": "",
          "type": "uint8"
        }
      ],
      "stateMutability": "view",
      "type": "function",
      "constant": true
    },
    {
      "inputs": [],
      "name": "description",
      "outputs": [
        {
          "internalType": "string",
          "name": "",
          "type": "string"
        }
      ],
      "stateMutability": "view",
      "type": "function",
      "constant": true
    },
    {
      "inputs": [],
      "name": "version",
      "outputs": [
        {
          "internalType": "uint256",
          "name": "",
          "type": "uint256"
        }
      ],
      "stateMutability": "view",
      "type": "function",
      "constant": true
    },
    {
      "inputs": [
        {
          "internalType": "uint80",
          "name": "_roundId",
          "type": "uint80"
        }
      ],
      "name": "getRoundData",
      "outputs": [
        {
          "internalType": "uint80",
          "name": "roundId",
          "type": "uint80"
        },
        {
          "internalType": "int256",
          "name": "answer",
          "type": "int256"
        },
        {
          "internalType": "uint256",
          "name": "startedAt",
          "type": "uint256"
        },
        {
          "internalType": "uint256",
          "name": "updatedAt",
          "type": "uint256"
        },
        {
          "internalType": "uint80",
          "name": "answeredInRound",
          "type": "uint80"
        }
      ],
      "stateMutability": "view",
      "type": "function",
      "constant": true
    },
    {
      "inputs": [],
      "name": "latestRoundData",
      "outputs": [
        {
          "internalType": "uint80",
          "name": "roundId",
          "type": "uint80"
        },
        {
          "internalType": "int256",
          "name": "answer",
          "type": "int256"
        },
        {
          "internalType": "uint256",
          "name": "startedAt",
          "type": "uint256"
        },
        {
          "internalType": "uint256",
          "name": "updatedAt",
          "type": "uint256"
        },
        {
          "internalType": "uint80",
          "name": "answeredInRound",
          "type": "uint80"
        }
      ],
      "stateMutability": "view",
      "type": "function",
      "constant": true
    }
  ],
  "bytecode": "0x60806040526012600060146101000a81548160ff021916908360ff160217905550600180556040518060400160405280600d81526020017f436861696e4c696e6b537475620000000000000000000000000000000000000081525060029080519060200190620000719291906200016b565b503480156200007f57600080fd5b5060405162000cd638038062000cd68339818101604052810190620000a5919062000232565b6000620000b76200016360201b60201c565b9050806000806101000a81548173ffffffffffffffffffffffffffffffffffffffff021916908373ffffffffffffffffffffffffffffffffffffffff1602179055508073ffffffffffffffffffffffffffffffffffffffff16600073ffffffffffffffffffffffffffffffffffffffff167f8be0079c531659141344cd1fd0a4f28419497f9722a3daafe3b4186f6b6457e060405160405180910390a3508060038190555050620002e7565b600033905090565b828054620001799062000268565b90600052602060002090601f0160209004810192826200019d5760008555620001e9565b82601f10620001b857805160ff1916838001178555620001e9565b82800160010185558215620001e9579182015b82811115620001e8578251825591602001919060010190620001cb565b5b509050620001f89190620001fc565b5090565b5b8082111562000217576000816000905550600101620001fd565b5090565b6000815190506200022c81620002cd565b92915050565b6000602082840312156200024557600080fd5b600062000255848285016200021b565b91505092915050565b6000819050919050565b600060028204905060018216806200028157607f821691505b602082108114156200029857620002976200029e565b5b50919050565b7f4e487b7100000000000000000000000000000000000000000000000000000000600052602260045260246000fd5b620002d8816200025e565b8114620002e457600080fd5b50565b6109df80620002f76000396000f3fe608060405234801561001057600080fd5b50600436106100885760003560e01c80638da5cb5b1161005b5780638da5cb5b146100f15780639a6fc8f51461010f578063f2fde38b14610143578063feaf968c1461015f57610088565b8063313ce5671461008d57806354fd4d50146100ab578063715018a6146100c95780637284e416146100d3575b600080fd5b610095610181565b6040516100a291906107be565b60405180910390f35b6100b3610197565b6040516100c09190610750565b60405180910390f35b6100d16101a1565b005b6100db6102db565b6040516100e891906106ee565b60405180910390f35b6100f961036d565b60405161010691906106d3565b60405180910390f35b610129600480360381019061012491906105e0565b610396565b60405161013a95949392919061076b565b60405180910390f35b61015d600480360381019061015891906105b7565b6103ba565b005b610167610563565b60405161017895949392919061076b565b60405180910390f35b60008060149054906101000a900460ff16905090565b6000600154905090565b6101a9610585565b73ffffffffffffffffffffffffffffffffffffffff166101c761036d565b73ffffffffffffffffffffffffffffffffffffffff161461021d576040517f08c379a000000000000000000000000000000000000000000000000000000000815260040161021490610730565b60405180910390fd5b600073ffffffffffffffffffffffffffffffffffffffff1660008054906101000a900473ffffffffffffffffffffffffffffffffffffffff1673ffffffffffffffffffffffffffffffffffffffff167f8be0079c531659141344cd1fd0a4f28419497f9722a3daafe3b4186f6b6457e060405160405180910390a360008060006101000a81548173ffffffffffffffffffffffffffffffffffffffff021916908373ffffffffffffffffffffffffffffffffffffffff160217905550565b6060600280546102ea90610891565b80601f016020809104026020016040519081016040528092919081815260200182805461031690610891565b80156103635780601f1061033857610100808354040283529160200191610363565b820191906000526020600020905b81548152906001019060200180831161034657829003601f168201915b5050505050905090565b60008060009054906101000a900473ffffffffffffffffffffffffffffffffffffffff16905090565b60008060008060008560035460018060019450945094509450945091939590929450565b6103c2610585565b73ffffffffffffffffffffffffffffffffffffffff166103e061036d565b73ffffffffffffffffffffffffffffffffffffffff1614610436576040517f08c379a000000000000000000000000000000000000000000000000000000000815260040161042d90610730565b60405180910390fd5b600073ffffffffffffffffffffffffffffffffffffffff168173ffffffffffffffffffffffffffffffffffffffff1614156104a6576040517f08c379a000000000000000000000000000000000000000000000000000000000815260040161049d90610710565b60405180910390fd5b8073ffffffffffffffffffffffffffffffffffffffff1660008054906101000a900473ffffffffffffffffffffffffffffffffffffffff1673ffffffffffffffffffffffffffffffffffffffff167f8be0079c531659141344cd1fd0a4f28419497f9722a3daafe3b4186f6b6457e060405160405180910390a3806000806101000a81548173ffffffffffffffffffffffffffffffffffffffff021916908373ffffffffffffffffffffffffffffffffffffffff16021790555050565b6000806000806000806003546001806001945094509450945094509091929394565b600033905090565b60008135905061059c8161097b565b92915050565b6000813590506105b181610992565b92915050565b6000602082840312156105c957600080fd5b60006105d78482850161058d565b91505092915050565b6000602082840312156105f257600080fd5b6000610600848285016105a2565b91505092915050565b610612816107f5565b82525050565b61062181610807565b82525050565b6000610632826107d9565b61063c81856107e4565b935061064c81856020860161085e565b610655816108f2565b840191505092915050565b600061066d6026836107e4565b915061067882610903565b604082019050919050565b60006106906020836107e4565b915061069b82610952565b602082019050919050565b6106af81610831565b82525050565b6106be81610848565b82525050565b6106cd8161083b565b82525050565b60006020820190506106e86000830184610609565b92915050565b600060208201905081810360008301526107088184610627565b905092915050565b6000602082019050818103600083015261072981610660565b9050919050565b6000602082019050818103600083015261074981610683565b9050919050565b600060208201905061076560008301846106a6565b92915050565b600060a08201905061078060008301886106b5565b61078d6020830187610618565b61079a60408301866106a6565b6107a760608301856106a6565b6107b460808301846106b5565b9695505050505050565b60006020820190506107d360008301846106c4565b92915050565b600081519050919050565b600082825260208201905092915050565b600061080082610811565b9050919050565b6000819050919050565b600073ffffffffffffffffffffffffffffffffffffffff82169050919050565b6000819050919050565b600060ff82169050919050565b600069ffffffffffffffffffff82169050919050565b60005b8381101561087c578082015181840152602081019050610861565b8381111561088b576000848401525b50505050565b600060028204905060018216806108a957607f821691505b602082108114156108bd576108bc6108c3565b5b50919050565b7f4e487b7100000000000000000000000000000000000000000000000000000000600052602260045260246000fd5b6000601f19601f8301169050919050565b7f4f776e61626c653a206e6577206f776e657220697320746865207a65726f206160008201527f6464726573730000000000000000000000000000000000000000000000000000602082015250565b7f4f776e61626c653a2063616c6c6572206973206e6f7420746865206f776e6572600082015250565b610984816107f5565b811461098f57600080fd5b50565b61099b81610848565b81146109a657600080fd5b5056fea26469706673582212205a759bbc1423279ff90c2d8661e9a67fe3fba8f147e1cc567580bccb35b939a764736f6c63430008030033",
  "immutableReferences": {},
  "source": "// SPDX-License-Identifier: MIT\r\npragma solidity 0.8.3;\r\n\r\nimport '@openzeppelin/contracts/access/Ownable.sol';\r\nimport '@openzeppelin/contracts/token/ERC20/IERC20.sol';\r\nimport '@chainlink/contracts/src/v0.8/interfaces/AggregatorV3Interface.sol';\r\n\r\n\r\n// @dev For tests only\r\ncontract ChainLinkStub is AggregatorV3Interface, Ownable {\r\n\r\n    uint8 _decimals = 18;\r\n    uint256 _version = 1;\r\n    string _description = \"ChainLinkStub\";\r\n    int256 _value;\r\n\r\n    constructor(int256 value) {\r\n        _value = value;\r\n    }\r\n\r\n    function decimals() override external view returns (uint8) {\r\n        return _decimals;\r\n    }\r\n\r\n    function description() override external view returns (string memory) {\r\n        return _description;\r\n    }\r\n\r\n    function version() override external view returns (uint256) {\r\n        return _version;\r\n    }\r\n\r\n  \r\n    function getRoundData(uint80 _roundId) override external view returns (uint80 roundId, int256 answer, uint256 startedAt, uint256 updatedAt, uint80 answeredInRound) {\r\n        return (_roundId, _value, 1, 1, 1);\r\n    }\r\n\r\n    function latestRoundData() override external view returns (uint80 roundId, int256 answer, uint256 startedAt, uint256 updatedAt, uint80 answeredInRound) {\r\n        return (0, _value, 1, 1, 1);\r\n    }\r\n}",
  "sourcePath": "C:/ws/alyra/dapp-staking/contracts/ChainLinkStub.sol",
  "compiler": {
    "name": "solc",
    "version": "0.8.3+commit.8d00100c.Emscripten.clang"
  },
  "schemaVersion": "3.3.4",
  "updatedAt": "2021-05-16T10:42:51.542Z",
  "networkType": "ethereum",
  "devdoc": {
    "kind": "dev",
    "methods": {
      "owner()": {
        "details": "Returns the address of the current owner."
      },
      "renounceOwnership()": {
        "details": "Leaves the contract without owner. It will not be possible to call `onlyOwner` functions anymore. Can only be called by the current owner. NOTE: Renouncing ownership will leave the contract without an owner, thereby removing any functionality that is only available to the owner."
      },
      "transferOwnership(address)": {
        "details": "Transfers ownership of the contract to a new account (`newOwner`). Can only be called by the current owner."
      }
    },
    "version": 1
  },
  "userdoc": {
    "kind": "user",
    "methods": {},
    "version": 1
  }
}