{
  "contractName": "HappyChef",
  "abi": [
    {
      "inputs": [
        {
          "internalType": "contract Happy",
          "name": "_happy",
          "type": "address"
        },
        {
          "internalType": "address",
          "name": "_happyPriceFeed",
          "type": "address"
        }
      ],
      "stateMutability": "nonpayable",
      "type": "constructor"
    },
    {
      "anonymous": false,
      "inputs": [
        {
          "indexed": true,
          "internalType": "address",
          "name": "previousOwner",
          "type": "address"
        },
        {
          "indexed": true,
          "internalType": "address",
          "name": "newOwner",
          "type": "address"
        }
      ],
      "name": "OwnershipTransferred",
      "type": "event"
    },
    {
      "anonymous": false,
      "inputs": [
        {
          "indexed": false,
          "internalType": "uint256",
          "name": "poolId",
          "type": "uint256"
        },
        {
          "indexed": false,
          "internalType": "address",
          "name": "token",
          "type": "address"
        },
        {
          "indexed": false,
          "internalType": "address",
          "name": "priceFeed",
          "type": "address"
        }
      ],
      "name": "PoolAdded",
      "type": "event"
    },
    {
      "anonymous": false,
      "inputs": [
        {
          "indexed": false,
          "internalType": "uint256",
          "name": "poolId",
          "type": "uint256"
        },
        {
          "indexed": false,
          "internalType": "contract IERC20",
          "name": "token",
          "type": "address"
        },
        {
          "indexed": false,
          "internalType": "address",
          "name": "priceFeed",
          "type": "address"
        }
      ],
      "name": "PriceFeedUpdated",
      "type": "event"
    },
    {
      "anonymous": false,
      "inputs": [
        {
          "indexed": false,
          "internalType": "address",
          "name": "user",
          "type": "address"
        },
        {
          "indexed": false,
          "internalType": "uint256",
          "name": "poolId",
          "type": "uint256"
        },
        {
          "indexed": false,
          "internalType": "uint256",
          "name": "amount",
          "type": "uint256"
        }
      ],
      "name": "Redeemed",
      "type": "event"
    },
    {
      "anonymous": false,
      "inputs": [
        {
          "indexed": false,
          "internalType": "address",
          "name": "user",
          "type": "address"
        },
        {
          "indexed": false,
          "internalType": "uint256",
          "name": "poolId",
          "type": "uint256"
        },
        {
          "indexed": false,
          "internalType": "uint256",
          "name": "amount",
          "type": "uint256"
        }
      ],
      "name": "Staked",
      "type": "event"
    },
    {
      "anonymous": false,
      "inputs": [
        {
          "indexed": false,
          "internalType": "address",
          "name": "user",
          "type": "address"
        },
        {
          "indexed": false,
          "internalType": "uint256",
          "name": "poolId",
          "type": "uint256"
        },
        {
          "indexed": false,
          "internalType": "uint256",
          "name": "amount",
          "type": "uint256"
        }
      ],
      "name": "Unstaked",
      "type": "event"
    },
    {
      "inputs": [],
      "name": "happy",
      "outputs": [
        {
          "internalType": "contract Happy",
          "name": "",
          "type": "address"
        }
      ],
      "stateMutability": "view",
      "type": "function",
      "constant": true
    },
    {
      "inputs": [],
      "name": "happyPriceFeed",
      "outputs": [
        {
          "internalType": "contract AggregatorV3Interface",
          "name": "",
          "type": "address"
        }
      ],
      "stateMutability": "view",
      "type": "function",
      "constant": true
    },
    {
      "inputs": [],
      "name": "owner",
      "outputs": [
        {
          "internalType": "address",
          "name": "",
          "type": "address"
        }
      ],
      "stateMutability": "view",
      "type": "function",
      "constant": true
    },
    {
      "inputs": [
        {
          "internalType": "uint256",
          "name": "",
          "type": "uint256"
        }
      ],
      "name": "pools",
      "outputs": [
        {
          "internalType": "contract IERC20",
          "name": "token",
          "type": "address"
        },
        {
          "internalType": "uint256",
          "name": "yield",
          "type": "uint256"
        },
        {
          "internalType": "contract AggregatorV3Interface",
          "name": "priceFeed",
          "type": "address"
        }
      ],
      "stateMutability": "view",
      "type": "function",
      "constant": true
    },
    {
      "inputs": [],
      "name": "renounceOwnership",
      "outputs": [],
      "stateMutability": "nonpayable",
      "type": "function"
    },
    {
      "inputs": [
        {
          "internalType": "address",
          "name": "newOwner",
          "type": "address"
        }
      ],
      "name": "transferOwnership",
      "outputs": [],
      "stateMutability": "nonpayable",
      "type": "function"
    },
    {
      "inputs": [
        {
          "internalType": "uint256",
          "name": "",
          "type": "uint256"
        },
        {
          "internalType": "address",
          "name": "",
          "type": "address"
        }
      ],
      "name": "users",
      "outputs": [
        {
          "internalType": "uint256",
          "name": "amount",
          "type": "uint256"
        },
        {
          "internalType": "uint256",
          "name": "depositDate",
          "type": "uint256"
        }
      ],
      "stateMutability": "view",
      "type": "function",
      "constant": true
    },
    {
      "inputs": [],
      "name": "getNbPools",
      "outputs": [
        {
          "internalType": "uint256",
          "name": "",
          "type": "uint256"
        }
      ],
      "stateMutability": "view",
      "type": "function",
      "constant": true
    },
    {
      "inputs": [
        {
          "internalType": "uint256",
          "name": "poolId",
          "type": "uint256"
        },
        {
          "internalType": "address",
          "name": "user",
          "type": "address"
        }
      ],
      "name": "getUserBalance",
      "outputs": [
        {
          "internalType": "uint256",
          "name": "",
          "type": "uint256"
        }
      ],
      "stateMutability": "view",
      "type": "function",
      "constant": true
    },
    {
      "inputs": [
        {
          "internalType": "uint256",
          "name": "poolId",
          "type": "uint256"
        }
      ],
      "name": "getPoolBalance",
      "outputs": [
        {
          "internalType": "uint256",
          "name": "",
          "type": "uint256"
        }
      ],
      "stateMutability": "view",
      "type": "function",
      "constant": true
    },
    {
      "inputs": [
        {
          "internalType": "address",
          "name": "_token",
          "type": "address"
        },
        {
          "internalType": "address",
          "name": "_priceFeed",
          "type": "address"
        },
        {
          "internalType": "uint256",
          "name": "_yield",
          "type": "uint256"
        }
      ],
      "name": "addPool",
      "outputs": [],
      "stateMutability": "nonpayable",
      "type": "function"
    },
    {
      "inputs": [
        {
          "internalType": "uint256",
          "name": "_poolId",
          "type": "uint256"
        },
        {
          "internalType": "address",
          "name": "priceFeed",
          "type": "address"
        }
      ],
      "name": "updatePriceFeed",
      "outputs": [],
      "stateMutability": "nonpayable",
      "type": "function"
    },
    {
      "inputs": [
        {
          "internalType": "uint256",
          "name": "_poolId",
          "type": "uint256"
        },
        {
          "internalType": "uint256",
          "name": "_amount",
          "type": "uint256"
        }
      ],
      "name": "stake",
      "outputs": [],
      "stateMutability": "nonpayable",
      "type": "function"
    },
    {
      "inputs": [
        {
          "internalType": "uint256",
          "name": "_poolId",
          "type": "uint256"
        },
        {
          "internalType": "uint256",
          "name": "_amount",
          "type": "uint256"
        }
      ],
      "name": "unstake",
      "outputs": [],
      "stateMutability": "nonpayable",
      "type": "function"
    },
    {
      "inputs": [
        {
          "internalType": "uint256",
          "name": "_poolId",
          "type": "uint256"
        },
        {
          "internalType": "address",
          "name": "_user",
          "type": "address"
        }
      ],
      "name": "pendingReward",
      "outputs": [
        {
          "internalType": "uint256",
          "name": "",
          "type": "uint256"
        }
      ],
      "stateMutability": "view",
      "type": "function",
      "constant": true
    },
    {
      "inputs": [
        {
          "internalType": "uint256",
          "name": "_poolId",
          "type": "uint256"
        }
      ],
      "name": "getLastPrice",
      "outputs": [
        {
          "internalType": "uint256",
          "name": "",
          "type": "uint256"
        }
      ],
      "stateMutability": "view",
      "type": "function",
      "constant": true
    },
    {
      "inputs": [],
      "name": "getLastHappyPrice",
      "outputs": [
        {
          "internalType": "uint256",
          "name": "",
          "type": "uint256"
        }
      ],
      "stateMutability": "view",
      "type": "function",
      "constant": true
    }
  ],
  "bytecode": "0x60806040523480156200001157600080fd5b506040516200272f3803806200272f8339818101604052810190620000379190620001ae565b6000620000496200017860201b60201c565b9050806000806101000a81548173ffffffffffffffffffffffffffffffffffffffff021916908373ffffffffffffffffffffffffffffffffffffffff1602179055508073ffffffffffffffffffffffffffffffffffffffff16600073ffffffffffffffffffffffffffffffffffffffff167f8be0079c531659141344cd1fd0a4f28419497f9722a3daafe3b4186f6b6457e060405160405180910390a3506001808190555081600260006101000a81548173ffffffffffffffffffffffffffffffffffffffff021916908373ffffffffffffffffffffffffffffffffffffffff16021790555080600560006101000a81548173ffffffffffffffffffffffffffffffffffffffff021916908373ffffffffffffffffffffffffffffffffffffffff16021790555050506200026b565b600033905090565b600081519050620001918162000237565b92915050565b600081519050620001a88162000251565b92915050565b60008060408385031215620001c257600080fd5b6000620001d28582860162000197565b9250506020620001e58582860162000180565b9150509250929050565b6000620001fc8262000217565b9050919050565b60006200021082620001ef565b9050919050565b600073ffffffffffffffffffffffffffffffffffffffff82169050919050565b6200024281620001ef565b81146200024e57600080fd5b50565b6200025c8162000203565b81146200026857600080fd5b50565b6124b4806200027b6000396000f3fe608060405234801561001057600080fd5b506004361061010b5760003560e01c806398969e82116100a2578063b9d02df411610071578063b9d02df414610294578063cdfb6cf3146102c5578063e0d7cb6f146102f5578063ed1375d514610313578063f2fde38b146103435761010b565b806398969e82146101fa5780639e2c8a5b1461022a578063ac4afa3814610246578063acfc827e146102785761010b565b80637b0472f0116100de5780637b0472f0146101865780637e29d6c2146101a257806386a7a170146101be5780638da5cb5b146101dc5761010b565b806311df50d81461011057806352918b761461012e57806365fa2f7f1461014c578063715018a61461017c575b600080fd5b61011861035f565b6040516101259190611db7565b60405180910390f35b610136610385565b6040516101439190611f24565b60405180910390f35b61016660048036038101906101619190611a61565b610392565b6040516101739190611f24565b60405180910390f35b6101846104d7565b005b6101a0600480360381019061019b9190611aef565b610611565b005b6101bc60048036038101906101b791906119e9565b6109b5565b005b6101c6610c9d565b6040516101d39190611f24565b60405180910390f35b6101e4610d4d565b6040516101f19190611d05565b60405180910390f35b610214600480360381019061020f9190611ab3565b610d76565b6040516102219190611f24565b60405180910390f35b610244600480360381019061023f9190611aef565b610e76565b005b610260600480360381019061025b9190611a61565b61111e565b60405161026f93929190611ded565b60405180910390f35b610292600480360381019061028d9190611ab3565b611198565b005b6102ae60048036038101906102a99190611ab3565b611391565b6040516102bc929190611fad565b60405180910390f35b6102df60048036038101906102da9190611ab3565b6113c2565b6040516102ec9190611f24565b60405180910390f35b6102fd611420565b60405161030a9190611dd2565b60405180910390f35b61032d60048036038101906103289190611a61565b611446565b60405161033a9190611f24565b60405180910390f35b61035d600480360381019061035891906119c0565b611543565b005b600560009054906101000a900473ffffffffffffffffffffffffffffffffffffffff1681565b6000600380549050905090565b60008160038054905081106103dc576040517f08c379a00000000000000000000000000000000000000000000000000000000081526004016103d390611e84565b60405180910390fd5b600060038481548110610418577f4e487b7100000000000000000000000000000000000000000000000000000000600052603260045260246000fd5b906000526020600020906003020160020160009054906101000a900473ffffffffffffffffffffffffffffffffffffffff1673ffffffffffffffffffffffffffffffffffffffff1663feaf968c6040518163ffffffff1660e01b815260040160a06040518083038186803b15801561048f57600080fd5b505afa1580156104a3573d6000803e3d6000fd5b505050506040513d601f19601f820116820180604052508101906104c79190611b2b565b5050509150508092505050919050565b6104df6116ec565b73ffffffffffffffffffffffffffffffffffffffff166104fd610d4d565b73ffffffffffffffffffffffffffffffffffffffff1614610553576040517f08c379a000000000000000000000000000000000000000000000000000000000815260040161054a90611ec4565b60405180910390fd5b600073ffffffffffffffffffffffffffffffffffffffff1660008054906101000a900473ffffffffffffffffffffffffffffffffffffffff1673ffffffffffffffffffffffffffffffffffffffff167f8be0079c531659141344cd1fd0a4f28419497f9722a3daafe3b4186f6b6457e060405160405180910390a360008060006101000a81548173ffffffffffffffffffffffffffffffffffffffff021916908373ffffffffffffffffffffffffffffffffffffffff160217905550565b816003805490508110610659576040517f08c379a000000000000000000000000000000000000000000000000000000000815260040161065090611e84565b60405180910390fd5b816000811161069d576040517f08c379a000000000000000000000000000000000000000000000000000000000815260040161069490611e64565b60405180910390fd5b600260015414156106e3576040517f08c379a00000000000000000000000000000000000000000000000000000000081526004016106da90611f04565b60405180910390fd5b6002600181905550600060038581548110610727577f4e487b7100000000000000000000000000000000000000000000000000000000600052603260045260246000fd5b9060005260206000209060030201905060006004600087815260200190815260200160002060003373ffffffffffffffffffffffffffffffffffffffff1673ffffffffffffffffffffffffffffffffffffffff1681526020019081526020016000209050848260000160009054906101000a900473ffffffffffffffffffffffffffffffffffffffff1673ffffffffffffffffffffffffffffffffffffffff166370a08231336040518263ffffffff1660e01b81526004016107e99190611d05565b60206040518083038186803b15801561080157600080fd5b505afa158015610815573d6000803e3d6000fd5b505050506040513d601f19601f820116820180604052508101906108399190611a8a565b101561087a576040517f08c379a000000000000000000000000000000000000000000000000000000000815260040161087190611ea4565b60405180910390fd5b600081600001541115610893576108928683836116f4565b5b848160000160008282546108a79190611fe7565b925050819055504281600101819055508160000160009054906101000a900473ffffffffffffffffffffffffffffffffffffffff1673ffffffffffffffffffffffffffffffffffffffff166323b872dd3330886040518463ffffffff1660e01b815260040161091893929190611d20565b602060405180830381600087803b15801561093257600080fd5b505af1158015610946573d6000803e3d6000fd5b505050506040513d601f19601f8201168201806040525081019061096a9190611a38565b507f1449c6dd7851abc30abf37f57715f492010519147cc2652fbc38202c18a6ee9033878760405161099e93929190611d80565b60405180910390a150506001808190555050505050565b6109bd6116ec565b73ffffffffffffffffffffffffffffffffffffffff166109db610d4d565b73ffffffffffffffffffffffffffffffffffffffff1614610a31576040517f08c379a0000000000000000000000000000000000000000000000000000000008152600401610a2890611ec4565b60405180910390fd5b6000805b600380549050811015610afd578473ffffffffffffffffffffffffffffffffffffffff1660038281548110610a93577f4e487b7100000000000000000000000000000000000000000000000000000000600052603260045260246000fd5b906000526020600020906003020160000160009054906101000a900473ffffffffffffffffffffffffffffffffffffffff1673ffffffffffffffffffffffffffffffffffffffff161415610aea5760019150610afd565b8080610af5906121d0565b915050610a35565b508015610b3f576040517f08c379a0000000000000000000000000000000000000000000000000000000008152600401610b3690611ee4565b60405180910390fd5b600360405180606001604052808673ffffffffffffffffffffffffffffffffffffffff1681526020018481526020018573ffffffffffffffffffffffffffffffffffffffff16815250908060018154018082558091505060019003906000526020600020906003020160009091909190915060008201518160000160006101000a81548173ffffffffffffffffffffffffffffffffffffffff021916908373ffffffffffffffffffffffffffffffffffffffff1602179055506020820151816001015560408201518160020160006101000a81548173ffffffffffffffffffffffffffffffffffffffff021916908373ffffffffffffffffffffffffffffffffffffffff16021790555050507ff526af69faf759a24b780dee9d979f542b6a5e8bfa39c7b04fcce83cb9982b8a6001600380549050610c7e91906120c8565b8585604051610c8f93929190611f3f565b60405180910390a150505050565b600080600560009054906101000a900473ffffffffffffffffffffffffffffffffffffffff1673ffffffffffffffffffffffffffffffffffffffff1663feaf968c6040518163ffffffff1660e01b815260040160a06040518083038186803b158015610d0857600080fd5b505afa158015610d1c573d6000803e3d6000fd5b505050506040513d601f19601f82011682018060405250810190610d409190611b2b565b5050509150508091505090565b60008060009054906101000a900473ffffffffffffffffffffffffffffffffffffffff16905090565b6000826003805490508110610dc0576040517f08c379a0000000000000000000000000000000000000000000000000000000008152600401610db790611e84565b60405180910390fd5b600060038581548110610dfc577f4e487b7100000000000000000000000000000000000000000000000000000000600052603260045260246000fd5b9060005260206000209060030201905060006004600087815260200190815260200160002060008673ffffffffffffffffffffffffffffffffffffffff1673ffffffffffffffffffffffffffffffffffffffff1681526020019081526020016000209050610e6b868383611896565b935050505092915050565b816003805490508110610ebe576040517f08c379a0000000000000000000000000000000000000000000000000000000008152600401610eb590611e84565b60405180910390fd5b60026001541415610f04576040517f08c379a0000000000000000000000000000000000000000000000000000000008152600401610efb90611f04565b60405180910390fd5b6002600181905550600060038481548110610f48577f4e487b7100000000000000000000000000000000000000000000000000000000600052603260045260246000fd5b9060005260206000209060030201905060006004600086815260200190815260200160002060003373ffffffffffffffffffffffffffffffffffffffff1673ffffffffffffffffffffffffffffffffffffffff16815260200190815260200160002090508060000154841115610ff3576040517f08c379a0000000000000000000000000000000000000000000000000000000008152600401610fea90611e24565b60405180910390fd5b610ffe8583836116f4565b60008411156110d5578381600001600082825461101b91906120c8565b925050819055508160000160009054906101000a900473ffffffffffffffffffffffffffffffffffffffff1673ffffffffffffffffffffffffffffffffffffffff1663a9059cbb33866040518363ffffffff1660e01b8152600401611081929190611d57565b602060405180830381600087803b15801561109b57600080fd5b505af11580156110af573d6000803e3d6000fd5b505050506040513d601f19601f820116820180604052508101906110d39190611a38565b505b7f7fc4727e062e336010f2c282598ef5f14facb3de68cf8195c2f23e1454b2b74e33868660405161110893929190611d80565b60405180910390a1505060018081905550505050565b6003818154811061112e57600080fd5b90600052602060002090600302016000915090508060000160009054906101000a900473ffffffffffffffffffffffffffffffffffffffff16908060010154908060020160009054906101000a900473ffffffffffffffffffffffffffffffffffffffff16905083565b8160038054905081106111e0576040517f08c379a00000000000000000000000000000000000000000000000000000000081526004016111d790611e84565b60405180910390fd5b6111e86116ec565b73ffffffffffffffffffffffffffffffffffffffff16611206610d4d565b73ffffffffffffffffffffffffffffffffffffffff161461125c576040517f08c379a000000000000000000000000000000000000000000000000000000000815260040161125390611ec4565b60405180910390fd5b8160038481548110611297577f4e487b7100000000000000000000000000000000000000000000000000000000600052603260045260246000fd5b906000526020600020906003020160020160006101000a81548173ffffffffffffffffffffffffffffffffffffffff021916908373ffffffffffffffffffffffffffffffffffffffff1602179055507fc3e39387fdacfa0aa44a6d39dd701900d533b3e515d42054f6389321a06af71e8360038581548110611342577f4e487b7100000000000000000000000000000000000000000000000000000000600052603260045260246000fd5b906000526020600020906003020160000160009054906101000a900473ffffffffffffffffffffffffffffffffffffffff168460405161138493929190611f76565b60405180910390a1505050565b6004602052816000526040600020602052806000526040600020600091509150508060000154908060010154905082565b60006004600084815260200190815260200160002060008373ffffffffffffffffffffffffffffffffffffffff1673ffffffffffffffffffffffffffffffffffffffff16815260200190815260200160002060000154905092915050565b600260009054906101000a900473ffffffffffffffffffffffffffffffffffffffff1681565b600060038281548110611482577f4e487b7100000000000000000000000000000000000000000000000000000000600052603260045260246000fd5b906000526020600020906003020160000160009054906101000a900473ffffffffffffffffffffffffffffffffffffffff1673ffffffffffffffffffffffffffffffffffffffff166370a08231306040518263ffffffff1660e01b81526004016114ec9190611d05565b60206040518083038186803b15801561150457600080fd5b505afa158015611518573d6000803e3d6000fd5b505050506040513d601f19601f8201168201806040525081019061153c9190611a8a565b9050919050565b61154b6116ec565b73ffffffffffffffffffffffffffffffffffffffff16611569610d4d565b73ffffffffffffffffffffffffffffffffffffffff16146115bf576040517f08c379a00000000000000000000000000000000000000000000000000000000081526004016115b690611ec4565b60405180910390fd5b600073ffffffffffffffffffffffffffffffffffffffff168173ffffffffffffffffffffffffffffffffffffffff16141561162f576040517f08c379a000000000000000000000000000000000000000000000000000000000815260040161162690611e44565b60405180910390fd5b8073ffffffffffffffffffffffffffffffffffffffff1660008054906101000a900473ffffffffffffffffffffffffffffffffffffffff1673ffffffffffffffffffffffffffffffffffffffff167f8be0079c531659141344cd1fd0a4f28419497f9722a3daafe3b4186f6b6457e060405160405180910390a3806000806101000a81548173ffffffffffffffffffffffffffffffffffffffff021916908373ffffffffffffffffffffffffffffffffffffffff16021790555050565b600033905090565b6000611701848484611896565b9050600081111561189057600260009054906101000a900473ffffffffffffffffffffffffffffffffffffffff1673ffffffffffffffffffffffffffffffffffffffff166340c10f1930836040518363ffffffff1660e01b8152600401611769929190611d57565b600060405180830381600087803b15801561178357600080fd5b505af1158015611797573d6000803e3d6000fd5b50505050600260009054906101000a900473ffffffffffffffffffffffffffffffffffffffff1673ffffffffffffffffffffffffffffffffffffffff1663a9059cbb33836040518363ffffffff1660e01b81526004016117f8929190611d57565b602060405180830381600087803b15801561181257600080fd5b505af1158015611826573d6000803e3d6000fd5b505050506040513d601f19601f8201168201806040525081019061184a9190611a38565b504282600101819055507ff3a670cd3af7d64b488926880889d08a8585a138ff455227af6737339a1ec26233858360405161188793929190611d80565b60405180910390a15b50505050565b6000806301e133806018603c808660010154426118b391906120c8565b6118bd919061203d565b6118c7919061203d565b6118d1919061203d565b6118db919061203d565b90506118e5610c9d565b6118ee86610392565b6064808760010154858860000154611906919061206e565b611910919061206e565b61191a919061203d565b611924919061203d565b61192e919061206e565b611938919061203d565b9150509392505050565b6000813590506119518161240b565b92915050565b60008151905061196681612422565b92915050565b60008151905061197b81612439565b92915050565b60008135905061199081612450565b92915050565b6000815190506119a581612450565b92915050565b6000815190506119ba81612467565b92915050565b6000602082840312156119d257600080fd5b60006119e084828501611942565b91505092915050565b6000806000606084860312156119fe57600080fd5b6000611a0c86828701611942565b9350506020611a1d86828701611942565b9250506040611a2e86828701611981565b9150509250925092565b600060208284031215611a4a57600080fd5b6000611a5884828501611957565b91505092915050565b600060208284031215611a7357600080fd5b6000611a8184828501611981565b91505092915050565b600060208284031215611a9c57600080fd5b6000611aaa84828501611996565b91505092915050565b60008060408385031215611ac657600080fd5b6000611ad485828601611981565b9250506020611ae585828601611942565b9150509250929050565b60008060408385031215611b0257600080fd5b6000611b1085828601611981565b9250506020611b2185828601611981565b9150509250929050565b600080600080600060a08688031215611b4357600080fd5b6000611b51888289016119ab565b9550506020611b628882890161196c565b9450506040611b7388828901611996565b9350506060611b8488828901611996565b9250506080611b95888289016119ab565b9150509295509295909350565b611bab816120fc565b82525050565b611bba81612164565b82525050565b611bc981612188565b82525050565b611bd8816121ac565b82525050565b6000611beb601a83611fd6565b9150611bf682612277565b602082019050919050565b6000611c0e602683611fd6565b9150611c19826122a0565b604082019050919050565b6000611c31601183611fd6565b9150611c3c826122ef565b602082019050919050565b6000611c54600e83611fd6565b9150611c5f82612318565b602082019050919050565b6000611c77601483611fd6565b9150611c8282612341565b602082019050919050565b6000611c9a602083611fd6565b9150611ca58261236a565b602082019050919050565b6000611cbd602483611fd6565b9150611cc882612393565b604082019050919050565b6000611ce0601f83611fd6565b9150611ceb826123e2565b602082019050919050565b611cff81612144565b82525050565b6000602082019050611d1a6000830184611ba2565b92915050565b6000606082019050611d356000830186611ba2565b611d426020830185611ba2565b611d4f6040830184611cf6565b949350505050565b6000604082019050611d6c6000830185611ba2565b611d796020830184611cf6565b9392505050565b6000606082019050611d956000830186611ba2565b611da26020830185611cf6565b611daf6040830184611cf6565b949350505050565b6000602082019050611dcc6000830184611bb1565b92915050565b6000602082019050611de76000830184611bc0565b92915050565b6000606082019050611e026000830186611bcf565b611e0f6020830185611cf6565b611e1c6040830184611bb1565b949350505050565b60006020820190508181036000830152611e3d81611bde565b9050919050565b60006020820190508181036000830152611e5d81611c01565b9050919050565b60006020820190508181036000830152611e7d81611c24565b9050919050565b60006020820190508181036000830152611e9d81611c47565b9050919050565b60006020820190508181036000830152611ebd81611c6a565b9050919050565b60006020820190508181036000830152611edd81611c8d565b9050919050565b60006020820190508181036000830152611efd81611cb0565b9050919050565b60006020820190508181036000830152611f1d81611cd3565b9050919050565b6000602082019050611f396000830184611cf6565b92915050565b6000606082019050611f546000830186611cf6565b611f616020830185611ba2565b611f6e6040830184611ba2565b949350505050565b6000606082019050611f8b6000830186611cf6565b611f986020830185611bcf565b611fa56040830184611ba2565b949350505050565b6000604082019050611fc26000830185611cf6565b611fcf6020830184611cf6565b9392505050565b600082825260208201905092915050565b6000611ff282612144565b9150611ffd83612144565b9250827fffffffffffffffffffffffffffffffffffffffffffffffffffffffffffffffff0382111561203257612031612219565b5b828201905092915050565b600061204882612144565b915061205383612144565b92508261206357612062612248565b5b828204905092915050565b600061207982612144565b915061208483612144565b9250817fffffffffffffffffffffffffffffffffffffffffffffffffffffffffffffffff04831182151516156120bd576120bc612219565b5b828202905092915050565b60006120d382612144565b91506120de83612144565b9250828210156120f1576120f0612219565b5b828203905092915050565b600061210782612124565b9050919050565b60008115159050919050565b6000819050919050565b600073ffffffffffffffffffffffffffffffffffffffff82169050919050565b6000819050919050565b600069ffffffffffffffffffff82169050919050565b600061216f82612176565b9050919050565b600061218182612124565b9050919050565b60006121938261219a565b9050919050565b60006121a582612124565b9050919050565b60006121b7826121be565b9050919050565b60006121c982612124565b9050919050565b60006121db82612144565b91507fffffffffffffffffffffffffffffffffffffffffffffffffffffffffffffffff82141561220e5761220d612219565b5b600182019050919050565b7f4e487b7100000000000000000000000000000000000000000000000000000000600052601160045260246000fd5b7f4e487b7100000000000000000000000000000000000000000000000000000000600052601260045260246000fd5b7f496e73756666696369656e74207374616b656420616d6f756e74000000000000600082015250565b7f4f776e61626c653a206e6577206f776e657220697320746865207a65726f206160008201527f6464726573730000000000000000000000000000000000000000000000000000602082015250565b7f416d6f756e74206d757374206265203e30000000000000000000000000000000600082015250565b7f496e76616c696420706f6f6c4964000000000000000000000000000000000000600082015250565b7f496e73756666696369656e742062616c616e6365000000000000000000000000600082015250565b7f4f776e61626c653a2063616c6c6572206973206e6f7420746865206f776e6572600082015250565b7f506f6f6c2077697468207468697320746f6b656e20616c72656164792065786960008201527f7374732e00000000000000000000000000000000000000000000000000000000602082015250565b7f5265656e7472616e637947756172643a207265656e7472616e742063616c6c00600082015250565b612414816120fc565b811461241f57600080fd5b50565b61242b8161210e565b811461243657600080fd5b50565b6124428161211a565b811461244d57600080fd5b50565b61245981612144565b811461246457600080fd5b50565b6124708161214e565b811461247b57600080fd5b5056fea264697066735822122096d36bd7e3ca7b828a617b02db7df3f1147a7d9b8174cc5751468f908c58d4bb64736f6c63430008030033",
  "immutableReferences": {},
  "source": "// SPDX-License-Identifier: MIT\r\npragma solidity 0.8.3;\r\n\r\nimport '@openzeppelin/contracts/access/Ownable.sol';\r\nimport '@openzeppelin/contracts/security/ReentrancyGuard.sol';\r\nimport '@openzeppelin/contracts/token/ERC20/IERC20.sol';\r\nimport '@chainlink/contracts/src/v0.8/interfaces/AggregatorV3Interface.sol';\r\n\r\nimport './Happy.sol';\r\n\r\n\r\ncontract HappyChef is Ownable, ReentrancyGuard {\r\n\r\n    struct UserInfo {\r\n        uint256 amount;         // Amount of staked token provided\r\n        uint256 depositDate;    // Deposit date for interest calculation\r\n    }\r\n\r\n    struct PoolInfo {\r\n        IERC20 token;               // Address of the staked token\r\n        uint256 yield;              // Percentage yield for the pool, with 2 decimals\r\n        AggregatorV3Interface priceFeed;    // ChainLink oracle for the staked token\r\n    }\r\n\r\n    // The reward token\r\n    Happy public happy;\r\n\r\n    // The staking pools\r\n    PoolInfo[] public pools;\r\n\r\n    // For each pool, user info\r\n    mapping (uint256 => mapping(address => UserInfo)) public users;\r\n\r\n    // Price feed for the reward token\r\n    AggregatorV3Interface public happyPriceFeed;\r\n\r\n    event PoolAdded(uint256 poolId, address token, address priceFeed);\r\n    event PriceFeedUpdated(uint256 poolId, IERC20 token, address priceFeed);\r\n    event Staked(address user, uint256 poolId, uint256 amount);\r\n    event Unstaked(address user, uint256 poolId, uint256 amount);\r\n    event Redeemed(address user, uint256 poolId, uint256 amount);\r\n\r\n\r\n    // Check that the pool id is in the array range.\r\n    modifier validPool(uint256 _poolId) {\r\n        require(_poolId < pools.length, \"Invalid poolId\");\r\n        _;\r\n    }\r\n\r\n\r\n    modifier validAmount(uint256 _amount) {\r\n        require(_amount > 0, \"Amount must be >0\");\r\n        _;\r\n    }\r\n\r\n\r\n    constructor(Happy _happy, address _happyPriceFeed) {\r\n        happy = _happy;\r\n        happyPriceFeed = AggregatorV3Interface(_happyPriceFeed);\r\n    }\r\n\r\n\r\n    function getNbPools() external view returns (uint256) {\r\n        return pools.length;\r\n    }\r\n\r\n\r\n    function getUserBalance(uint256 poolId, address user) external view returns (uint256) {\r\n        return users[poolId][user].amount;\r\n    }\r\n\r\n\r\n    function getPoolBalance(uint256 poolId) external view returns (uint256) {\r\n        return pools[poolId].token.balanceOf(address(this));\r\n    }\r\n\r\n\r\n    function addPool(address _token, address _priceFeed, uint256 _yield) external onlyOwner {\r\n        // Check if pool already added\r\n        bool found = false;\r\n        for (uint i = 0; i < pools.length; i++) {\r\n            if (pools[i].token == IERC20(_token)) {\r\n                found = true;\r\n                break;\r\n            }\r\n        }\r\n        require(!found, \"Pool with this token already exists.\");\r\n\r\n        pools.push(PoolInfo({\r\n            token: IERC20(_token),\r\n            yield: _yield,\r\n            priceFeed: AggregatorV3Interface(_priceFeed)\r\n        }));\r\n\r\n        emit PoolAdded(pools.length - 1, _token, _priceFeed);\r\n    }\r\n\r\n\r\n    function updatePriceFeed(uint256 _poolId, address priceFeed) external validPool(_poolId) onlyOwner {\r\n        pools[_poolId].priceFeed = AggregatorV3Interface(priceFeed);\r\n\r\n        emit PriceFeedUpdated(_poolId, pools[_poolId].token, priceFeed);\r\n    }\r\n\r\n    \r\n    // Token approval is needed before calling this function.\r\n    function stake(uint256 _poolId, uint256 _amount) external validPool(_poolId) validAmount(_amount) nonReentrant {\r\n        PoolInfo storage pool = pools[_poolId];\r\n        UserInfo storage user = users[_poolId][msg.sender];\r\n        require(pool.token.balanceOf(msg.sender) >= _amount, \"Insufficient balance\");\r\n\r\n        if (user.amount > 0) {\r\n            // User had already staked, distribute reward\r\n            _distributeReward(_poolId, pool, user);\r\n        }\r\n    \r\n        user.amount += _amount;\r\n        user.depositDate = block.timestamp;\r\n\r\n        pool.token.transferFrom(msg.sender, address(this), _amount);\r\n\r\n        emit Staked(msg.sender, _poolId, _amount);\r\n    }\r\n\r\n\r\n    function _calculateReward(uint256 poolId, PoolInfo storage pool, UserInfo storage user) internal view returns (uint256) {\r\n        uint256 diff = (block.timestamp - user.depositDate) / 60 / 60 / 24 / 365 days;\r\n\r\n        return user.amount \r\n            * diff                                          // Datetime pro rata\r\n            * pool.yield / 100 /100                         // Pool yield (first / 100 is for 2 decimals, second is for %)\r\n            * getLastPrice(poolId) / getLastHappyPrice();   // Adjustment to price\r\n    }\r\n\r\n\r\n    function _distributeReward(uint256 _poolId, PoolInfo storage _pool, UserInfo storage _user) internal {\r\n        uint256 pending = _calculateReward(_poolId, _pool, _user);\r\n        if (pending > 0) {\r\n            happy.mint(address(this), pending);\r\n            happy.transfer(msg.sender, pending);\r\n\r\n            _user.depositDate = block.timestamp;\r\n\r\n            emit Redeemed(msg.sender, _poolId, pending);\r\n        }\r\n    }\r\n\r\n\r\n    // If this function is called with 0 as amount, it withdraw only the reward\r\n    function unstake(uint256 _poolId, uint256 _amount) external validPool(_poolId) nonReentrant {\r\n        PoolInfo storage pool = pools[_poolId];\r\n        UserInfo storage user = users[_poolId][msg.sender];\r\n        require(_amount <= user.amount, \"Insufficient staked amount\");\r\n\r\n        _distributeReward(_poolId, pool, user);\r\n\r\n        if (_amount > 0) {\r\n            user.amount -= _amount;\r\n            pool.token.transfer(msg.sender, _amount);\r\n        }\r\n\r\n        emit Unstaked(msg.sender, _poolId, _amount);\r\n    }\r\n\r\n\r\n    function pendingReward(uint256 _poolId, address _user) external view validPool(_poolId) returns (uint256) {\r\n        PoolInfo storage pool = pools[_poolId];\r\n        UserInfo storage user = users[_poolId][_user];\r\n\r\n        return _calculateReward(_poolId, pool, user);\r\n    }\r\n\r\n\r\n    function getLastPrice(uint256 _poolId) public view validPool(_poolId) returns (uint256) {        \r\n        (\r\n            /*uint80 roundId*/,\r\n            int price,\r\n            /*uint startAt*/,\r\n            /*uint timestamp*/,\r\n            /*uint80 answeredInRound*/\r\n        ) = pools[_poolId].priceFeed.latestRoundData();\r\n\r\n        return uint256(price);\r\n    }\r\n\r\n\r\n    function getLastHappyPrice() public view returns (uint256) {\r\n        (\r\n            /*uint80 roundId*/,\r\n            int price,\r\n            /*uint startAt*/,\r\n            /*uint timestamp*/,\r\n            /*uint80 answeredInRound*/\r\n        ) = happyPriceFeed.latestRoundData();\r\n\r\n        return uint256(price);\r\n    }\r\n\r\n}\r\n",
  "sourcePath": "C:/ws/alyra/dapp-staking/contracts/HappyChef.sol",
  "compiler": {
    "name": "solc",
    "version": "0.8.3+commit.8d00100c.Emscripten.clang"
  },
  "schemaVersion": "3.4.1",
  "updatedAt": "2021-05-25T14:19:38.806Z",
  "networkType": "ethereum",
  "devdoc": {
    "kind": "dev",
    "methods": {
      "owner()": {
        "details": "Returns the address of the current owner."
      },
      "renounceOwnership()": {
        "details": "Leaves the contract without owner. It will not be possible to call `onlyOwner` functions anymore. Can only be called by the current owner. NOTE: Renouncing ownership will leave the contract without an owner, thereby removing any functionality that is only available to the owner."
      },
      "transferOwnership(address)": {
        "details": "Transfers ownership of the contract to a new account (`newOwner`). Can only be called by the current owner."
      }
    },
    "version": 1
  },
  "userdoc": {
    "kind": "user",
    "methods": {},
    "version": 1
  }
}