{
  "contractName": "HappyChef",
  "abi": [
    {
      "inputs": [
        {
          "internalType": "contract Happy",
          "name": "_happy",
          "type": "address"
        },
        {
          "internalType": "uint256",
          "name": "_rewardPerBlock",
          "type": "uint256"
        }
      ],
      "stateMutability": "nonpayable",
      "type": "constructor"
    },
    {
      "anonymous": false,
      "inputs": [
        {
          "indexed": true,
          "internalType": "address",
          "name": "previousOwner",
          "type": "address"
        },
        {
          "indexed": true,
          "internalType": "address",
          "name": "newOwner",
          "type": "address"
        }
      ],
      "name": "OwnershipTransferred",
      "type": "event"
    },
    {
      "anonymous": false,
      "inputs": [
        {
          "indexed": false,
          "internalType": "uint256",
          "name": "poolId",
          "type": "uint256"
        },
        {
          "indexed": false,
          "internalType": "address",
          "name": "token",
          "type": "address"
        },
        {
          "indexed": false,
          "internalType": "address",
          "name": "priceFeed",
          "type": "address"
        }
      ],
      "name": "PoolAdded",
      "type": "event"
    },
    {
      "anonymous": false,
      "inputs": [
        {
          "indexed": false,
          "internalType": "uint256",
          "name": "poolId",
          "type": "uint256"
        },
        {
          "indexed": false,
          "internalType": "contract IERC20",
          "name": "token",
          "type": "address"
        },
        {
          "indexed": false,
          "internalType": "address",
          "name": "priceFeed",
          "type": "address"
        }
      ],
      "name": "PriceFeedUpdated",
      "type": "event"
    },
    {
      "anonymous": false,
      "inputs": [
        {
          "indexed": false,
          "internalType": "address",
          "name": "user",
          "type": "address"
        },
        {
          "indexed": false,
          "internalType": "uint256",
          "name": "poolId",
          "type": "uint256"
        },
        {
          "indexed": false,
          "internalType": "uint256",
          "name": "amount",
          "type": "uint256"
        }
      ],
      "name": "Redeemed",
      "type": "event"
    },
    {
      "anonymous": false,
      "inputs": [
        {
          "indexed": false,
          "internalType": "address",
          "name": "user",
          "type": "address"
        },
        {
          "indexed": false,
          "internalType": "uint256",
          "name": "poolId",
          "type": "uint256"
        },
        {
          "indexed": false,
          "internalType": "uint256",
          "name": "amount",
          "type": "uint256"
        }
      ],
      "name": "Staked",
      "type": "event"
    },
    {
      "anonymous": false,
      "inputs": [
        {
          "indexed": false,
          "internalType": "address",
          "name": "user",
          "type": "address"
        },
        {
          "indexed": false,
          "internalType": "uint256",
          "name": "poolId",
          "type": "uint256"
        },
        {
          "indexed": false,
          "internalType": "uint256",
          "name": "amount",
          "type": "uint256"
        }
      ],
      "name": "Unstaked",
      "type": "event"
    },
    {
      "inputs": [],
      "name": "happy",
      "outputs": [
        {
          "internalType": "contract Happy",
          "name": "",
          "type": "address"
        }
      ],
      "stateMutability": "view",
      "type": "function",
      "constant": true
    },
    {
      "inputs": [],
      "name": "owner",
      "outputs": [
        {
          "internalType": "address",
          "name": "",
          "type": "address"
        }
      ],
      "stateMutability": "view",
      "type": "function",
      "constant": true
    },
    {
      "inputs": [
        {
          "internalType": "uint256",
          "name": "",
          "type": "uint256"
        }
      ],
      "name": "pools",
      "outputs": [
        {
          "internalType": "contract IERC20",
          "name": "token",
          "type": "address"
        },
        {
          "internalType": "uint256",
          "name": "allocation",
          "type": "uint256"
        },
        {
          "internalType": "uint256",
          "name": "accRewardPerShare",
          "type": "uint256"
        },
        {
          "internalType": "uint256",
          "name": "lastRewardBlock",
          "type": "uint256"
        },
        {
          "internalType": "contract AggregatorV3Interface",
          "name": "priceFeed",
          "type": "address"
        }
      ],
      "stateMutability": "view",
      "type": "function",
      "constant": true
    },
    {
      "inputs": [],
      "name": "renounceOwnership",
      "outputs": [],
      "stateMutability": "nonpayable",
      "type": "function"
    },
    {
      "inputs": [
        {
          "internalType": "address",
          "name": "newOwner",
          "type": "address"
        }
      ],
      "name": "transferOwnership",
      "outputs": [],
      "stateMutability": "nonpayable",
      "type": "function"
    },
    {
      "inputs": [
        {
          "internalType": "uint256",
          "name": "",
          "type": "uint256"
        },
        {
          "internalType": "address",
          "name": "",
          "type": "address"
        }
      ],
      "name": "users",
      "outputs": [
        {
          "internalType": "uint256",
          "name": "amount",
          "type": "uint256"
        },
        {
          "internalType": "uint256",
          "name": "rewardDebt",
          "type": "uint256"
        }
      ],
      "stateMutability": "view",
      "type": "function",
      "constant": true
    },
    {
      "inputs": [
        {
          "internalType": "address",
          "name": "_token",
          "type": "address"
        },
        {
          "internalType": "address",
          "name": "_priceFeed",
          "type": "address"
        },
        {
          "internalType": "uint256",
          "name": "_allocation",
          "type": "uint256"
        }
      ],
      "name": "addPool",
      "outputs": [],
      "stateMutability": "nonpayable",
      "type": "function"
    },
    {
      "inputs": [
        {
          "internalType": "uint256",
          "name": "_poolId",
          "type": "uint256"
        },
        {
          "internalType": "address",
          "name": "priceFeed",
          "type": "address"
        }
      ],
      "name": "updatePriceFeed",
      "outputs": [],
      "stateMutability": "nonpayable",
      "type": "function"
    },
    {
      "inputs": [],
      "name": "getNbPools",
      "outputs": [
        {
          "internalType": "uint256",
          "name": "",
          "type": "uint256"
        }
      ],
      "stateMutability": "view",
      "type": "function",
      "constant": true
    },
    {
      "inputs": [
        {
          "internalType": "uint256",
          "name": "_poolId",
          "type": "uint256"
        },
        {
          "internalType": "uint256",
          "name": "_amount",
          "type": "uint256"
        }
      ],
      "name": "stake",
      "outputs": [],
      "stateMutability": "nonpayable",
      "type": "function"
    },
    {
      "inputs": [
        {
          "internalType": "uint256",
          "name": "_poolId",
          "type": "uint256"
        }
      ],
      "name": "updatePool",
      "outputs": [],
      "stateMutability": "nonpayable",
      "type": "function"
    },
    {
      "inputs": [
        {
          "internalType": "uint256",
          "name": "_poolId",
          "type": "uint256"
        },
        {
          "internalType": "uint256",
          "name": "_amount",
          "type": "uint256"
        }
      ],
      "name": "unstake",
      "outputs": [],
      "stateMutability": "nonpayable",
      "type": "function"
    },
    {
      "inputs": [
        {
          "internalType": "uint256",
          "name": "_poolId",
          "type": "uint256"
        },
        {
          "internalType": "address",
          "name": "_user",
          "type": "address"
        }
      ],
      "name": "pendingReward",
      "outputs": [
        {
          "internalType": "uint256",
          "name": "",
          "type": "uint256"
        }
      ],
      "stateMutability": "view",
      "type": "function",
      "constant": true
    },
    {
      "inputs": [
        {
          "internalType": "uint256",
          "name": "_poolId",
          "type": "uint256"
        }
      ],
      "name": "getLastPrice",
      "outputs": [
        {
          "internalType": "int256",
          "name": "",
          "type": "int256"
        }
      ],
      "stateMutability": "view",
      "type": "function",
      "constant": true
    }
  ],
  "bytecode": "0x60806040523480156200001157600080fd5b50604051620027743803806200277483398181016040528101906200003791906200016d565b6000620000496200013760201b60201c565b9050806000806101000a81548173ffffffffffffffffffffffffffffffffffffffff021916908373ffffffffffffffffffffffffffffffffffffffff1602179055508073ffffffffffffffffffffffffffffffffffffffff16600073ffffffffffffffffffffffffffffffffffffffff167f8be0079c531659141344cd1fd0a4f28419497f9722a3daafe3b4186f6b6457e060405160405180910390a35081600160006101000a81548173ffffffffffffffffffffffffffffffffffffffff021916908373ffffffffffffffffffffffffffffffffffffffff16021790555080600281905550505062000234565b600033905090565b600081519050620001508162000200565b92915050565b60008151905062000167816200021a565b92915050565b600080604083850312156200018157600080fd5b600062000191858286016200013f565b9250506020620001a48582860162000156565b9150509250929050565b6000620001bb82620001d6565b9050919050565b6000620001cf82620001ae565b9050919050565b600073ffffffffffffffffffffffffffffffffffffffff82169050919050565b6000819050919050565b6200020b81620001c2565b81146200021757600080fd5b50565b6200022581620001f6565b81146200023157600080fd5b50565b61253080620002446000396000f3fe608060405234801561001057600080fd5b50600436106100ea5760003560e01c806398969e821161008c578063acfc827e11610066578063acfc827e14610239578063b9d02df414610255578063e0d7cb6f14610286578063f2fde38b146102a4576100ea565b806398969e82146101b95780639e2c8a5b146101e9578063ac4afa3814610205576100ea565b8063715018a6116100c8578063715018a6146101595780637b0472f0146101635780637e29d6c21461017f5780638da5cb5b1461019b576100ea565b806351eb05a6146100ef57806352918b761461010b57806365fa2f7f14610129575b600080fd5b61010960048036038101906101049190611b1e565b6102c0565b005b610113610535565b6040516101209190611fc9565b60405180910390f35b610143600480360381019061013e9190611b1e565b610542565b6040516101509190611ece565b60405180910390f35b610161610687565b005b61017d60048036038101906101789190611bac565b6107c1565b005b61019960048036038101906101949190611aa6565b610c29565b005b6101a3610f4b565b6040516101b09190611dae565b60405180910390f35b6101d360048036038101906101ce9190611b70565b610f74565b6040516101e09190611fc9565b60405180910390f35b61020360048036038101906101fe9190611bac565b6111c8565b005b61021f600480360381019061021a9190611b1e565b611578565b604051610230959493929190611e7b565b60405180910390f35b610253600480360381019061024e9190611b70565b6115fe565b005b61026f600480360381019061026a9190611b70565b6117f7565b60405161027d929190612052565b60405180910390f35b61028e611828565b60405161029b9190611e60565b60405180910390f35b6102be60048036038101906102b99190611a7d565b61184e565b005b806004805490508110610308576040517f08c379a00000000000000000000000000000000000000000000000000000000081526004016102ff90611f49565b60405180910390fd5b600060048381548110610344577f4e487b7100000000000000000000000000000000000000000000000000000000600052603260045260246000fd5b90600052602060002090600502019050806003015443116103655750610531565b60008160000160009054906101000a900473ffffffffffffffffffffffffffffffffffffffff1673ffffffffffffffffffffffffffffffffffffffff166370a08231306040518263ffffffff1660e01b81526004016103c49190611dae565b60206040518083038186803b1580156103dc57600080fd5b505afa1580156103f0573d6000803e3d6000fd5b505050506040513d601f19601f820116820180604052508101906104149190611b47565b905060008114610525576000600354836001015460025485600301544361043b919061216d565b6104459190612113565b61044f9190612113565b61045991906120e2565b9050600160009054906101000a900473ffffffffffffffffffffffffffffffffffffffff1673ffffffffffffffffffffffffffffffffffffffff166340c10f1930836040518363ffffffff1660e01b81526004016104b8929190611e00565b600060405180830381600087803b1580156104d257600080fd5b505af11580156104e6573d6000803e3d6000fd5b5050505081670de0b6b3a7640000826104ff9190612113565b61050991906120e2565b83600201600082825461051c919061208c565b92505081905550505b43826003018190555050505b5050565b6000600480549050905090565b600081600480549050811061058c576040517f08c379a000000000000000000000000000000000000000000000000000000000815260040161058390611f49565b60405180910390fd5b6000600484815481106105c8577f4e487b7100000000000000000000000000000000000000000000000000000000600052603260045260246000fd5b906000526020600020906005020160040160009054906101000a900473ffffffffffffffffffffffffffffffffffffffff1673ffffffffffffffffffffffffffffffffffffffff1663feaf968c6040518163ffffffff1660e01b815260040160a06040518083038186803b15801561063f57600080fd5b505afa158015610653573d6000803e3d6000fd5b505050506040513d601f19601f820116820180604052508101906106779190611be8565b5050509150508092505050919050565b61068f6119f7565b73ffffffffffffffffffffffffffffffffffffffff166106ad610f4b565b73ffffffffffffffffffffffffffffffffffffffff1614610703576040517f08c379a00000000000000000000000000000000000000000000000000000000081526004016106fa90611f89565b60405180910390fd5b600073ffffffffffffffffffffffffffffffffffffffff1660008054906101000a900473ffffffffffffffffffffffffffffffffffffffff1673ffffffffffffffffffffffffffffffffffffffff167f8be0079c531659141344cd1fd0a4f28419497f9722a3daafe3b4186f6b6457e060405160405180910390a360008060006101000a81548173ffffffffffffffffffffffffffffffffffffffff021916908373ffffffffffffffffffffffffffffffffffffffff160217905550565b816004805490508110610809576040517f08c379a000000000000000000000000000000000000000000000000000000000815260040161080090611f49565b60405180910390fd5b816000811161084d576040517f08c379a000000000000000000000000000000000000000000000000000000000815260040161084490611f29565b60405180910390fd5b600060048581548110610889577f4e487b7100000000000000000000000000000000000000000000000000000000600052603260045260246000fd5b9060005260206000209060050201905060006005600087815260200190815260200160002060003373ffffffffffffffffffffffffffffffffffffffff1673ffffffffffffffffffffffffffffffffffffffff1681526020019081526020016000209050848260000160009054906101000a900473ffffffffffffffffffffffffffffffffffffffff1673ffffffffffffffffffffffffffffffffffffffff166370a08231336040518263ffffffff1660e01b815260040161094b9190611dae565b60206040518083038186803b15801561096357600080fd5b505afa158015610977573d6000803e3d6000fd5b505050506040513d601f19601f8201168201806040525081019061099b9190611b47565b10156109dc576040517f08c379a00000000000000000000000000000000000000000000000000000000081526004016109d390611f69565b60405180910390fd5b6109e5866102c0565b600081600001541115610ae85760008160010154670de0b6b3a764000084600201548460000154610a169190612113565b610a2091906120e2565b610a2a919061216d565b90506000811115610ae657600160009054906101000a900473ffffffffffffffffffffffffffffffffffffffff1673ffffffffffffffffffffffffffffffffffffffff1663a9059cbb33836040518363ffffffff1660e01b8152600401610a92929190611e00565b602060405180830381600087803b158015610aac57600080fd5b505af1158015610ac0573d6000803e3d6000fd5b505050506040513d601f19601f82011682018060405250810190610ae49190611af5565b505b505b84816000016000828254610afc919061208c565b92505081905550670de0b6b3a764000082600201548260000154610b209190612113565b610b2a91906120e2565b81600101819055508160000160009054906101000a900473ffffffffffffffffffffffffffffffffffffffff1673ffffffffffffffffffffffffffffffffffffffff166323b872dd3330886040518463ffffffff1660e01b8152600401610b9393929190611dc9565b602060405180830381600087803b158015610bad57600080fd5b505af1158015610bc1573d6000803e3d6000fd5b505050506040513d601f19601f82011682018060405250810190610be59190611af5565b507f1449c6dd7851abc30abf37f57715f492010519147cc2652fbc38202c18a6ee90338787604051610c1993929190611e29565b60405180910390a1505050505050565b610c316119f7565b73ffffffffffffffffffffffffffffffffffffffff16610c4f610f4b565b73ffffffffffffffffffffffffffffffffffffffff1614610ca5576040517f08c379a0000000000000000000000000000000000000000000000000000000008152600401610c9c90611f89565b60405180910390fd5b6000805b600480549050811015610d71578473ffffffffffffffffffffffffffffffffffffffff1660048281548110610d07577f4e487b7100000000000000000000000000000000000000000000000000000000600052603260045260246000fd5b906000526020600020906005020160000160009054906101000a900473ffffffffffffffffffffffffffffffffffffffff1673ffffffffffffffffffffffffffffffffffffffff161415610d5e5760019150610d71565b8080610d6990612275565b915050610ca9565b508015610db3576040517f08c379a0000000000000000000000000000000000000000000000000000000008152600401610daa90611fa9565b60405180910390fd5b60046040518060a001604052808673ffffffffffffffffffffffffffffffffffffffff168152602001848152602001600081526020014381526020018573ffffffffffffffffffffffffffffffffffffffff16815250908060018154018082558091505060019003906000526020600020906005020160009091909190915060008201518160000160006101000a81548173ffffffffffffffffffffffffffffffffffffffff021916908373ffffffffffffffffffffffffffffffffffffffff16021790555060208201518160010155604082015181600201556060820151816003015560808201518160040160006101000a81548173ffffffffffffffffffffffffffffffffffffffff021916908373ffffffffffffffffffffffffffffffffffffffff16021790555050508160036000828254610ef2919061208c565b925050819055507ff526af69faf759a24b780dee9d979f542b6a5e8bfa39c7b04fcce83cb9982b8a6001600480549050610f2c919061216d565b8585604051610f3d93929190611fe4565b60405180910390a150505050565b60008060009054906101000a900473ffffffffffffffffffffffffffffffffffffffff16905090565b6000826004805490508110610fbe576040517f08c379a0000000000000000000000000000000000000000000000000000000008152600401610fb590611f49565b60405180910390fd5b600060048581548110610ffa577f4e487b7100000000000000000000000000000000000000000000000000000000600052603260045260246000fd5b9060005260206000209060050201905060006005600087815260200190815260200160002060008673ffffffffffffffffffffffffffffffffffffffff1673ffffffffffffffffffffffffffffffffffffffff168152602001908152602001600020905060008260020154905060008360000160009054906101000a900473ffffffffffffffffffffffffffffffffffffffff1673ffffffffffffffffffffffffffffffffffffffff166370a08231306040518263ffffffff1660e01b81526004016110c69190611dae565b60206040518083038186803b1580156110de57600080fd5b505afa1580156110f2573d6000803e3d6000fd5b505050506040513d601f19601f820116820180604052508101906111169190611b47565b905083600301544311801561112c575060008114155b1561119c576000600354856001015460025487600301544361114e919061216d565b6111589190612113565b6111629190612113565b61116c91906120e2565b905081670de0b6b3a7640000826111839190612113565b61118d91906120e2565b83611198919061208c565b9250505b82600101548284600001546111b19190612113565b6111bb919061216d565b9550505050505092915050565b816004805490508110611210576040517f08c379a000000000000000000000000000000000000000000000000000000000815260040161120790611f49565b60405180910390fd5b8160008111611254576040517f08c379a000000000000000000000000000000000000000000000000000000000815260040161124b90611f29565b60405180910390fd5b600060048581548110611290577f4e487b7100000000000000000000000000000000000000000000000000000000600052603260045260246000fd5b9060005260206000209060050201905060006005600087815260200190815260200160002060003373ffffffffffffffffffffffffffffffffffffffff1673ffffffffffffffffffffffffffffffffffffffff1681526020019081526020016000209050806000015485111561133b576040517f08c379a000000000000000000000000000000000000000000000000000000000815260040161133290611ee9565b60405180910390fd5b611344866102c0565b60008160010154670de0b6b3a7640000846002015484600001546113689190612113565b61137291906120e2565b61137c919061216d565b9050600081111561143857600160009054906101000a900473ffffffffffffffffffffffffffffffffffffffff1673ffffffffffffffffffffffffffffffffffffffff1663a9059cbb33836040518363ffffffff1660e01b81526004016113e4929190611e00565b602060405180830381600087803b1580156113fe57600080fd5b505af1158015611412573d6000803e3d6000fd5b505050506040513d601f19601f820116820180604052508101906114369190611af5565b505b8582600001600082825461144c919061216d565b925050819055508260000160009054906101000a900473ffffffffffffffffffffffffffffffffffffffff1673ffffffffffffffffffffffffffffffffffffffff1663a9059cbb33886040518363ffffffff1660e01b81526004016114b2929190611e00565b602060405180830381600087803b1580156114cc57600080fd5b505af11580156114e0573d6000803e3d6000fd5b505050506040513d601f19601f820116820180604052508101906115049190611af5565b50670de0b6b3a7640000836002015483600001546115229190612113565b61152c91906120e2565b82600101819055507f7fc4727e062e336010f2c282598ef5f14facb3de68cf8195c2f23e1454b2b74e33888860405161156793929190611e29565b60405180910390a150505050505050565b6004818154811061158857600080fd5b90600052602060002090600502016000915090508060000160009054906101000a900473ffffffffffffffffffffffffffffffffffffffff16908060010154908060020154908060030154908060040160009054906101000a900473ffffffffffffffffffffffffffffffffffffffff16905085565b816004805490508110611646576040517f08c379a000000000000000000000000000000000000000000000000000000000815260040161163d90611f49565b60405180910390fd5b61164e6119f7565b73ffffffffffffffffffffffffffffffffffffffff1661166c610f4b565b73ffffffffffffffffffffffffffffffffffffffff16146116c2576040517f08c379a00000000000000000000000000000000000000000000000000000000081526004016116b990611f89565b60405180910390fd5b81600484815481106116fd577f4e487b7100000000000000000000000000000000000000000000000000000000600052603260045260246000fd5b906000526020600020906005020160040160006101000a81548173ffffffffffffffffffffffffffffffffffffffff021916908373ffffffffffffffffffffffffffffffffffffffff1602179055507fc3e39387fdacfa0aa44a6d39dd701900d533b3e515d42054f6389321a06af71e83600485815481106117a8577f4e487b7100000000000000000000000000000000000000000000000000000000600052603260045260246000fd5b906000526020600020906005020160000160009054906101000a900473ffffffffffffffffffffffffffffffffffffffff16846040516117ea9392919061201b565b60405180910390a1505050565b6005602052816000526040600020602052806000526040600020600091509150508060000154908060010154905082565b600160009054906101000a900473ffffffffffffffffffffffffffffffffffffffff1681565b6118566119f7565b73ffffffffffffffffffffffffffffffffffffffff16611874610f4b565b73ffffffffffffffffffffffffffffffffffffffff16146118ca576040517f08c379a00000000000000000000000000000000000000000000000000000000081526004016118c190611f89565b60405180910390fd5b600073ffffffffffffffffffffffffffffffffffffffff168173ffffffffffffffffffffffffffffffffffffffff16141561193a576040517f08c379a000000000000000000000000000000000000000000000000000000000815260040161193190611f09565b60405180910390fd5b8073ffffffffffffffffffffffffffffffffffffffff1660008054906101000a900473ffffffffffffffffffffffffffffffffffffffff1673ffffffffffffffffffffffffffffffffffffffff167f8be0079c531659141344cd1fd0a4f28419497f9722a3daafe3b4186f6b6457e060405160405180910390a3806000806101000a81548173ffffffffffffffffffffffffffffffffffffffff021916908373ffffffffffffffffffffffffffffffffffffffff16021790555050565b600033905090565b600081359050611a0e81612487565b92915050565b600081519050611a238161249e565b92915050565b600081519050611a38816124b5565b92915050565b600081359050611a4d816124cc565b92915050565b600081519050611a62816124cc565b92915050565b600081519050611a77816124e3565b92915050565b600060208284031215611a8f57600080fd5b6000611a9d848285016119ff565b91505092915050565b600080600060608486031215611abb57600080fd5b6000611ac9868287016119ff565b9350506020611ada868287016119ff565b9250506040611aeb86828701611a3e565b9150509250925092565b600060208284031215611b0757600080fd5b6000611b1584828501611a14565b91505092915050565b600060208284031215611b3057600080fd5b6000611b3e84828501611a3e565b91505092915050565b600060208284031215611b5957600080fd5b6000611b6784828501611a53565b91505092915050565b60008060408385031215611b8357600080fd5b6000611b9185828601611a3e565b9250506020611ba2858286016119ff565b9150509250929050565b60008060408385031215611bbf57600080fd5b6000611bcd85828601611a3e565b9250506020611bde85828601611a3e565b9150509250929050565b600080600080600060a08688031215611c0057600080fd5b6000611c0e88828901611a68565b9550506020611c1f88828901611a29565b9450506040611c3088828901611a53565b9350506060611c4188828901611a53565b9250506080611c5288828901611a68565b9150509295509295909350565b611c68816121a1565b82525050565b611c7781612209565b82525050565b611c868161222d565b82525050565b611c9581612251565b82525050565b611ca4816121bf565b82525050565b6000611cb7601a8361207b565b9150611cc28261231c565b602082019050919050565b6000611cda60268361207b565b9150611ce582612345565b604082019050919050565b6000611cfd60118361207b565b9150611d0882612394565b602082019050919050565b6000611d20600e8361207b565b9150611d2b826123bd565b602082019050919050565b6000611d4360148361207b565b9150611d4e826123e6565b602082019050919050565b6000611d6660208361207b565b9150611d718261240f565b602082019050919050565b6000611d8960248361207b565b9150611d9482612438565b604082019050919050565b611da8816121e9565b82525050565b6000602082019050611dc36000830184611c5f565b92915050565b6000606082019050611dde6000830186611c5f565b611deb6020830185611c5f565b611df86040830184611d9f565b949350505050565b6000604082019050611e156000830185611c5f565b611e226020830184611d9f565b9392505050565b6000606082019050611e3e6000830186611c5f565b611e4b6020830185611d9f565b611e586040830184611d9f565b949350505050565b6000602082019050611e756000830184611c7d565b92915050565b600060a082019050611e906000830188611c8c565b611e9d6020830187611d9f565b611eaa6040830186611d9f565b611eb76060830185611d9f565b611ec46080830184611c6e565b9695505050505050565b6000602082019050611ee36000830184611c9b565b92915050565b60006020820190508181036000830152611f0281611caa565b9050919050565b60006020820190508181036000830152611f2281611ccd565b9050919050565b60006020820190508181036000830152611f4281611cf0565b9050919050565b60006020820190508181036000830152611f6281611d13565b9050919050565b60006020820190508181036000830152611f8281611d36565b9050919050565b60006020820190508181036000830152611fa281611d59565b9050919050565b60006020820190508181036000830152611fc281611d7c565b9050919050565b6000602082019050611fde6000830184611d9f565b92915050565b6000606082019050611ff96000830186611d9f565b6120066020830185611c5f565b6120136040830184611c5f565b949350505050565b60006060820190506120306000830186611d9f565b61203d6020830185611c8c565b61204a6040830184611c5f565b949350505050565b60006040820190506120676000830185611d9f565b6120746020830184611d9f565b9392505050565b600082825260208201905092915050565b6000612097826121e9565b91506120a2836121e9565b9250827fffffffffffffffffffffffffffffffffffffffffffffffffffffffffffffffff038211156120d7576120d66122be565b5b828201905092915050565b60006120ed826121e9565b91506120f8836121e9565b925082612108576121076122ed565b5b828204905092915050565b600061211e826121e9565b9150612129836121e9565b9250817fffffffffffffffffffffffffffffffffffffffffffffffffffffffffffffffff0483118215151615612162576121616122be565b5b828202905092915050565b6000612178826121e9565b9150612183836121e9565b925082821015612196576121956122be565b5b828203905092915050565b60006121ac826121c9565b9050919050565b60008115159050919050565b6000819050919050565b600073ffffffffffffffffffffffffffffffffffffffff82169050919050565b6000819050919050565b600069ffffffffffffffffffff82169050919050565b60006122148261221b565b9050919050565b6000612226826121c9565b9050919050565b60006122388261223f565b9050919050565b600061224a826121c9565b9050919050565b600061225c82612263565b9050919050565b600061226e826121c9565b9050919050565b6000612280826121e9565b91507fffffffffffffffffffffffffffffffffffffffffffffffffffffffffffffffff8214156122b3576122b26122be565b5b600182019050919050565b7f4e487b7100000000000000000000000000000000000000000000000000000000600052601160045260246000fd5b7f4e487b7100000000000000000000000000000000000000000000000000000000600052601260045260246000fd5b7f496e73756666696369656e74207374616b656420616d6f756e74000000000000600082015250565b7f4f776e61626c653a206e6577206f776e657220697320746865207a65726f206160008201527f6464726573730000000000000000000000000000000000000000000000000000602082015250565b7f416d6f756e74206d757374206265203e30000000000000000000000000000000600082015250565b7f496e76616c696420706f6f6c4964000000000000000000000000000000000000600082015250565b7f496e73756666696369656e742062616c616e6365000000000000000000000000600082015250565b7f4f776e61626c653a2063616c6c6572206973206e6f7420746865206f776e6572600082015250565b7f506f6f6c2077697468207468697320746f6b656e20616c72656164792065786960008201527f7374732e00000000000000000000000000000000000000000000000000000000602082015250565b612490816121a1565b811461249b57600080fd5b50565b6124a7816121b3565b81146124b257600080fd5b50565b6124be816121bf565b81146124c957600080fd5b50565b6124d5816121e9565b81146124e057600080fd5b50565b6124ec816121f3565b81146124f757600080fd5b5056fea26469706673582212202b86e8ee8a3c7d4bb73a3110ca256665efef4f60f15ad0268d4595731573d3e264736f6c63430008030033",
  "immutableReferences": {},
  "source": "// SPDX-License-Identifier: MIT\r\npragma solidity 0.8.3;\r\n\r\nimport '@openzeppelin/contracts/access/Ownable.sol';\r\nimport '@openzeppelin/contracts/token/ERC20/IERC20.sol';\r\nimport '@chainlink/contracts/src/v0.8/interfaces/AggregatorV3Interface.sol';\r\n\r\nimport './Happy.sol';\r\n\r\n\r\ncontract HappyChef is Ownable {\r\n\r\n    struct UserInfo {\r\n        uint256 amount;     // Amount of staked token provided\r\n        uint256 rewardDebt; \r\n    }\r\n\r\n    struct PoolInfo {\r\n        IERC20 token;       // Address of the staked token\r\n        uint256 allocation;\r\n        uint256 accRewardPerShare;\r\n        uint256 lastRewardBlock;\r\n        AggregatorV3Interface priceFeed;\r\n    }\r\n\r\n    // The reward token\r\n    Happy public happy;\r\n\r\n    // Reward token minted for each block\r\n    uint256 rewardPerBlock;\r\n\r\n    uint256 totalAllocation;\r\n\r\n    // The staking pools\r\n    PoolInfo[] public pools;\r\n\r\n    // For each pool, user info\r\n    mapping (uint256 => mapping(address => UserInfo)) public users;\r\n\r\n\r\n    event PoolAdded(uint256 poolId, address token, address priceFeed);\r\n    event PriceFeedUpdated(uint256 poolId, IERC20 token, address priceFeed);\r\n    event Staked(address user, uint256 poolId, uint256 amount);\r\n    event Unstaked(address user, uint256 poolId, uint256 amount);\r\n    event Redeemed(address user, uint256 poolId, uint256 amount);\r\n\r\n\r\n    modifier validPool(uint256 _poolId) {\r\n        require(_poolId < pools.length, \"Invalid poolId\");\r\n        _;\r\n    }\r\n\r\n\r\n    modifier validAmount(uint256 _amount) {\r\n        require(_amount > 0, \"Amount must be >0\");\r\n        _;\r\n    }\r\n\r\n\r\n    constructor(Happy _happy, uint256 _rewardPerBlock) {\r\n        happy = _happy;\r\n        rewardPerBlock = _rewardPerBlock;\r\n    }\r\n\r\n\r\n    function addPool(address _token, address _priceFeed, uint256 _allocation) external onlyOwner {\r\n        // Check if pool already added\r\n        bool found = false;\r\n        for (uint i = 0; i < pools.length; i++) {\r\n            if (pools[i].token == IERC20(_token)) {\r\n                found = true;\r\n                break;\r\n            }\r\n        }\r\n        require(!found, \"Pool with this token already exists.\");\r\n\r\n        pools.push(PoolInfo({\r\n            token: IERC20(_token),\r\n            allocation: _allocation,\r\n            accRewardPerShare: 0,\r\n            lastRewardBlock: block.number,\r\n            priceFeed: AggregatorV3Interface(_priceFeed)\r\n        }));\r\n\r\n        totalAllocation += _allocation;\r\n\r\n        emit PoolAdded(pools.length - 1, _token, _priceFeed);\r\n    }\r\n\r\n\r\n    function updatePriceFeed(uint256 _poolId, address priceFeed) external validPool(_poolId) onlyOwner {\r\n        pools[_poolId].priceFeed = AggregatorV3Interface(priceFeed);\r\n\r\n        emit PriceFeedUpdated(_poolId, pools[_poolId].token, priceFeed);\r\n    }\r\n\r\n\r\n    function getNbPools() external view returns (uint256) {\r\n        return pools.length;\r\n    }\r\n\r\n    \r\n    // Token approval is needed before calling this function.\r\n    function stake(uint256 _poolId, uint256 _amount) external validPool(_poolId) validAmount(_amount) {\r\n        PoolInfo storage pool = pools[_poolId];\r\n        UserInfo storage user = users[_poolId][msg.sender];\r\n        require(pool.token.balanceOf(msg.sender) >= _amount, \"Insufficient balance\");\r\n\r\n        updatePool(_poolId);\r\n\r\n        if (user.amount > 0) {\r\n            // user had already staked, calculate reward until now\r\n            uint256 pending = user.amount * pool.accRewardPerShare / 1e18 - user.rewardDebt;\r\n            if (pending > 0) {\r\n                happy.transfer(msg.sender, pending);\r\n            }\r\n        }\r\n    \r\n        user.amount += _amount;\r\n        user.rewardDebt = user.amount * pool.accRewardPerShare / 1e18;\r\n\r\n        pool.token.transferFrom(msg.sender, address(this), _amount);\r\n\r\n        emit Staked(msg.sender, _poolId, _amount);\r\n    }\r\n\r\n\r\n    function updatePool(uint256 _poolId) public validPool(_poolId) {\r\n        PoolInfo storage pool = pools[_poolId];\r\n        if (block.number <= pool.lastRewardBlock) {\r\n            return;\r\n        }\r\n\r\n        uint256 supply = pool.token.balanceOf(address(this));\r\n        if (supply != 0) {\r\n            uint256 reward = (block.number - pool.lastRewardBlock) * rewardPerBlock * pool.allocation / totalAllocation;\r\n            happy.mint(address(this), reward);\r\n            pool.accRewardPerShare += reward * 1e18 / supply;\r\n        }\r\n\r\n        pool.lastRewardBlock = block.number;\r\n    }\r\n\r\n    // function redeem/harvest ?\r\n\r\n    function unstake(uint256 _poolId, uint256 _amount) external validPool(_poolId) validAmount(_amount) {\r\n        PoolInfo storage pool = pools[_poolId];\r\n        UserInfo storage user = users[_poolId][msg.sender];\r\n        require(_amount <= user.amount, \"Insufficient staked amount\");\r\n\r\n        updatePool(_poolId);\r\n\r\n        uint256 pending = user.amount * pool.accRewardPerShare / 1e18 - user.rewardDebt;\r\n        if (pending > 0) {\r\n            happy.transfer(msg.sender, pending);\r\n        }\r\n\r\n        user.amount -= _amount;\r\n        pool.token.transfer(msg.sender, _amount);\r\n\r\n        user.rewardDebt = user.amount * pool.accRewardPerShare / 1e18;\r\n\r\n        emit Unstaked(msg.sender, _poolId, _amount);\r\n    }\r\n\r\n\r\n    function pendingReward(uint256 _poolId, address _user) external view validPool(_poolId) returns (uint256) {\r\n        PoolInfo storage pool = pools[_poolId];\r\n        UserInfo storage user = users[_poolId][_user];\r\n        \r\n        uint256 accRewardPerShare = pool.accRewardPerShare;\r\n        uint256 supply = pool.token.balanceOf(address(this));\r\n        if (block.number > pool.lastRewardBlock && supply != 0) {\r\n            uint256 reward = (block.number - pool.lastRewardBlock) * rewardPerBlock * pool.allocation / totalAllocation;\r\n            accRewardPerShare = accRewardPerShare + reward * 1e18 / supply;\r\n        }\r\n\r\n        return user.amount * accRewardPerShare - user.rewardDebt;\r\n    }\r\n\r\n\r\n    function getLastPrice(uint256 _poolId) public view validPool(_poolId) returns (int) {        \r\n        (\r\n            /*uint80 roundId*/,\r\n            int price,\r\n            /*uint startAt*/,\r\n            /*uint timestamp*/,\r\n            /*uint80 answeredInRound*/\r\n        ) = pools[_poolId].priceFeed.latestRoundData();\r\n\r\n        return price;\r\n    }\r\n\r\n}\r\n",
  "sourcePath": "C:/ws/alyra/dapp-staking/contracts/HappyChef.sol",
  "compiler": {
    "name": "solc",
    "version": "0.8.3+commit.8d00100c.Emscripten.clang"
  },
  "schemaVersion": "3.3.4",
  "updatedAt": "2021-05-08T16:47:10.363Z",
  "networkType": "ethereum",
  "devdoc": {
    "kind": "dev",
    "methods": {
      "owner()": {
        "details": "Returns the address of the current owner."
      },
      "renounceOwnership()": {
        "details": "Leaves the contract without owner. It will not be possible to call `onlyOwner` functions anymore. Can only be called by the current owner. NOTE: Renouncing ownership will leave the contract without an owner, thereby removing any functionality that is only available to the owner."
      },
      "transferOwnership(address)": {
        "details": "Transfers ownership of the contract to a new account (`newOwner`). Can only be called by the current owner."
      }
    },
    "version": 1
  },
  "userdoc": {
    "kind": "user",
    "methods": {},
    "version": 1
  }
}