{
  "contractName": "HappyChef",
  "abi": [
    {
      "inputs": [
        {
          "internalType": "contract Happy",
          "name": "_happy",
          "type": "address"
        },
        {
          "internalType": "address",
          "name": "_happyPriceFeed",
          "type": "address"
        }
      ],
      "stateMutability": "nonpayable",
      "type": "constructor"
    },
    {
      "anonymous": false,
      "inputs": [
        {
          "indexed": true,
          "internalType": "address",
          "name": "previousOwner",
          "type": "address"
        },
        {
          "indexed": true,
          "internalType": "address",
          "name": "newOwner",
          "type": "address"
        }
      ],
      "name": "OwnershipTransferred",
      "type": "event"
    },
    {
      "anonymous": false,
      "inputs": [
        {
          "indexed": false,
          "internalType": "uint256",
          "name": "poolId",
          "type": "uint256"
        },
        {
          "indexed": false,
          "internalType": "address",
          "name": "token",
          "type": "address"
        },
        {
          "indexed": false,
          "internalType": "address",
          "name": "priceFeed",
          "type": "address"
        }
      ],
      "name": "PoolAdded",
      "type": "event"
    },
    {
      "anonymous": false,
      "inputs": [
        {
          "indexed": false,
          "internalType": "uint256",
          "name": "poolId",
          "type": "uint256"
        },
        {
          "indexed": false,
          "internalType": "contract ERC20",
          "name": "token",
          "type": "address"
        },
        {
          "indexed": false,
          "internalType": "address",
          "name": "priceFeed",
          "type": "address"
        }
      ],
      "name": "PriceFeedUpdated",
      "type": "event"
    },
    {
      "anonymous": false,
      "inputs": [
        {
          "indexed": false,
          "internalType": "address",
          "name": "user",
          "type": "address"
        },
        {
          "indexed": false,
          "internalType": "uint256",
          "name": "poolId",
          "type": "uint256"
        },
        {
          "indexed": false,
          "internalType": "uint256",
          "name": "amount",
          "type": "uint256"
        }
      ],
      "name": "Redeemed",
      "type": "event"
    },
    {
      "anonymous": false,
      "inputs": [
        {
          "indexed": false,
          "internalType": "address",
          "name": "user",
          "type": "address"
        },
        {
          "indexed": false,
          "internalType": "uint256",
          "name": "poolId",
          "type": "uint256"
        },
        {
          "indexed": false,
          "internalType": "uint256",
          "name": "amount",
          "type": "uint256"
        }
      ],
      "name": "Staked",
      "type": "event"
    },
    {
      "anonymous": false,
      "inputs": [
        {
          "indexed": false,
          "internalType": "address",
          "name": "user",
          "type": "address"
        },
        {
          "indexed": false,
          "internalType": "uint256",
          "name": "poolId",
          "type": "uint256"
        },
        {
          "indexed": false,
          "internalType": "uint256",
          "name": "amount",
          "type": "uint256"
        }
      ],
      "name": "Unstaked",
      "type": "event"
    },
    {
      "inputs": [],
      "name": "happy",
      "outputs": [
        {
          "internalType": "contract Happy",
          "name": "",
          "type": "address"
        }
      ],
      "stateMutability": "view",
      "type": "function",
      "constant": true
    },
    {
      "inputs": [],
      "name": "happyPriceFeed",
      "outputs": [
        {
          "internalType": "contract AggregatorV3Interface",
          "name": "",
          "type": "address"
        }
      ],
      "stateMutability": "view",
      "type": "function",
      "constant": true
    },
    {
      "inputs": [],
      "name": "owner",
      "outputs": [
        {
          "internalType": "address",
          "name": "",
          "type": "address"
        }
      ],
      "stateMutability": "view",
      "type": "function",
      "constant": true
    },
    {
      "inputs": [
        {
          "internalType": "uint256",
          "name": "",
          "type": "uint256"
        }
      ],
      "name": "pools",
      "outputs": [
        {
          "internalType": "contract ERC20",
          "name": "token",
          "type": "address"
        },
        {
          "internalType": "uint256",
          "name": "yield",
          "type": "uint256"
        },
        {
          "internalType": "contract AggregatorV3Interface",
          "name": "priceFeed",
          "type": "address"
        }
      ],
      "stateMutability": "view",
      "type": "function",
      "constant": true
    },
    {
      "inputs": [],
      "name": "renounceOwnership",
      "outputs": [],
      "stateMutability": "nonpayable",
      "type": "function"
    },
    {
      "inputs": [
        {
          "internalType": "address",
          "name": "newOwner",
          "type": "address"
        }
      ],
      "name": "transferOwnership",
      "outputs": [],
      "stateMutability": "nonpayable",
      "type": "function"
    },
    {
      "inputs": [
        {
          "internalType": "uint256",
          "name": "",
          "type": "uint256"
        },
        {
          "internalType": "address",
          "name": "",
          "type": "address"
        }
      ],
      "name": "users",
      "outputs": [
        {
          "internalType": "uint256",
          "name": "amount",
          "type": "uint256"
        },
        {
          "internalType": "uint256",
          "name": "depositDate",
          "type": "uint256"
        }
      ],
      "stateMutability": "view",
      "type": "function",
      "constant": true
    },
    {
      "inputs": [],
      "name": "getNbPools",
      "outputs": [
        {
          "internalType": "uint256",
          "name": "",
          "type": "uint256"
        }
      ],
      "stateMutability": "view",
      "type": "function",
      "constant": true
    },
    {
      "inputs": [
        {
          "internalType": "uint256",
          "name": "poolId",
          "type": "uint256"
        },
        {
          "internalType": "address",
          "name": "user",
          "type": "address"
        }
      ],
      "name": "getUserBalance",
      "outputs": [
        {
          "internalType": "uint256",
          "name": "",
          "type": "uint256"
        }
      ],
      "stateMutability": "view",
      "type": "function",
      "constant": true
    },
    {
      "inputs": [
        {
          "internalType": "uint256",
          "name": "poolId",
          "type": "uint256"
        }
      ],
      "name": "getPoolBalance",
      "outputs": [
        {
          "internalType": "uint256",
          "name": "",
          "type": "uint256"
        }
      ],
      "stateMutability": "view",
      "type": "function",
      "constant": true
    },
    {
      "inputs": [
        {
          "internalType": "address",
          "name": "_token",
          "type": "address"
        },
        {
          "internalType": "address",
          "name": "_priceFeed",
          "type": "address"
        },
        {
          "internalType": "uint256",
          "name": "_yield",
          "type": "uint256"
        }
      ],
      "name": "addPool",
      "outputs": [],
      "stateMutability": "nonpayable",
      "type": "function"
    },
    {
      "inputs": [
        {
          "internalType": "uint256",
          "name": "_poolId",
          "type": "uint256"
        },
        {
          "internalType": "address",
          "name": "priceFeed",
          "type": "address"
        }
      ],
      "name": "updatePriceFeed",
      "outputs": [],
      "stateMutability": "nonpayable",
      "type": "function"
    },
    {
      "inputs": [
        {
          "internalType": "uint256",
          "name": "_poolId",
          "type": "uint256"
        },
        {
          "internalType": "uint256",
          "name": "_amount",
          "type": "uint256"
        }
      ],
      "name": "stake",
      "outputs": [],
      "stateMutability": "nonpayable",
      "type": "function"
    },
    {
      "inputs": [
        {
          "internalType": "uint256",
          "name": "_poolId",
          "type": "uint256"
        },
        {
          "internalType": "address",
          "name": "_user",
          "type": "address"
        }
      ],
      "name": "calculateRewardDebug",
      "outputs": [
        {
          "internalType": "uint256",
          "name": "amount",
          "type": "uint256"
        },
        {
          "internalType": "uint256",
          "name": "base",
          "type": "uint256"
        },
        {
          "internalType": "uint256",
          "name": "delta",
          "type": "uint256"
        },
        {
          "internalType": "uint256",
          "name": "yield",
          "type": "uint256"
        },
        {
          "internalType": "uint256",
          "name": "tokenPrice",
          "type": "uint256"
        },
        {
          "internalType": "uint256",
          "name": "happyPrice",
          "type": "uint256"
        }
      ],
      "stateMutability": "view",
      "type": "function",
      "constant": true
    },
    {
      "inputs": [
        {
          "internalType": "uint256",
          "name": "_poolId",
          "type": "uint256"
        },
        {
          "internalType": "uint256",
          "name": "_amount",
          "type": "uint256"
        }
      ],
      "name": "unstake",
      "outputs": [],
      "stateMutability": "nonpayable",
      "type": "function"
    },
    {
      "inputs": [
        {
          "internalType": "uint256",
          "name": "_poolId",
          "type": "uint256"
        },
        {
          "internalType": "address",
          "name": "_user",
          "type": "address"
        }
      ],
      "name": "pendingReward",
      "outputs": [
        {
          "internalType": "uint256",
          "name": "",
          "type": "uint256"
        }
      ],
      "stateMutability": "view",
      "type": "function",
      "constant": true
    },
    {
      "inputs": [
        {
          "internalType": "uint256",
          "name": "_poolId",
          "type": "uint256"
        }
      ],
      "name": "getLastPrice",
      "outputs": [
        {
          "internalType": "uint256",
          "name": "",
          "type": "uint256"
        }
      ],
      "stateMutability": "view",
      "type": "function",
      "constant": true
    },
    {
      "inputs": [],
      "name": "getLastHappyPrice",
      "outputs": [
        {
          "internalType": "uint256",
          "name": "",
          "type": "uint256"
        }
      ],
      "stateMutability": "view",
      "type": "function",
      "constant": true
    }
  ],
  "bytecode": "0x60806040523480156200001157600080fd5b5060405162002c4438038062002c448339818101604052810190620000379190620001ae565b6000620000496200017860201b60201c565b9050806000806101000a81548173ffffffffffffffffffffffffffffffffffffffff021916908373ffffffffffffffffffffffffffffffffffffffff1602179055508073ffffffffffffffffffffffffffffffffffffffff16600073ffffffffffffffffffffffffffffffffffffffff167f8be0079c531659141344cd1fd0a4f28419497f9722a3daafe3b4186f6b6457e060405160405180910390a3506001808190555081600260006101000a81548173ffffffffffffffffffffffffffffffffffffffff021916908373ffffffffffffffffffffffffffffffffffffffff16021790555080600560006101000a81548173ffffffffffffffffffffffffffffffffffffffff021916908373ffffffffffffffffffffffffffffffffffffffff16021790555050506200026b565b600033905090565b600081519050620001918162000237565b92915050565b600081519050620001a88162000251565b92915050565b60008060408385031215620001c257600080fd5b6000620001d28582860162000197565b9250506020620001e58582860162000180565b9150509250929050565b6000620001fc8262000217565b9050919050565b60006200021082620001ef565b9050919050565b600073ffffffffffffffffffffffffffffffffffffffff82169050919050565b6200024281620001ef565b81146200024e57600080fd5b50565b6200025c8162000203565b81146200026857600080fd5b50565b6129c9806200027b6000396000f3fe608060405234801561001057600080fd5b50600436106101165760003560e01c806398969e82116100a2578063b9d02df411610071578063b9d02df4146102d4578063cdfb6cf314610305578063e0d7cb6f14610335578063ed1375d514610353578063f2fde38b1461038357610116565b806398969e821461023a5780639e2c8a5b1461026a578063ac4afa3814610286578063acfc827e146102b857610116565b8063715018a6116100e9578063715018a6146101bc5780637b0472f0146101c65780637e29d6c2146101e257806386a7a170146101fe5780638da5cb5b1461021c57610116565b806311df50d81461011b578063344e516d1461013957806352918b761461016e57806365fa2f7f1461018c575b600080fd5b61012361039f565b60405161013091906120c9565b60405180910390f35b610153600480360381019061014e9190611d9c565b6103c5565b604051610165969594939291906122e8565b60405180910390f35b6101766105a8565b6040516101839190612236565b60405180910390f35b6101a660048036038101906101a19190611d4a565b6105b5565b6040516101b39190612236565b60405180910390f35b6101c46106fa565b005b6101e060048036038101906101db9190611dd8565b610834565b005b6101fc60048036038101906101f79190611cd2565b610bd8565b005b610206610ec0565b6040516102139190612236565b60405180910390f35b610224610f70565b6040516102319190612017565b60405180910390f35b610254600480360381019061024f9190611d9c565b610f99565b6040516102619190612236565b60405180910390f35b610284600480360381019061027f9190611dd8565b611099565b005b6102a0600480360381019061029b9190611d4a565b611341565b6040516102af939291906120e4565b60405180910390f35b6102d260048036038101906102cd9190611d9c565b6113bb565b005b6102ee60048036038101906102e99190611d9c565b6115b4565b6040516102fc9291906122bf565b60405180910390f35b61031f600480360381019061031a9190611d9c565b6115e5565b60405161032c9190612236565b60405180910390f35b61033d611643565b60405161034a919061211b565b60405180910390f35b61036d60048036038101906103689190611d4a565b611669565b60405161037a9190612236565b60405180910390f35b61039d60048036038101906103989190611ca9565b611766565b005b600560009054906101000a900473ffffffffffffffffffffffffffffffffffffffff1681565b600080600080600080876003805490508110610416576040517f08c379a000000000000000000000000000000000000000000000000000000000815260040161040d90612196565b60405180910390fd5b600060038a81548110610452577f4e487b7100000000000000000000000000000000000000000000000000000000600052603260045260246000fd5b906000526020600020906003020190506000600460008c815260200190815260200160002060008b73ffffffffffffffffffffffffffffffffffffffff1673ffffffffffffffffffffffffffffffffffffffff1681526020019081526020016000209050806000015498508160000160009054906101000a900473ffffffffffffffffffffffffffffffffffffffff1673ffffffffffffffffffffffffffffffffffffffff1663313ce5676040518163ffffffff1660e01b815260040160206040518083038186803b15801561052757600080fd5b505afa15801561053b573d6000803e3d6000fd5b505050506040513d601f19601f8201168201806040525081019061055f9190611e8b565b600a61056b9190612434565b975080600101544261057d91906125ac565b96508160010154955061058f8b6105b5565b9450610599610ec0565b93505050509295509295509295565b6000600380549050905090565b60008160038054905081106105ff576040517f08c379a00000000000000000000000000000000000000000000000000000000081526004016105f690612196565b60405180910390fd5b60006003848154811061063b577f4e487b7100000000000000000000000000000000000000000000000000000000600052603260045260246000fd5b906000526020600020906003020160020160009054906101000a900473ffffffffffffffffffffffffffffffffffffffff1673ffffffffffffffffffffffffffffffffffffffff1663feaf968c6040518163ffffffff1660e01b815260040160a06040518083038186803b1580156106b257600080fd5b505afa1580156106c6573d6000803e3d6000fd5b505050506040513d601f19601f820116820180604052508101906106ea9190611e14565b5050509150508092505050919050565b61070261190f565b73ffffffffffffffffffffffffffffffffffffffff16610720610f70565b73ffffffffffffffffffffffffffffffffffffffff1614610776576040517f08c379a000000000000000000000000000000000000000000000000000000000815260040161076d906121d6565b60405180910390fd5b600073ffffffffffffffffffffffffffffffffffffffff1660008054906101000a900473ffffffffffffffffffffffffffffffffffffffff1673ffffffffffffffffffffffffffffffffffffffff167f8be0079c531659141344cd1fd0a4f28419497f9722a3daafe3b4186f6b6457e060405160405180910390a360008060006101000a81548173ffffffffffffffffffffffffffffffffffffffff021916908373ffffffffffffffffffffffffffffffffffffffff160217905550565b81600380549050811061087c576040517f08c379a000000000000000000000000000000000000000000000000000000000815260040161087390612196565b60405180910390fd5b81600081116108c0576040517f08c379a00000000000000000000000000000000000000000000000000000000081526004016108b790612176565b60405180910390fd5b60026001541415610906576040517f08c379a00000000000000000000000000000000000000000000000000000000081526004016108fd90612216565b60405180910390fd5b600260018190555060006003858154811061094a577f4e487b7100000000000000000000000000000000000000000000000000000000600052603260045260246000fd5b9060005260206000209060030201905060006004600087815260200190815260200160002060003373ffffffffffffffffffffffffffffffffffffffff1673ffffffffffffffffffffffffffffffffffffffff1681526020019081526020016000209050848260000160009054906101000a900473ffffffffffffffffffffffffffffffffffffffff1673ffffffffffffffffffffffffffffffffffffffff166370a08231336040518263ffffffff1660e01b8152600401610a0c9190612017565b60206040518083038186803b158015610a2457600080fd5b505afa158015610a38573d6000803e3d6000fd5b505050506040513d601f19601f82011682018060405250810190610a5c9190611d73565b1015610a9d576040517f08c379a0000000000000000000000000000000000000000000000000000000008152600401610a94906121b6565b60405180910390fd5b600081600001541115610ab657610ab5868383611917565b5b84816000016000828254610aca919061235a565b925050819055504281600101819055508160000160009054906101000a900473ffffffffffffffffffffffffffffffffffffffff1673ffffffffffffffffffffffffffffffffffffffff166323b872dd3330886040518463ffffffff1660e01b8152600401610b3b93929190612032565b602060405180830381600087803b158015610b5557600080fd5b505af1158015610b69573d6000803e3d6000fd5b505050506040513d601f19601f82011682018060405250810190610b8d9190611d21565b507f1449c6dd7851abc30abf37f57715f492010519147cc2652fbc38202c18a6ee90338787604051610bc193929190612092565b60405180910390a150506001808190555050505050565b610be061190f565b73ffffffffffffffffffffffffffffffffffffffff16610bfe610f70565b73ffffffffffffffffffffffffffffffffffffffff1614610c54576040517f08c379a0000000000000000000000000000000000000000000000000000000008152600401610c4b906121d6565b60405180910390fd5b6000805b600380549050811015610d20578473ffffffffffffffffffffffffffffffffffffffff1660038281548110610cb6577f4e487b7100000000000000000000000000000000000000000000000000000000600052603260045260246000fd5b906000526020600020906003020160000160009054906101000a900473ffffffffffffffffffffffffffffffffffffffff1673ffffffffffffffffffffffffffffffffffffffff161415610d0d5760019150610d20565b8080610d18906126c1565b915050610c58565b508015610d62576040517f08c379a0000000000000000000000000000000000000000000000000000000008152600401610d59906121f6565b60405180910390fd5b600360405180606001604052808673ffffffffffffffffffffffffffffffffffffffff1681526020018481526020018573ffffffffffffffffffffffffffffffffffffffff16815250908060018154018082558091505060019003906000526020600020906003020160009091909190915060008201518160000160006101000a81548173ffffffffffffffffffffffffffffffffffffffff021916908373ffffffffffffffffffffffffffffffffffffffff1602179055506020820151816001015560408201518160020160006101000a81548173ffffffffffffffffffffffffffffffffffffffff021916908373ffffffffffffffffffffffffffffffffffffffff16021790555050507ff526af69faf759a24b780dee9d979f542b6a5e8bfa39c7b04fcce83cb9982b8a6001600380549050610ea191906125ac565b8585604051610eb293929190612251565b60405180910390a150505050565b600080600560009054906101000a900473ffffffffffffffffffffffffffffffffffffffff1673ffffffffffffffffffffffffffffffffffffffff1663feaf968c6040518163ffffffff1660e01b815260040160a06040518083038186803b158015610f2b57600080fd5b505afa158015610f3f573d6000803e3d6000fd5b505050506040513d601f19601f82011682018060405250810190610f639190611e14565b5050509150508091505090565b60008060009054906101000a900473ffffffffffffffffffffffffffffffffffffffff16905090565b6000826003805490508110610fe3576040517f08c379a0000000000000000000000000000000000000000000000000000000008152600401610fda90612196565b60405180910390fd5b60006003858154811061101f577f4e487b7100000000000000000000000000000000000000000000000000000000600052603260045260246000fd5b9060005260206000209060030201905060006004600087815260200190815260200160002060008673ffffffffffffffffffffffffffffffffffffffff1673ffffffffffffffffffffffffffffffffffffffff168152602001908152602001600020905061108e868383611ab9565b935050505092915050565b8160038054905081106110e1576040517f08c379a00000000000000000000000000000000000000000000000000000000081526004016110d890612196565b60405180910390fd5b60026001541415611127576040517f08c379a000000000000000000000000000000000000000000000000000000000815260040161111e90612216565b60405180910390fd5b600260018190555060006003848154811061116b577f4e487b7100000000000000000000000000000000000000000000000000000000600052603260045260246000fd5b9060005260206000209060030201905060006004600086815260200190815260200160002060003373ffffffffffffffffffffffffffffffffffffffff1673ffffffffffffffffffffffffffffffffffffffff16815260200190815260200160002090508060000154841115611216576040517f08c379a000000000000000000000000000000000000000000000000000000000815260040161120d90612136565b60405180910390fd5b611221858383611917565b60008411156112f8578381600001600082825461123e91906125ac565b925050819055508160000160009054906101000a900473ffffffffffffffffffffffffffffffffffffffff1673ffffffffffffffffffffffffffffffffffffffff1663a9059cbb33866040518363ffffffff1660e01b81526004016112a4929190612069565b602060405180830381600087803b1580156112be57600080fd5b505af11580156112d2573d6000803e3d6000fd5b505050506040513d601f19601f820116820180604052508101906112f69190611d21565b505b7f7fc4727e062e336010f2c282598ef5f14facb3de68cf8195c2f23e1454b2b74e33868660405161132b93929190612092565b60405180910390a1505060018081905550505050565b6003818154811061135157600080fd5b90600052602060002090600302016000915090508060000160009054906101000a900473ffffffffffffffffffffffffffffffffffffffff16908060010154908060020160009054906101000a900473ffffffffffffffffffffffffffffffffffffffff16905083565b816003805490508110611403576040517f08c379a00000000000000000000000000000000000000000000000000000000081526004016113fa90612196565b60405180910390fd5b61140b61190f565b73ffffffffffffffffffffffffffffffffffffffff16611429610f70565b73ffffffffffffffffffffffffffffffffffffffff161461147f576040517f08c379a0000000000000000000000000000000000000000000000000000000008152600401611476906121d6565b60405180910390fd5b81600384815481106114ba577f4e487b7100000000000000000000000000000000000000000000000000000000600052603260045260246000fd5b906000526020600020906003020160020160006101000a81548173ffffffffffffffffffffffffffffffffffffffff021916908373ffffffffffffffffffffffffffffffffffffffff1602179055507fc3e39387fdacfa0aa44a6d39dd701900d533b3e515d42054f6389321a06af71e8360038581548110611565577f4e487b7100000000000000000000000000000000000000000000000000000000600052603260045260246000fd5b906000526020600020906003020160000160009054906101000a900473ffffffffffffffffffffffffffffffffffffffff16846040516115a793929190612288565b60405180910390a1505050565b6004602052816000526040600020602052806000526040600020600091509150508060000154908060010154905082565b60006004600084815260200190815260200160002060008373ffffffffffffffffffffffffffffffffffffffff1673ffffffffffffffffffffffffffffffffffffffff16815260200190815260200160002060000154905092915050565b600260009054906101000a900473ffffffffffffffffffffffffffffffffffffffff1681565b6000600382815481106116a5577f4e487b7100000000000000000000000000000000000000000000000000000000600052603260045260246000fd5b906000526020600020906003020160000160009054906101000a900473ffffffffffffffffffffffffffffffffffffffff1673ffffffffffffffffffffffffffffffffffffffff166370a08231306040518263ffffffff1660e01b815260040161170f9190612017565b60206040518083038186803b15801561172757600080fd5b505afa15801561173b573d6000803e3d6000fd5b505050506040513d601f19601f8201168201806040525081019061175f9190611d73565b9050919050565b61176e61190f565b73ffffffffffffffffffffffffffffffffffffffff1661178c610f70565b73ffffffffffffffffffffffffffffffffffffffff16146117e2576040517f08c379a00000000000000000000000000000000000000000000000000000000081526004016117d9906121d6565b60405180910390fd5b600073ffffffffffffffffffffffffffffffffffffffff168173ffffffffffffffffffffffffffffffffffffffff161415611852576040517f08c379a000000000000000000000000000000000000000000000000000000000815260040161184990612156565b60405180910390fd5b8073ffffffffffffffffffffffffffffffffffffffff1660008054906101000a900473ffffffffffffffffffffffffffffffffffffffff1673ffffffffffffffffffffffffffffffffffffffff167f8be0079c531659141344cd1fd0a4f28419497f9722a3daafe3b4186f6b6457e060405160405180910390a3806000806101000a81548173ffffffffffffffffffffffffffffffffffffffff021916908373ffffffffffffffffffffffffffffffffffffffff16021790555050565b600033905090565b6000611924848484611ab9565b90506000811115611ab357600260009054906101000a900473ffffffffffffffffffffffffffffffffffffffff1673ffffffffffffffffffffffffffffffffffffffff166340c10f1930836040518363ffffffff1660e01b815260040161198c929190612069565b600060405180830381600087803b1580156119a657600080fd5b505af11580156119ba573d6000803e3d6000fd5b50505050600260009054906101000a900473ffffffffffffffffffffffffffffffffffffffff1673ffffffffffffffffffffffffffffffffffffffff1663a9059cbb33836040518363ffffffff1660e01b8152600401611a1b929190612069565b602060405180830381600087803b158015611a3557600080fd5b505af1158015611a49573d6000803e3d6000fd5b505050506040513d601f19601f82011682018060405250810190611a6d9190611d21565b504282600101819055507ff3a670cd3af7d64b488926880889d08a8585a138ff455227af6737339a1ec262338583604051611aaa93929190612092565b60405180910390a15b50505050565b6000611ac3610ec0565b611acc856105b5565b61016d60648087600101546018603c808a6001015442611aec91906125ac565b8c60000160009054906101000a900473ffffffffffffffffffffffffffffffffffffffff1673ffffffffffffffffffffffffffffffffffffffff1663313ce5676040518163ffffffff1660e01b815260040160206040518083038186803b158015611b5657600080fd5b505afa158015611b6a573d6000803e3d6000fd5b505050506040513d601f19601f82011682018060405250810190611b8e9190611e8b565b600a611b9a9190612434565b8c60000154611ba99190612552565b611bb39190612552565b611bbd91906123b0565b611bc791906123b0565b611bd191906123b0565b611bdb9190612552565b611be591906123b0565b611bef91906123b0565b611bf991906123b0565b611c039190612552565b611c0d91906123b0565b90509392505050565b600081359050611c2581612909565b92915050565b600081519050611c3a81612920565b92915050565b600081519050611c4f81612937565b92915050565b600081359050611c648161294e565b92915050565b600081519050611c798161294e565b92915050565b600081519050611c8e8161297c565b92915050565b600081519050611ca381612965565b92915050565b600060208284031215611cbb57600080fd5b6000611cc984828501611c16565b91505092915050565b600080600060608486031215611ce757600080fd5b6000611cf586828701611c16565b9350506020611d0686828701611c16565b9250506040611d1786828701611c55565b9150509250925092565b600060208284031215611d3357600080fd5b6000611d4184828501611c2b565b91505092915050565b600060208284031215611d5c57600080fd5b6000611d6a84828501611c55565b91505092915050565b600060208284031215611d8557600080fd5b6000611d9384828501611c6a565b91505092915050565b60008060408385031215611daf57600080fd5b6000611dbd85828601611c55565b9250506020611dce85828601611c16565b9150509250929050565b60008060408385031215611deb57600080fd5b6000611df985828601611c55565b9250506020611e0a85828601611c55565b9150509250929050565b600080600080600060a08688031215611e2c57600080fd5b6000611e3a88828901611c7f565b9550506020611e4b88828901611c40565b9450506040611e5c88828901611c6a565b9350506060611e6d88828901611c6a565b9250506080611e7e88828901611c7f565b9150509295509295909350565b600060208284031215611e9d57600080fd5b6000611eab84828501611c94565b91505092915050565b611ebd816125e0565b82525050565b611ecc81612655565b82525050565b611edb81612679565b82525050565b611eea8161269d565b82525050565b6000611efd601a83612349565b9150611f0882612775565b602082019050919050565b6000611f20602683612349565b9150611f2b8261279e565b604082019050919050565b6000611f43601183612349565b9150611f4e826127ed565b602082019050919050565b6000611f66600e83612349565b9150611f7182612816565b602082019050919050565b6000611f89601483612349565b9150611f948261283f565b602082019050919050565b6000611fac602083612349565b9150611fb782612868565b602082019050919050565b6000611fcf602483612349565b9150611fda82612891565b604082019050919050565b6000611ff2601f83612349565b9150611ffd826128e0565b602082019050919050565b61201181612628565b82525050565b600060208201905061202c6000830184611eb4565b92915050565b60006060820190506120476000830186611eb4565b6120546020830185611eb4565b6120616040830184612008565b949350505050565b600060408201905061207e6000830185611eb4565b61208b6020830184612008565b9392505050565b60006060820190506120a76000830186611eb4565b6120b46020830185612008565b6120c16040830184612008565b949350505050565b60006020820190506120de6000830184611ec3565b92915050565b60006060820190506120f96000830186611ed2565b6121066020830185612008565b6121136040830184611ec3565b949350505050565b60006020820190506121306000830184611ee1565b92915050565b6000602082019050818103600083015261214f81611ef0565b9050919050565b6000602082019050818103600083015261216f81611f13565b9050919050565b6000602082019050818103600083015261218f81611f36565b9050919050565b600060208201905081810360008301526121af81611f59565b9050919050565b600060208201905081810360008301526121cf81611f7c565b9050919050565b600060208201905081810360008301526121ef81611f9f565b9050919050565b6000602082019050818103600083015261220f81611fc2565b9050919050565b6000602082019050818103600083015261222f81611fe5565b9050919050565b600060208201905061224b6000830184612008565b92915050565b60006060820190506122666000830186612008565b6122736020830185611eb4565b6122806040830184611eb4565b949350505050565b600060608201905061229d6000830186612008565b6122aa6020830185611ed2565b6122b76040830184611eb4565b949350505050565b60006040820190506122d46000830185612008565b6122e16020830184612008565b9392505050565b600060c0820190506122fd6000830189612008565b61230a6020830188612008565b6123176040830187612008565b6123246060830186612008565b6123316080830185612008565b61233e60a0830184612008565b979650505050505050565b600082825260208201905092915050565b600061236582612628565b915061237083612628565b9250827fffffffffffffffffffffffffffffffffffffffffffffffffffffffffffffffff038211156123a5576123a461270a565b5b828201905092915050565b60006123bb82612628565b91506123c683612628565b9250826123d6576123d5612739565b5b828204905092915050565b6000808291508390505b600185111561242b578086048111156124075761240661270a565b5b60018516156124165780820291505b808102905061242485612768565b94506123eb565b94509492505050565b600061243f82612628565b915061244a83612632565b92506124777fffffffffffffffffffffffffffffffffffffffffffffffffffffffffffffffff848461247f565b905092915050565b60008261248f576001905061254b565b8161249d576000905061254b565b81600181146124b357600281146124bd576124ec565b600191505061254b565b60ff8411156124cf576124ce61270a565b5b8360020a9150848211156124e6576124e561270a565b5b5061254b565b5060208310610133831016604e8410600b84101617156125215782820a90508381111561251c5761251b61270a565b5b61254b565b61252e84848460016123e1565b925090508184048111156125455761254461270a565b5b81810290505b9392505050565b600061255d82612628565b915061256883612628565b9250817fffffffffffffffffffffffffffffffffffffffffffffffffffffffffffffffff04831182151516156125a1576125a061270a565b5b828202905092915050565b60006125b782612628565b91506125c283612628565b9250828210156125d5576125d461270a565b5b828203905092915050565b60006125eb82612608565b9050919050565b60008115159050919050565b6000819050919050565b600073ffffffffffffffffffffffffffffffffffffffff82169050919050565b6000819050919050565b600060ff82169050919050565b600069ffffffffffffffffffff82169050919050565b600061266082612667565b9050919050565b600061267282612608565b9050919050565b60006126848261268b565b9050919050565b600061269682612608565b9050919050565b60006126a8826126af565b9050919050565b60006126ba82612608565b9050919050565b60006126cc82612628565b91507fffffffffffffffffffffffffffffffffffffffffffffffffffffffffffffffff8214156126ff576126fe61270a565b5b600182019050919050565b7f4e487b7100000000000000000000000000000000000000000000000000000000600052601160045260246000fd5b7f4e487b7100000000000000000000000000000000000000000000000000000000600052601260045260246000fd5b60008160011c9050919050565b7f496e73756666696369656e74207374616b656420616d6f756e74000000000000600082015250565b7f4f776e61626c653a206e6577206f776e657220697320746865207a65726f206160008201527f6464726573730000000000000000000000000000000000000000000000000000602082015250565b7f416d6f756e74206d757374206265203e30000000000000000000000000000000600082015250565b7f496e76616c696420706f6f6c4964000000000000000000000000000000000000600082015250565b7f496e73756666696369656e742062616c616e6365000000000000000000000000600082015250565b7f4f776e61626c653a2063616c6c6572206973206e6f7420746865206f776e6572600082015250565b7f506f6f6c2077697468207468697320746f6b656e20616c72656164792065786960008201527f7374732e00000000000000000000000000000000000000000000000000000000602082015250565b7f5265656e7472616e637947756172643a207265656e7472616e742063616c6c00600082015250565b612912816125e0565b811461291d57600080fd5b50565b612929816125f2565b811461293457600080fd5b50565b612940816125fe565b811461294b57600080fd5b50565b61295781612628565b811461296257600080fd5b50565b61296e81612632565b811461297957600080fd5b50565b6129858161263f565b811461299057600080fd5b5056fea26469706673582212205a1d0de180512326ac2533eb0ea5fa9507052cef0380b881da97a0b4e653a7c364736f6c63430008030033",
  "immutableReferences": {},
  "source": "// SPDX-License-Identifier: MIT\r\npragma solidity 0.8.3;\r\n\r\nimport '@openzeppelin/contracts/access/Ownable.sol';\r\nimport '@openzeppelin/contracts/security/ReentrancyGuard.sol';\r\nimport '@openzeppelin/contracts/token/ERC20/ERC20.sol';\r\nimport '@chainlink/contracts/src/v0.8/interfaces/AggregatorV3Interface.sol';\r\n\r\nimport './Happy.sol';\r\n\r\n\r\ncontract HappyChef is Ownable, ReentrancyGuard {\r\n\r\n    struct UserInfo {\r\n        uint256 amount;         // Amount of staked token provided\r\n        uint256 depositDate;    // Deposit date for interest calculation\r\n    }\r\n\r\n    struct PoolInfo {\r\n        ERC20 token;               // Address of the staked token\r\n        uint256 yield;              // Percentage yield for the pool, with 2 decimals\r\n        AggregatorV3Interface priceFeed;    // ChainLink oracle for the staked token\r\n    }\r\n\r\n    // The reward token\r\n    Happy public happy;\r\n\r\n    // The staking pools\r\n    PoolInfo[] public pools;\r\n\r\n    // For each pool, user info\r\n    mapping (uint256 => mapping(address => UserInfo)) public users;\r\n\r\n    // Price feed for the reward token\r\n    AggregatorV3Interface public happyPriceFeed;\r\n\r\n    event PoolAdded(uint256 poolId, address token, address priceFeed);\r\n    event PriceFeedUpdated(uint256 poolId, ERC20 token, address priceFeed);\r\n    event Staked(address user, uint256 poolId, uint256 amount);\r\n    event Unstaked(address user, uint256 poolId, uint256 amount);\r\n    event Redeemed(address user, uint256 poolId, uint256 amount);\r\n\r\n\r\n    // Check that the pool id is in the array range.\r\n    modifier validPool(uint256 _poolId) {\r\n        require(_poolId < pools.length, \"Invalid poolId\");\r\n        _;\r\n    }\r\n\r\n\r\n    modifier validAmount(uint256 _amount) {\r\n        require(_amount > 0, \"Amount must be >0\");\r\n        _;\r\n    }\r\n\r\n\r\n    constructor(Happy _happy, address _happyPriceFeed) {\r\n        happy = _happy;\r\n        happyPriceFeed = AggregatorV3Interface(_happyPriceFeed);\r\n    }\r\n\r\n\r\n    function getNbPools() external view returns (uint256) {\r\n        return pools.length;\r\n    }\r\n\r\n\r\n    function getUserBalance(uint256 poolId, address user) external view returns (uint256) {\r\n        return users[poolId][user].amount;\r\n    }\r\n\r\n\r\n    function getPoolBalance(uint256 poolId) external view returns (uint256) {\r\n        return pools[poolId].token.balanceOf(address(this));\r\n    }\r\n\r\n\r\n    function addPool(address _token, address _priceFeed, uint256 _yield) external onlyOwner {\r\n        // Check if pool already added\r\n        bool found = false;\r\n        for (uint i = 0; i < pools.length; i++) {\r\n            if (pools[i].token == IERC20(_token)) {\r\n                found = true;\r\n                break;\r\n            }\r\n        }\r\n        require(!found, \"Pool with this token already exists.\");\r\n\r\n        pools.push(PoolInfo({\r\n            token: ERC20(_token),\r\n            yield: _yield,\r\n            priceFeed: AggregatorV3Interface(_priceFeed)\r\n        }));\r\n\r\n        emit PoolAdded(pools.length - 1, _token, _priceFeed);\r\n    }\r\n\r\n\r\n    function updatePriceFeed(uint256 _poolId, address priceFeed) external validPool(_poolId) onlyOwner {\r\n        pools[_poolId].priceFeed = AggregatorV3Interface(priceFeed);\r\n\r\n        emit PriceFeedUpdated(_poolId, pools[_poolId].token, priceFeed);\r\n    }\r\n\r\n    \r\n    // Token approval is needed before calling this function.\r\n    function stake(uint256 _poolId, uint256 _amount) external validPool(_poolId) validAmount(_amount) nonReentrant {\r\n        PoolInfo storage pool = pools[_poolId];\r\n        UserInfo storage user = users[_poolId][msg.sender];\r\n        require(pool.token.balanceOf(msg.sender) >= _amount, \"Insufficient balance\");\r\n\r\n        if (user.amount > 0) {\r\n            // User had already staked, distribute reward\r\n            _distributeReward(_poolId, pool, user);\r\n        }\r\n    \r\n        user.amount += _amount;\r\n        user.depositDate = block.timestamp;\r\n\r\n        pool.token.transferFrom(msg.sender, address(this), _amount);\r\n\r\n        emit Staked(msg.sender, _poolId, _amount);\r\n    }\r\n\r\n\r\n    function _calculateReward(uint256 poolId, PoolInfo storage pool, UserInfo storage user) internal view returns (uint256) {\r\n        return user.amount \r\n            * 10 ** pool.token.decimals()\r\n            * (block.timestamp - user.depositDate) / 60 / 60 / 24   // Datetime pro rata\r\n            * pool.yield / 100 / 100 / 365                          // Pool yield (First / 100 is for 2 decimals, second is for %)\r\n            * getLastPrice(poolId) / getLastHappyPrice();           // Adjustment to price\r\n    }\r\n\r\n\r\n    function calculateRewardDebug(uint256 _poolId, address _user) external validPool(_poolId) view returns (\r\n        uint256 amount, \r\n        uint256 base, \r\n        uint256 delta, \r\n        uint256 yield, \r\n        uint256 tokenPrice,\r\n        uint256 happyPrice) {\r\n        PoolInfo storage pool = pools[_poolId];\r\n        UserInfo storage user = users[_poolId][_user];\r\n\r\n        amount = user.amount;\r\n        base = 10 ** pool.token.decimals();\r\n        delta = block.timestamp - user.depositDate;\r\n        yield = pool.yield;\r\n        tokenPrice = getLastPrice(_poolId);\r\n        happyPrice = getLastHappyPrice();\r\n    }\r\n\r\n\r\n    function _distributeReward(uint256 _poolId, PoolInfo storage _pool, UserInfo storage _user) internal {\r\n        uint256 pending = _calculateReward(_poolId, _pool, _user);\r\n        if (pending > 0) {\r\n            happy.mint(address(this), pending);\r\n            happy.transfer(msg.sender, pending);\r\n\r\n            _user.depositDate = block.timestamp;\r\n\r\n            emit Redeemed(msg.sender, _poolId, pending);\r\n        }\r\n    }\r\n\r\n\r\n    // If this function is called with 0 as amount, it withdraw only the reward\r\n    function unstake(uint256 _poolId, uint256 _amount) external validPool(_poolId) nonReentrant {\r\n        PoolInfo storage pool = pools[_poolId];\r\n        UserInfo storage user = users[_poolId][msg.sender];\r\n        require(_amount <= user.amount, \"Insufficient staked amount\");\r\n\r\n        _distributeReward(_poolId, pool, user);\r\n\r\n        if (_amount > 0) {\r\n            user.amount -= _amount;\r\n            pool.token.transfer(msg.sender, _amount);\r\n        }\r\n\r\n        emit Unstaked(msg.sender, _poolId, _amount);\r\n    }\r\n\r\n\r\n    function pendingReward(uint256 _poolId, address _user) external view validPool(_poolId) returns (uint256) {\r\n        PoolInfo storage pool = pools[_poolId];\r\n        UserInfo storage user = users[_poolId][_user];\r\n\r\n        return _calculateReward(_poolId, pool, user);\r\n    }\r\n\r\n\r\n    function getLastPrice(uint256 _poolId) public view validPool(_poolId) returns (uint256) {        \r\n        (\r\n            /*uint80 roundId*/,\r\n            int price,\r\n            /*uint startAt*/,\r\n            /*uint timestamp*/,\r\n            /*uint80 answeredInRound*/\r\n        ) = pools[_poolId].priceFeed.latestRoundData();\r\n\r\n        return uint256(price);\r\n    }\r\n\r\n\r\n    function getLastHappyPrice() public view returns (uint256) {\r\n        (\r\n            /*uint80 roundId*/,\r\n            int price,\r\n            /*uint startAt*/,\r\n            /*uint timestamp*/,\r\n            /*uint80 answeredInRound*/\r\n        ) = happyPriceFeed.latestRoundData();\r\n\r\n        return uint256(price);\r\n    }\r\n\r\n}\r\n",
  "sourcePath": "C:/ws/alyra/dapp-staking/contracts/HappyChef.sol",
  "compiler": {
    "name": "solc",
    "version": "0.8.3+commit.8d00100c.Emscripten.clang"
  },
  "schemaVersion": "3.4.1",
  "updatedAt": "2021-05-25T17:44:19.328Z",
  "networkType": "ethereum",
  "devdoc": {
    "kind": "dev",
    "methods": {
      "owner()": {
        "details": "Returns the address of the current owner."
      },
      "renounceOwnership()": {
        "details": "Leaves the contract without owner. It will not be possible to call `onlyOwner` functions anymore. Can only be called by the current owner. NOTE: Renouncing ownership will leave the contract without an owner, thereby removing any functionality that is only available to the owner."
      },
      "transferOwnership(address)": {
        "details": "Transfers ownership of the contract to a new account (`newOwner`). Can only be called by the current owner."
      }
    },
    "version": 1
  },
  "userdoc": {
    "kind": "user",
    "methods": {},
    "version": 1
  }
}