{
  "contractName": "HappyChef",
  "abi": [
    {
      "inputs": [
        {
          "internalType": "contract Happy",
          "name": "_happy",
          "type": "address"
        },
        {
          "internalType": "address",
          "name": "_happyPriceFeed",
          "type": "address"
        }
      ],
      "stateMutability": "nonpayable",
      "type": "constructor"
    },
    {
      "anonymous": false,
      "inputs": [
        {
          "indexed": true,
          "internalType": "address",
          "name": "previousOwner",
          "type": "address"
        },
        {
          "indexed": true,
          "internalType": "address",
          "name": "newOwner",
          "type": "address"
        }
      ],
      "name": "OwnershipTransferred",
      "type": "event"
    },
    {
      "anonymous": false,
      "inputs": [
        {
          "indexed": false,
          "internalType": "uint256",
          "name": "poolId",
          "type": "uint256"
        },
        {
          "indexed": false,
          "internalType": "address",
          "name": "token",
          "type": "address"
        },
        {
          "indexed": false,
          "internalType": "address",
          "name": "priceFeed",
          "type": "address"
        }
      ],
      "name": "PoolAdded",
      "type": "event"
    },
    {
      "anonymous": false,
      "inputs": [
        {
          "indexed": false,
          "internalType": "uint256",
          "name": "poolId",
          "type": "uint256"
        },
        {
          "indexed": false,
          "internalType": "contract ERC20",
          "name": "token",
          "type": "address"
        },
        {
          "indexed": false,
          "internalType": "address",
          "name": "priceFeed",
          "type": "address"
        }
      ],
      "name": "PriceFeedUpdated",
      "type": "event"
    },
    {
      "anonymous": false,
      "inputs": [
        {
          "indexed": false,
          "internalType": "address",
          "name": "user",
          "type": "address"
        },
        {
          "indexed": false,
          "internalType": "uint256",
          "name": "poolId",
          "type": "uint256"
        },
        {
          "indexed": false,
          "internalType": "uint256",
          "name": "amount",
          "type": "uint256"
        }
      ],
      "name": "Redeemed",
      "type": "event"
    },
    {
      "anonymous": false,
      "inputs": [
        {
          "indexed": false,
          "internalType": "address",
          "name": "user",
          "type": "address"
        },
        {
          "indexed": false,
          "internalType": "uint256",
          "name": "poolId",
          "type": "uint256"
        },
        {
          "indexed": false,
          "internalType": "uint256",
          "name": "amount",
          "type": "uint256"
        }
      ],
      "name": "Staked",
      "type": "event"
    },
    {
      "anonymous": false,
      "inputs": [
        {
          "indexed": false,
          "internalType": "address",
          "name": "user",
          "type": "address"
        },
        {
          "indexed": false,
          "internalType": "uint256",
          "name": "poolId",
          "type": "uint256"
        },
        {
          "indexed": false,
          "internalType": "uint256",
          "name": "amount",
          "type": "uint256"
        }
      ],
      "name": "Unstaked",
      "type": "event"
    },
    {
      "inputs": [],
      "name": "happy",
      "outputs": [
        {
          "internalType": "contract Happy",
          "name": "",
          "type": "address"
        }
      ],
      "stateMutability": "view",
      "type": "function",
      "constant": true
    },
    {
      "inputs": [],
      "name": "happyPriceFeed",
      "outputs": [
        {
          "internalType": "contract AggregatorV3Interface",
          "name": "",
          "type": "address"
        }
      ],
      "stateMutability": "view",
      "type": "function",
      "constant": true
    },
    {
      "inputs": [],
      "name": "owner",
      "outputs": [
        {
          "internalType": "address",
          "name": "",
          "type": "address"
        }
      ],
      "stateMutability": "view",
      "type": "function",
      "constant": true
    },
    {
      "inputs": [
        {
          "internalType": "uint256",
          "name": "",
          "type": "uint256"
        }
      ],
      "name": "pools",
      "outputs": [
        {
          "internalType": "contract ERC20",
          "name": "token",
          "type": "address"
        },
        {
          "internalType": "uint256",
          "name": "yield",
          "type": "uint256"
        },
        {
          "internalType": "contract AggregatorV3Interface",
          "name": "priceFeed",
          "type": "address"
        }
      ],
      "stateMutability": "view",
      "type": "function",
      "constant": true
    },
    {
      "inputs": [],
      "name": "renounceOwnership",
      "outputs": [],
      "stateMutability": "nonpayable",
      "type": "function"
    },
    {
      "inputs": [
        {
          "internalType": "address",
          "name": "newOwner",
          "type": "address"
        }
      ],
      "name": "transferOwnership",
      "outputs": [],
      "stateMutability": "nonpayable",
      "type": "function"
    },
    {
      "inputs": [
        {
          "internalType": "uint256",
          "name": "",
          "type": "uint256"
        },
        {
          "internalType": "address",
          "name": "",
          "type": "address"
        }
      ],
      "name": "users",
      "outputs": [
        {
          "internalType": "uint256",
          "name": "amount",
          "type": "uint256"
        },
        {
          "internalType": "uint256",
          "name": "depositDate",
          "type": "uint256"
        }
      ],
      "stateMutability": "view",
      "type": "function",
      "constant": true
    },
    {
      "inputs": [],
      "name": "getNbPools",
      "outputs": [
        {
          "internalType": "uint256",
          "name": "",
          "type": "uint256"
        }
      ],
      "stateMutability": "view",
      "type": "function",
      "constant": true
    },
    {
      "inputs": [
        {
          "internalType": "uint256",
          "name": "poolId",
          "type": "uint256"
        },
        {
          "internalType": "address",
          "name": "user",
          "type": "address"
        }
      ],
      "name": "getUserBalance",
      "outputs": [
        {
          "internalType": "uint256",
          "name": "",
          "type": "uint256"
        }
      ],
      "stateMutability": "view",
      "type": "function",
      "constant": true
    },
    {
      "inputs": [
        {
          "internalType": "uint256",
          "name": "poolId",
          "type": "uint256"
        }
      ],
      "name": "getPoolBalance",
      "outputs": [
        {
          "internalType": "uint256",
          "name": "",
          "type": "uint256"
        }
      ],
      "stateMutability": "view",
      "type": "function",
      "constant": true
    },
    {
      "inputs": [
        {
          "internalType": "address",
          "name": "_token",
          "type": "address"
        },
        {
          "internalType": "address",
          "name": "_priceFeed",
          "type": "address"
        },
        {
          "internalType": "uint256",
          "name": "_yield",
          "type": "uint256"
        }
      ],
      "name": "addPool",
      "outputs": [],
      "stateMutability": "nonpayable",
      "type": "function"
    },
    {
      "inputs": [
        {
          "internalType": "uint256",
          "name": "_poolId",
          "type": "uint256"
        },
        {
          "internalType": "address",
          "name": "priceFeed",
          "type": "address"
        }
      ],
      "name": "updatePriceFeed",
      "outputs": [],
      "stateMutability": "nonpayable",
      "type": "function"
    },
    {
      "inputs": [
        {
          "internalType": "uint256",
          "name": "_poolId",
          "type": "uint256"
        },
        {
          "internalType": "uint256",
          "name": "_amount",
          "type": "uint256"
        }
      ],
      "name": "stake",
      "outputs": [],
      "stateMutability": "nonpayable",
      "type": "function"
    },
    {
      "inputs": [
        {
          "internalType": "uint256",
          "name": "_poolId",
          "type": "uint256"
        },
        {
          "internalType": "uint256",
          "name": "_amount",
          "type": "uint256"
        }
      ],
      "name": "unstake",
      "outputs": [],
      "stateMutability": "nonpayable",
      "type": "function"
    },
    {
      "inputs": [
        {
          "internalType": "uint256",
          "name": "_poolId",
          "type": "uint256"
        },
        {
          "internalType": "address",
          "name": "_user",
          "type": "address"
        }
      ],
      "name": "pendingReward",
      "outputs": [
        {
          "internalType": "uint256",
          "name": "",
          "type": "uint256"
        }
      ],
      "stateMutability": "view",
      "type": "function",
      "constant": true
    },
    {
      "inputs": [
        {
          "internalType": "uint256",
          "name": "_poolId",
          "type": "uint256"
        }
      ],
      "name": "getLastPrice",
      "outputs": [
        {
          "internalType": "uint256",
          "name": "",
          "type": "uint256"
        }
      ],
      "stateMutability": "view",
      "type": "function",
      "constant": true
    },
    {
      "inputs": [],
      "name": "getLastHappyPrice",
      "outputs": [
        {
          "internalType": "uint256",
          "name": "",
          "type": "uint256"
        }
      ],
      "stateMutability": "view",
      "type": "function",
      "constant": true
    }
  ],
  "bytecode": "0x60806040523480156200001157600080fd5b5060405162002ac138038062002ac18339818101604052810190620000379190620001ae565b6000620000496200017860201b60201c565b9050806000806101000a81548173ffffffffffffffffffffffffffffffffffffffff021916908373ffffffffffffffffffffffffffffffffffffffff1602179055508073ffffffffffffffffffffffffffffffffffffffff16600073ffffffffffffffffffffffffffffffffffffffff167f8be0079c531659141344cd1fd0a4f28419497f9722a3daafe3b4186f6b6457e060405160405180910390a3506001808190555081600260006101000a81548173ffffffffffffffffffffffffffffffffffffffff021916908373ffffffffffffffffffffffffffffffffffffffff16021790555080600560006101000a81548173ffffffffffffffffffffffffffffffffffffffff021916908373ffffffffffffffffffffffffffffffffffffffff16021790555050506200026b565b600033905090565b600081519050620001918162000237565b92915050565b600081519050620001a88162000251565b92915050565b60008060408385031215620001c257600080fd5b6000620001d28582860162000197565b9250506020620001e58582860162000180565b9150509250929050565b6000620001fc8262000217565b9050919050565b60006200021082620001ef565b9050919050565b600073ffffffffffffffffffffffffffffffffffffffff82169050919050565b6200024281620001ef565b81146200024e57600080fd5b50565b6200025c8162000203565b81146200026857600080fd5b50565b612846806200027b6000396000f3fe608060405234801561001057600080fd5b506004361061010b5760003560e01c806398969e82116100a2578063b9d02df411610071578063b9d02df414610294578063cdfb6cf3146102c5578063e0d7cb6f146102f5578063ed1375d514610313578063f2fde38b146103435761010b565b806398969e82146101fa5780639e2c8a5b1461022a578063ac4afa3814610246578063acfc827e146102785761010b565b80637b0472f0116100de5780637b0472f0146101865780637e29d6c2146101a257806386a7a170146101be5780638da5cb5b146101dc5761010b565b806311df50d81461011057806352918b761461012e57806365fa2f7f1461014c578063715018a61461017c575b600080fd5b61011861035f565b6040516101259190611f73565b60405180910390f35b610136610385565b60405161014391906120e0565b60405180910390f35b61016660048036038101906101619190611bf4565b610392565b60405161017391906120e0565b60405180910390f35b610184610657565b005b6101a0600480360381019061019b9190611c82565b610791565b005b6101bc60048036038101906101b79190611b7c565b610b35565b005b6101c6610e1d565b6040516101d391906120e0565b60405180910390f35b6101e4610ecd565b6040516101f19190611ec1565b60405180910390f35b610214600480360381019061020f9190611c46565b610ef6565b60405161022191906120e0565b60405180910390f35b610244600480360381019061023f9190611c82565b610ff6565b005b610260600480360381019061025b9190611bf4565b61129e565b60405161026f93929190611f8e565b60405180910390f35b610292600480360381019061028d9190611c46565b611318565b005b6102ae60048036038101906102a99190611c46565b611511565b6040516102bc929190612169565b60405180910390f35b6102df60048036038101906102da9190611c46565b611542565b6040516102ec91906120e0565b60405180910390f35b6102fd6115a0565b60405161030a9190611fc5565b60405180910390f35b61032d60048036038101906103289190611bf4565b6115c6565b60405161033a91906120e0565b60405180910390f35b61035d60048036038101906103589190611b53565b6116c3565b005b600560009054906101000a900473ffffffffffffffffffffffffffffffffffffffff1681565b6000600380549050905090565b60008160038054905081106103dc576040517f08c379a00000000000000000000000000000000000000000000000000000000081526004016103d390612040565b60405180910390fd5b600060038481548110610418577f4e487b7100000000000000000000000000000000000000000000000000000000600052603260045260246000fd5b9060005260206000209060030201905060008160020160009054906101000a900473ffffffffffffffffffffffffffffffffffffffff1673ffffffffffffffffffffffffffffffffffffffff1663feaf968c6040518163ffffffff1660e01b815260040160a06040518083038186803b15801561049457600080fd5b505afa1580156104a8573d6000803e3d6000fd5b505050506040513d601f19601f820116820180604052508101906104cc9190611cbe565b505050915050600081905060128360000160009054906101000a900473ffffffffffffffffffffffffffffffffffffffff1673ffffffffffffffffffffffffffffffffffffffff1663313ce5676040518163ffffffff1660e01b815260040160206040518083038186803b15801561054357600080fd5b505afa158015610557573d6000803e3d6000fd5b505050506040513d601f19601f8201168201806040525081019061057b9190611d35565b60ff161461064b578260000160009054906101000a900473ffffffffffffffffffffffffffffffffffffffff1673ffffffffffffffffffffffffffffffffffffffff1663313ce5676040518163ffffffff1660e01b815260040160206040518083038186803b1580156105ed57600080fd5b505afa158015610601573d6000803e3d6000fd5b505050506040513d601f19601f820116820180604052508101906106259190611d35565b60126106319190612429565b600a61063d919061227d565b81610648919061239b565b90505b80945050505050919050565b61065f61186c565b73ffffffffffffffffffffffffffffffffffffffff1661067d610ecd565b73ffffffffffffffffffffffffffffffffffffffff16146106d3576040517f08c379a00000000000000000000000000000000000000000000000000000000081526004016106ca90612080565b60405180910390fd5b600073ffffffffffffffffffffffffffffffffffffffff1660008054906101000a900473ffffffffffffffffffffffffffffffffffffffff1673ffffffffffffffffffffffffffffffffffffffff167f8be0079c531659141344cd1fd0a4f28419497f9722a3daafe3b4186f6b6457e060405160405180910390a360008060006101000a81548173ffffffffffffffffffffffffffffffffffffffff021916908373ffffffffffffffffffffffffffffffffffffffff160217905550565b8160038054905081106107d9576040517f08c379a00000000000000000000000000000000000000000000000000000000081526004016107d090612040565b60405180910390fd5b816000811161081d576040517f08c379a000000000000000000000000000000000000000000000000000000000815260040161081490612020565b60405180910390fd5b60026001541415610863576040517f08c379a000000000000000000000000000000000000000000000000000000000815260040161085a906120c0565b60405180910390fd5b60026001819055506000600385815481106108a7577f4e487b7100000000000000000000000000000000000000000000000000000000600052603260045260246000fd5b9060005260206000209060030201905060006004600087815260200190815260200160002060003373ffffffffffffffffffffffffffffffffffffffff1673ffffffffffffffffffffffffffffffffffffffff1681526020019081526020016000209050848260000160009054906101000a900473ffffffffffffffffffffffffffffffffffffffff1673ffffffffffffffffffffffffffffffffffffffff166370a08231336040518263ffffffff1660e01b81526004016109699190611ec1565b60206040518083038186803b15801561098157600080fd5b505afa158015610995573d6000803e3d6000fd5b505050506040513d601f19601f820116820180604052508101906109b99190611c1d565b10156109fa576040517f08c379a00000000000000000000000000000000000000000000000000000000081526004016109f190612060565b60405180910390fd5b600081600001541115610a1357610a12868383611874565b5b84816000016000828254610a2791906121a3565b925050819055504281600101819055508160000160009054906101000a900473ffffffffffffffffffffffffffffffffffffffff1673ffffffffffffffffffffffffffffffffffffffff166323b872dd3330886040518463ffffffff1660e01b8152600401610a9893929190611edc565b602060405180830381600087803b158015610ab257600080fd5b505af1158015610ac6573d6000803e3d6000fd5b505050506040513d601f19601f82011682018060405250810190610aea9190611bcb565b507f1449c6dd7851abc30abf37f57715f492010519147cc2652fbc38202c18a6ee90338787604051610b1e93929190611f3c565b60405180910390a150506001808190555050505050565b610b3d61186c565b73ffffffffffffffffffffffffffffffffffffffff16610b5b610ecd565b73ffffffffffffffffffffffffffffffffffffffff1614610bb1576040517f08c379a0000000000000000000000000000000000000000000000000000000008152600401610ba890612080565b60405180910390fd5b6000805b600380549050811015610c7d578473ffffffffffffffffffffffffffffffffffffffff1660038281548110610c13577f4e487b7100000000000000000000000000000000000000000000000000000000600052603260045260246000fd5b906000526020600020906003020160000160009054906101000a900473ffffffffffffffffffffffffffffffffffffffff1673ffffffffffffffffffffffffffffffffffffffff161415610c6a5760019150610c7d565b8080610c759061253e565b915050610bb5565b508015610cbf576040517f08c379a0000000000000000000000000000000000000000000000000000000008152600401610cb6906120a0565b60405180910390fd5b600360405180606001604052808673ffffffffffffffffffffffffffffffffffffffff1681526020018481526020018573ffffffffffffffffffffffffffffffffffffffff16815250908060018154018082558091505060019003906000526020600020906003020160009091909190915060008201518160000160006101000a81548173ffffffffffffffffffffffffffffffffffffffff021916908373ffffffffffffffffffffffffffffffffffffffff1602179055506020820151816001015560408201518160020160006101000a81548173ffffffffffffffffffffffffffffffffffffffff021916908373ffffffffffffffffffffffffffffffffffffffff16021790555050507ff526af69faf759a24b780dee9d979f542b6a5e8bfa39c7b04fcce83cb9982b8a6001600380549050610dfe91906123f5565b8585604051610e0f939291906120fb565b60405180910390a150505050565b600080600560009054906101000a900473ffffffffffffffffffffffffffffffffffffffff1673ffffffffffffffffffffffffffffffffffffffff1663feaf968c6040518163ffffffff1660e01b815260040160a06040518083038186803b158015610e8857600080fd5b505afa158015610e9c573d6000803e3d6000fd5b505050506040513d601f19601f82011682018060405250810190610ec09190611cbe565b5050509150508091505090565b60008060009054906101000a900473ffffffffffffffffffffffffffffffffffffffff16905090565b6000826003805490508110610f40576040517f08c379a0000000000000000000000000000000000000000000000000000000008152600401610f3790612040565b60405180910390fd5b600060038581548110610f7c577f4e487b7100000000000000000000000000000000000000000000000000000000600052603260045260246000fd5b9060005260206000209060030201905060006004600087815260200190815260200160002060008673ffffffffffffffffffffffffffffffffffffffff1673ffffffffffffffffffffffffffffffffffffffff1681526020019081526020016000209050610feb868383611a16565b935050505092915050565b81600380549050811061103e576040517f08c379a000000000000000000000000000000000000000000000000000000000815260040161103590612040565b60405180910390fd5b60026001541415611084576040517f08c379a000000000000000000000000000000000000000000000000000000000815260040161107b906120c0565b60405180910390fd5b60026001819055506000600384815481106110c8577f4e487b7100000000000000000000000000000000000000000000000000000000600052603260045260246000fd5b9060005260206000209060030201905060006004600086815260200190815260200160002060003373ffffffffffffffffffffffffffffffffffffffff1673ffffffffffffffffffffffffffffffffffffffff16815260200190815260200160002090508060000154841115611173576040517f08c379a000000000000000000000000000000000000000000000000000000000815260040161116a90611fe0565b60405180910390fd5b61117e858383611874565b6000841115611255578381600001600082825461119b91906123f5565b925050819055508160000160009054906101000a900473ffffffffffffffffffffffffffffffffffffffff1673ffffffffffffffffffffffffffffffffffffffff1663a9059cbb33866040518363ffffffff1660e01b8152600401611201929190611f13565b602060405180830381600087803b15801561121b57600080fd5b505af115801561122f573d6000803e3d6000fd5b505050506040513d601f19601f820116820180604052508101906112539190611bcb565b505b7f7fc4727e062e336010f2c282598ef5f14facb3de68cf8195c2f23e1454b2b74e33868660405161128893929190611f3c565b60405180910390a1505060018081905550505050565b600381815481106112ae57600080fd5b90600052602060002090600302016000915090508060000160009054906101000a900473ffffffffffffffffffffffffffffffffffffffff16908060010154908060020160009054906101000a900473ffffffffffffffffffffffffffffffffffffffff16905083565b816003805490508110611360576040517f08c379a000000000000000000000000000000000000000000000000000000000815260040161135790612040565b60405180910390fd5b61136861186c565b73ffffffffffffffffffffffffffffffffffffffff16611386610ecd565b73ffffffffffffffffffffffffffffffffffffffff16146113dc576040517f08c379a00000000000000000000000000000000000000000000000000000000081526004016113d390612080565b60405180910390fd5b8160038481548110611417577f4e487b7100000000000000000000000000000000000000000000000000000000600052603260045260246000fd5b906000526020600020906003020160020160006101000a81548173ffffffffffffffffffffffffffffffffffffffff021916908373ffffffffffffffffffffffffffffffffffffffff1602179055507fc3e39387fdacfa0aa44a6d39dd701900d533b3e515d42054f6389321a06af71e83600385815481106114c2577f4e487b7100000000000000000000000000000000000000000000000000000000600052603260045260246000fd5b906000526020600020906003020160000160009054906101000a900473ffffffffffffffffffffffffffffffffffffffff168460405161150493929190612132565b60405180910390a1505050565b6004602052816000526040600020602052806000526040600020600091509150508060000154908060010154905082565b60006004600084815260200190815260200160002060008373ffffffffffffffffffffffffffffffffffffffff1673ffffffffffffffffffffffffffffffffffffffff16815260200190815260200160002060000154905092915050565b600260009054906101000a900473ffffffffffffffffffffffffffffffffffffffff1681565b600060038281548110611602577f4e487b7100000000000000000000000000000000000000000000000000000000600052603260045260246000fd5b906000526020600020906003020160000160009054906101000a900473ffffffffffffffffffffffffffffffffffffffff1673ffffffffffffffffffffffffffffffffffffffff166370a08231306040518263ffffffff1660e01b815260040161166c9190611ec1565b60206040518083038186803b15801561168457600080fd5b505afa158015611698573d6000803e3d6000fd5b505050506040513d601f19601f820116820180604052508101906116bc9190611c1d565b9050919050565b6116cb61186c565b73ffffffffffffffffffffffffffffffffffffffff166116e9610ecd565b73ffffffffffffffffffffffffffffffffffffffff161461173f576040517f08c379a000000000000000000000000000000000000000000000000000000000815260040161173690612080565b60405180910390fd5b600073ffffffffffffffffffffffffffffffffffffffff168173ffffffffffffffffffffffffffffffffffffffff1614156117af576040517f08c379a00000000000000000000000000000000000000000000000000000000081526004016117a690612000565b60405180910390fd5b8073ffffffffffffffffffffffffffffffffffffffff1660008054906101000a900473ffffffffffffffffffffffffffffffffffffffff1673ffffffffffffffffffffffffffffffffffffffff167f8be0079c531659141344cd1fd0a4f28419497f9722a3daafe3b4186f6b6457e060405160405180910390a3806000806101000a81548173ffffffffffffffffffffffffffffffffffffffff021916908373ffffffffffffffffffffffffffffffffffffffff16021790555050565b600033905090565b6000611881848484611a16565b90506000811115611a1057600260009054906101000a900473ffffffffffffffffffffffffffffffffffffffff1673ffffffffffffffffffffffffffffffffffffffff166340c10f1930836040518363ffffffff1660e01b81526004016118e9929190611f13565b600060405180830381600087803b15801561190357600080fd5b505af1158015611917573d6000803e3d6000fd5b50505050600260009054906101000a900473ffffffffffffffffffffffffffffffffffffffff1673ffffffffffffffffffffffffffffffffffffffff1663a9059cbb33836040518363ffffffff1660e01b8152600401611978929190611f13565b602060405180830381600087803b15801561199257600080fd5b505af11580156119a6573d6000803e3d6000fd5b505050506040513d601f19601f820116820180604052508101906119ca9190611bcb565b504282600101819055507ff3a670cd3af7d64b488926880889d08a8585a138ff455227af6737339a1ec262338583604051611a0793929190611f3c565b60405180910390a15b50505050565b600080611a21610e1d565b611a2a86610392565b61016d60648088600101546018603c808b6001015442611a4a91906123f5565b8c60000154611a59919061239b565b611a6391906121f9565b611a6d91906121f9565b611a7791906121f9565b611a81919061239b565b611a8b91906121f9565b611a9591906121f9565b611a9f91906121f9565b611aa9919061239b565b611ab391906121f9565b9050809150509392505050565b600081359050611acf81612786565b92915050565b600081519050611ae48161279d565b92915050565b600081519050611af9816127b4565b92915050565b600081359050611b0e816127cb565b92915050565b600081519050611b23816127cb565b92915050565b600081519050611b38816127f9565b92915050565b600081519050611b4d816127e2565b92915050565b600060208284031215611b6557600080fd5b6000611b7384828501611ac0565b91505092915050565b600080600060608486031215611b9157600080fd5b6000611b9f86828701611ac0565b9350506020611bb086828701611ac0565b9250506040611bc186828701611aff565b9150509250925092565b600060208284031215611bdd57600080fd5b6000611beb84828501611ad5565b91505092915050565b600060208284031215611c0657600080fd5b6000611c1484828501611aff565b91505092915050565b600060208284031215611c2f57600080fd5b6000611c3d84828501611b14565b91505092915050565b60008060408385031215611c5957600080fd5b6000611c6785828601611aff565b9250506020611c7885828601611ac0565b9150509250929050565b60008060408385031215611c9557600080fd5b6000611ca385828601611aff565b9250506020611cb485828601611aff565b9150509250929050565b600080600080600060a08688031215611cd657600080fd5b6000611ce488828901611b29565b9550506020611cf588828901611aea565b9450506040611d0688828901611b14565b9350506060611d1788828901611b14565b9250506080611d2888828901611b29565b9150509295509295909350565b600060208284031215611d4757600080fd5b6000611d5584828501611b3e565b91505092915050565b611d678161245d565b82525050565b611d76816124d2565b82525050565b611d85816124f6565b82525050565b611d948161251a565b82525050565b6000611da7601a83612192565b9150611db2826125f2565b602082019050919050565b6000611dca602683612192565b9150611dd58261261b565b604082019050919050565b6000611ded601183612192565b9150611df88261266a565b602082019050919050565b6000611e10600e83612192565b9150611e1b82612693565b602082019050919050565b6000611e33601483612192565b9150611e3e826126bc565b602082019050919050565b6000611e56602083612192565b9150611e61826126e5565b602082019050919050565b6000611e79602483612192565b9150611e848261270e565b604082019050919050565b6000611e9c601f83612192565b9150611ea78261275d565b602082019050919050565b611ebb816124a5565b82525050565b6000602082019050611ed66000830184611d5e565b92915050565b6000606082019050611ef16000830186611d5e565b611efe6020830185611d5e565b611f0b6040830184611eb2565b949350505050565b6000604082019050611f286000830185611d5e565b611f356020830184611eb2565b9392505050565b6000606082019050611f516000830186611d5e565b611f5e6020830185611eb2565b611f6b6040830184611eb2565b949350505050565b6000602082019050611f886000830184611d6d565b92915050565b6000606082019050611fa36000830186611d7c565b611fb06020830185611eb2565b611fbd6040830184611d6d565b949350505050565b6000602082019050611fda6000830184611d8b565b92915050565b60006020820190508181036000830152611ff981611d9a565b9050919050565b6000602082019050818103600083015261201981611dbd565b9050919050565b6000602082019050818103600083015261203981611de0565b9050919050565b6000602082019050818103600083015261205981611e03565b9050919050565b6000602082019050818103600083015261207981611e26565b9050919050565b6000602082019050818103600083015261209981611e49565b9050919050565b600060208201905081810360008301526120b981611e6c565b9050919050565b600060208201905081810360008301526120d981611e8f565b9050919050565b60006020820190506120f56000830184611eb2565b92915050565b60006060820190506121106000830186611eb2565b61211d6020830185611d5e565b61212a6040830184611d5e565b949350505050565b60006060820190506121476000830186611eb2565b6121546020830185611d7c565b6121616040830184611d5e565b949350505050565b600060408201905061217e6000830185611eb2565b61218b6020830184611eb2565b9392505050565b600082825260208201905092915050565b60006121ae826124a5565b91506121b9836124a5565b9250827fffffffffffffffffffffffffffffffffffffffffffffffffffffffffffffffff038211156121ee576121ed612587565b5b828201905092915050565b6000612204826124a5565b915061220f836124a5565b92508261221f5761221e6125b6565b5b828204905092915050565b6000808291508390505b6001851115612274578086048111156122505761224f612587565b5b600185161561225f5780820291505b808102905061226d856125e5565b9450612234565b94509492505050565b6000612288826124a5565b9150612293836124af565b92506122c07fffffffffffffffffffffffffffffffffffffffffffffffffffffffffffffffff84846122c8565b905092915050565b6000826122d85760019050612394565b816122e65760009050612394565b81600181146122fc576002811461230657612335565b6001915050612394565b60ff84111561231857612317612587565b5b8360020a91508482111561232f5761232e612587565b5b50612394565b5060208310610133831016604e8410600b841016171561236a5782820a90508381111561236557612364612587565b5b612394565b612377848484600161222a565b9250905081840481111561238e5761238d612587565b5b81810290505b9392505050565b60006123a6826124a5565b91506123b1836124a5565b9250817fffffffffffffffffffffffffffffffffffffffffffffffffffffffffffffffff04831182151516156123ea576123e9612587565b5b828202905092915050565b6000612400826124a5565b915061240b836124a5565b92508282101561241e5761241d612587565b5b828203905092915050565b6000612434826124af565b915061243f836124af565b92508282101561245257612451612587565b5b828203905092915050565b600061246882612485565b9050919050565b60008115159050919050565b6000819050919050565b600073ffffffffffffffffffffffffffffffffffffffff82169050919050565b6000819050919050565b600060ff82169050919050565b600069ffffffffffffffffffff82169050919050565b60006124dd826124e4565b9050919050565b60006124ef82612485565b9050919050565b600061250182612508565b9050919050565b600061251382612485565b9050919050565b60006125258261252c565b9050919050565b600061253782612485565b9050919050565b6000612549826124a5565b91507fffffffffffffffffffffffffffffffffffffffffffffffffffffffffffffffff82141561257c5761257b612587565b5b600182019050919050565b7f4e487b7100000000000000000000000000000000000000000000000000000000600052601160045260246000fd5b7f4e487b7100000000000000000000000000000000000000000000000000000000600052601260045260246000fd5b60008160011c9050919050565b7f496e73756666696369656e74207374616b656420616d6f756e74000000000000600082015250565b7f4f776e61626c653a206e6577206f776e657220697320746865207a65726f206160008201527f6464726573730000000000000000000000000000000000000000000000000000602082015250565b7f416d6f756e74206d757374206265203e30000000000000000000000000000000600082015250565b7f496e76616c696420706f6f6c4964000000000000000000000000000000000000600082015250565b7f496e73756666696369656e742062616c616e6365000000000000000000000000600082015250565b7f4f776e61626c653a2063616c6c6572206973206e6f7420746865206f776e6572600082015250565b7f506f6f6c2077697468207468697320746f6b656e20616c72656164792065786960008201527f7374732e00000000000000000000000000000000000000000000000000000000602082015250565b7f5265656e7472616e637947756172643a207265656e7472616e742063616c6c00600082015250565b61278f8161245d565b811461279a57600080fd5b50565b6127a68161246f565b81146127b157600080fd5b50565b6127bd8161247b565b81146127c857600080fd5b50565b6127d4816124a5565b81146127df57600080fd5b50565b6127eb816124af565b81146127f657600080fd5b50565b612802816124bc565b811461280d57600080fd5b5056fea26469706673582212201c8a8b81437c8edbeaa552ce5212cdca4d440e9c083ade0a7231874fb31b0e1964736f6c63430008030033",
  "immutableReferences": {},
  "source": "// SPDX-License-Identifier: MIT\r\npragma solidity 0.8.3;\r\n\r\nimport '@openzeppelin/contracts/access/Ownable.sol';\r\nimport '@openzeppelin/contracts/security/ReentrancyGuard.sol';\r\nimport '@openzeppelin/contracts/token/ERC20/ERC20.sol';\r\nimport '@chainlink/contracts/src/v0.8/interfaces/AggregatorV3Interface.sol';\r\n\r\nimport './Happy.sol';\r\n\r\n\r\ncontract HappyChef is Ownable, ReentrancyGuard {\r\n\r\n    struct UserInfo {\r\n        uint256 amount;         // Amount of staked token provided\r\n        uint256 depositDate;    // Deposit date for interest calculation\r\n    }\r\n\r\n    struct PoolInfo {\r\n        ERC20 token;               // Address of the staked token\r\n        uint256 yield;              // Percentage yield for the pool, with 2 decimals\r\n        AggregatorV3Interface priceFeed;    // ChainLink oracle for the staked token\r\n    }\r\n\r\n    // The reward token\r\n    Happy public happy;\r\n\r\n    // The staking pools\r\n    PoolInfo[] public pools;\r\n\r\n    // For each pool, user info\r\n    mapping (uint256 => mapping(address => UserInfo)) public users;\r\n\r\n    // Price feed for the reward token\r\n    AggregatorV3Interface public happyPriceFeed;\r\n\r\n    event PoolAdded(uint256 poolId, address token, address priceFeed);\r\n    event PriceFeedUpdated(uint256 poolId, ERC20 token, address priceFeed);\r\n    event Staked(address user, uint256 poolId, uint256 amount);\r\n    event Unstaked(address user, uint256 poolId, uint256 amount);\r\n    event Redeemed(address user, uint256 poolId, uint256 amount);\r\n\r\n\r\n    // Check that the pool id is in the array range.\r\n    modifier validPool(uint256 _poolId) {\r\n        require(_poolId < pools.length, \"Invalid poolId\");\r\n        _;\r\n    }\r\n\r\n\r\n    modifier validAmount(uint256 _amount) {\r\n        require(_amount > 0, \"Amount must be >0\");\r\n        _;\r\n    }\r\n\r\n\r\n    constructor(Happy _happy, address _happyPriceFeed) {\r\n        happy = _happy;\r\n        happyPriceFeed = AggregatorV3Interface(_happyPriceFeed);\r\n    }\r\n\r\n\r\n    function getNbPools() external view returns (uint256) {\r\n        return pools.length;\r\n    }\r\n\r\n\r\n    function getUserBalance(uint256 poolId, address user) external view returns (uint256) {\r\n        return users[poolId][user].amount;\r\n    }\r\n\r\n\r\n    function getPoolBalance(uint256 poolId) external view returns (uint256) {\r\n        return pools[poolId].token.balanceOf(address(this));\r\n    }\r\n\r\n\r\n    function addPool(address _token, address _priceFeed, uint256 _yield) external onlyOwner {\r\n        // Check if pool already added\r\n        bool found = false;\r\n        for (uint i = 0; i < pools.length; i++) {\r\n            if (pools[i].token == IERC20(_token)) {\r\n                found = true;\r\n                break;\r\n            }\r\n        }\r\n        require(!found, \"Pool with this token already exists.\");\r\n\r\n        pools.push(PoolInfo({\r\n            token: ERC20(_token),\r\n            yield: _yield,\r\n            priceFeed: AggregatorV3Interface(_priceFeed)\r\n        }));\r\n\r\n        emit PoolAdded(pools.length - 1, _token, _priceFeed);\r\n    }\r\n\r\n\r\n    function updatePriceFeed(uint256 _poolId, address priceFeed) external validPool(_poolId) onlyOwner {\r\n        pools[_poolId].priceFeed = AggregatorV3Interface(priceFeed);\r\n\r\n        emit PriceFeedUpdated(_poolId, pools[_poolId].token, priceFeed);\r\n    }\r\n\r\n    \r\n    // Token approval is needed before calling this function.\r\n    function stake(uint256 _poolId, uint256 _amount) external validPool(_poolId) validAmount(_amount) nonReentrant {\r\n        PoolInfo storage pool = pools[_poolId];\r\n        UserInfo storage user = users[_poolId][msg.sender];\r\n        require(pool.token.balanceOf(msg.sender) >= _amount, \"Insufficient balance\");\r\n\r\n        if (user.amount > 0) {\r\n            // User had already staked, distribute reward\r\n            _distributeReward(_poolId, pool, user);\r\n        }\r\n    \r\n        user.amount += _amount;\r\n        user.depositDate = block.timestamp;\r\n\r\n        pool.token.transferFrom(msg.sender, address(this), _amount);\r\n\r\n        emit Staked(msg.sender, _poolId, _amount);\r\n    }\r\n\r\n\r\n    function _calculateReward(uint256 _poolId, PoolInfo storage _pool, UserInfo storage _user) internal view returns (uint256) {\r\n        uint256 pending = _user.amount \r\n            * (block.timestamp - _user.depositDate) / 60 / 60 / 24   // Datetime pro rata\r\n            * _pool.yield / 100 / 100 / 365                          // Pool yield (First / 100 is for 2 decimals, second is for %)\r\n            * getLastPrice(_poolId) / getLastHappyPrice();           // Adjustment to price\r\n\r\n        return pending;\r\n    }\r\n\r\n\r\n    function _distributeReward(uint256 _poolId, PoolInfo storage _pool, UserInfo storage _user) internal {\r\n        uint256 pending = _calculateReward(_poolId, _pool, _user);\r\n        if (pending > 0) {\r\n            happy.mint(address(this), pending);\r\n            happy.transfer(msg.sender, pending);\r\n\r\n            _user.depositDate = block.timestamp;\r\n\r\n            emit Redeemed(msg.sender, _poolId, pending);\r\n        }\r\n    }\r\n\r\n\r\n    // If this function is called with 0 as amount, it withdraw only the reward\r\n    function unstake(uint256 _poolId, uint256 _amount) external validPool(_poolId) nonReentrant {\r\n        PoolInfo storage pool = pools[_poolId];\r\n        UserInfo storage user = users[_poolId][msg.sender];\r\n        require(_amount <= user.amount, \"Insufficient staked amount\");\r\n\r\n        _distributeReward(_poolId, pool, user);\r\n\r\n        if (_amount > 0) {\r\n            user.amount -= _amount;\r\n            pool.token.transfer(msg.sender, _amount);\r\n        }\r\n\r\n        emit Unstaked(msg.sender, _poolId, _amount);\r\n    }\r\n\r\n\r\n    function pendingReward(uint256 _poolId, address _user) external view validPool(_poolId) returns (uint256) {\r\n        PoolInfo storage pool = pools[_poolId];\r\n        UserInfo storage user = users[_poolId][_user];\r\n\r\n        return _calculateReward(_poolId, pool, user);\r\n    }\r\n\r\n\r\n    function getLastPrice(uint256 _poolId) public view validPool(_poolId) returns (uint256) {        \r\n        PoolInfo storage pool = pools[_poolId];\r\n\r\n        (\r\n            /*uint80 roundId*/,\r\n            int price,\r\n            /*uint startAt*/,\r\n            /*uint timestamp*/,\r\n            /*uint80 answeredInRound*/\r\n        ) = pool.priceFeed.latestRoundData();\r\n\r\n        uint256 lastPrice = uint256(price);\r\n        if (pool.token.decimals() != 18) {\r\n            lastPrice *= 10 ** (18 - pool.token.decimals());\r\n        }\r\n\r\n        return lastPrice;\r\n    }\r\n\r\n\r\n    function getLastHappyPrice() public view returns (uint256) {\r\n        (\r\n            /*uint80 roundId*/,\r\n            int price,\r\n            /*uint startAt*/,\r\n            /*uint timestamp*/,\r\n            /*uint80 answeredInRound*/\r\n        ) = happyPriceFeed.latestRoundData();\r\n\r\n        return uint256(price);\r\n    }\r\n\r\n}\r\n",
  "sourcePath": "C:/ws/alyra/dapp-staking/contracts/HappyChef.sol",
  "compiler": {
    "name": "solc",
    "version": "0.8.3+commit.8d00100c.Emscripten.clang"
  },
  "schemaVersion": "3.4.1",
  "updatedAt": "2021-05-29T16:27:04.808Z",
  "networkType": "ethereum",
  "devdoc": {
    "kind": "dev",
    "methods": {
      "owner()": {
        "details": "Returns the address of the current owner."
      },
      "renounceOwnership()": {
        "details": "Leaves the contract without owner. It will not be possible to call `onlyOwner` functions anymore. Can only be called by the current owner. NOTE: Renouncing ownership will leave the contract without an owner, thereby removing any functionality that is only available to the owner."
      },
      "transferOwnership(address)": {
        "details": "Transfers ownership of the contract to a new account (`newOwner`). Can only be called by the current owner."
      }
    },
    "version": 1
  },
  "userdoc": {
    "kind": "user",
    "methods": {},
    "version": 1
  }
}