{
  "contractName": "HappyChef",
  "abi": [
    {
      "inputs": [
        {
          "internalType": "contract Happy",
          "name": "_happy",
          "type": "address"
        }
      ],
      "stateMutability": "nonpayable",
      "type": "constructor"
    },
    {
      "anonymous": false,
      "inputs": [
        {
          "indexed": true,
          "internalType": "address",
          "name": "previousOwner",
          "type": "address"
        },
        {
          "indexed": true,
          "internalType": "address",
          "name": "newOwner",
          "type": "address"
        }
      ],
      "name": "OwnershipTransferred",
      "type": "event"
    },
    {
      "anonymous": false,
      "inputs": [
        {
          "indexed": false,
          "internalType": "uint256",
          "name": "poolId",
          "type": "uint256"
        },
        {
          "indexed": false,
          "internalType": "address",
          "name": "token",
          "type": "address"
        },
        {
          "indexed": false,
          "internalType": "address",
          "name": "priceFeed",
          "type": "address"
        }
      ],
      "name": "PoolAdded",
      "type": "event"
    },
    {
      "anonymous": false,
      "inputs": [
        {
          "indexed": false,
          "internalType": "uint256",
          "name": "poolId",
          "type": "uint256"
        },
        {
          "indexed": false,
          "internalType": "contract IERC20",
          "name": "token",
          "type": "address"
        },
        {
          "indexed": false,
          "internalType": "address",
          "name": "priceFeed",
          "type": "address"
        }
      ],
      "name": "PriceFeedUpdated",
      "type": "event"
    },
    {
      "anonymous": false,
      "inputs": [
        {
          "indexed": false,
          "internalType": "address",
          "name": "user",
          "type": "address"
        },
        {
          "indexed": false,
          "internalType": "uint256",
          "name": "poolId",
          "type": "uint256"
        },
        {
          "indexed": false,
          "internalType": "uint256",
          "name": "amount",
          "type": "uint256"
        }
      ],
      "name": "Redeemed",
      "type": "event"
    },
    {
      "anonymous": false,
      "inputs": [
        {
          "indexed": false,
          "internalType": "address",
          "name": "user",
          "type": "address"
        },
        {
          "indexed": false,
          "internalType": "uint256",
          "name": "poolId",
          "type": "uint256"
        },
        {
          "indexed": false,
          "internalType": "uint256",
          "name": "amount",
          "type": "uint256"
        }
      ],
      "name": "Staked",
      "type": "event"
    },
    {
      "anonymous": false,
      "inputs": [
        {
          "indexed": false,
          "internalType": "address",
          "name": "user",
          "type": "address"
        },
        {
          "indexed": false,
          "internalType": "uint256",
          "name": "poolId",
          "type": "uint256"
        },
        {
          "indexed": false,
          "internalType": "uint256",
          "name": "amount",
          "type": "uint256"
        }
      ],
      "name": "Unstaked",
      "type": "event"
    },
    {
      "inputs": [],
      "name": "happy",
      "outputs": [
        {
          "internalType": "contract Happy",
          "name": "",
          "type": "address"
        }
      ],
      "stateMutability": "view",
      "type": "function",
      "constant": true
    },
    {
      "inputs": [],
      "name": "owner",
      "outputs": [
        {
          "internalType": "address",
          "name": "",
          "type": "address"
        }
      ],
      "stateMutability": "view",
      "type": "function",
      "constant": true
    },
    {
      "inputs": [
        {
          "internalType": "uint256",
          "name": "",
          "type": "uint256"
        }
      ],
      "name": "pools",
      "outputs": [
        {
          "internalType": "contract IERC20",
          "name": "token",
          "type": "address"
        },
        {
          "internalType": "uint256",
          "name": "amount",
          "type": "uint256"
        },
        {
          "internalType": "contract AggregatorV3Interface",
          "name": "priceFeed",
          "type": "address"
        }
      ],
      "stateMutability": "view",
      "type": "function",
      "constant": true
    },
    {
      "inputs": [],
      "name": "renounceOwnership",
      "outputs": [],
      "stateMutability": "nonpayable",
      "type": "function"
    },
    {
      "inputs": [
        {
          "internalType": "address",
          "name": "newOwner",
          "type": "address"
        }
      ],
      "name": "transferOwnership",
      "outputs": [],
      "stateMutability": "nonpayable",
      "type": "function"
    },
    {
      "inputs": [
        {
          "internalType": "uint256",
          "name": "",
          "type": "uint256"
        },
        {
          "internalType": "address",
          "name": "",
          "type": "address"
        }
      ],
      "name": "users",
      "outputs": [
        {
          "internalType": "uint256",
          "name": "amount",
          "type": "uint256"
        }
      ],
      "stateMutability": "view",
      "type": "function",
      "constant": true
    },
    {
      "inputs": [
        {
          "internalType": "address",
          "name": "token",
          "type": "address"
        },
        {
          "internalType": "address",
          "name": "priceFeed",
          "type": "address"
        }
      ],
      "name": "addPool",
      "outputs": [],
      "stateMutability": "nonpayable",
      "type": "function"
    },
    {
      "inputs": [
        {
          "internalType": "uint256",
          "name": "_poolId",
          "type": "uint256"
        },
        {
          "internalType": "address",
          "name": "priceFeed",
          "type": "address"
        }
      ],
      "name": "updatePriceFeed",
      "outputs": [],
      "stateMutability": "nonpayable",
      "type": "function"
    },
    {
      "inputs": [],
      "name": "getNbPools",
      "outputs": [
        {
          "internalType": "uint256",
          "name": "",
          "type": "uint256"
        }
      ],
      "stateMutability": "view",
      "type": "function",
      "constant": true
    },
    {
      "inputs": [
        {
          "internalType": "uint256",
          "name": "_poolId",
          "type": "uint256"
        },
        {
          "internalType": "uint256",
          "name": "_amount",
          "type": "uint256"
        }
      ],
      "name": "stake",
      "outputs": [],
      "stateMutability": "nonpayable",
      "type": "function"
    },
    {
      "inputs": [
        {
          "internalType": "uint256",
          "name": "_poolId",
          "type": "uint256"
        },
        {
          "internalType": "uint256",
          "name": "_amount",
          "type": "uint256"
        }
      ],
      "name": "unstake",
      "outputs": [],
      "stateMutability": "nonpayable",
      "type": "function"
    },
    {
      "inputs": [
        {
          "internalType": "uint256",
          "name": "_poolId",
          "type": "uint256"
        }
      ],
      "name": "getLastPrice",
      "outputs": [
        {
          "internalType": "int256",
          "name": "",
          "type": "int256"
        }
      ],
      "stateMutability": "view",
      "type": "function",
      "constant": true
    }
  ],
  "bytecode": "0x60806040523480156200001157600080fd5b506040516200206c3803806200206c83398181016040528101906200003791906200014e565b6000620000496200012f60201b60201c565b9050806000806101000a81548173ffffffffffffffffffffffffffffffffffffffff021916908373ffffffffffffffffffffffffffffffffffffffff1602179055508073ffffffffffffffffffffffffffffffffffffffff16600073ffffffffffffffffffffffffffffffffffffffff167f8be0079c531659141344cd1fd0a4f28419497f9722a3daafe3b4186f6b6457e060405160405180910390a35080600160006101000a81548173ffffffffffffffffffffffffffffffffffffffff021916908373ffffffffffffffffffffffffffffffffffffffff16021790555050620001dc565b600033905090565b6000815190506200014881620001c2565b92915050565b6000602082840312156200016157600080fd5b6000620001718482850162000137565b91505092915050565b60006200018782620001a2565b9050919050565b60006200019b826200017a565b9050919050565b600073ffffffffffffffffffffffffffffffffffffffff82169050919050565b620001cd816200018e565b8114620001d957600080fd5b50565b611e8080620001ec6000396000f3fe608060405234801561001057600080fd5b50600436106100b45760003560e01c8063ac4afa3811610071578063ac4afa3814610167578063acfc827e14610199578063b9d02df4146101b5578063e0d7cb6f146101e5578063eb511dd414610203578063f2fde38b1461021f576100b4565b806352918b76146100b957806365fa2f7f146100d7578063715018a6146101075780637b0472f0146101115780638da5cb5b1461012d5780639e2c8a5b1461014b575b600080fd5b6100c161023b565b6040516100ce9190611998565b60405180910390f35b6100f160048036038101906100ec919061144b565b610248565b6040516100fe919061185d565b60405180910390f35b61010f61038b565b005b61012b600480360381019061012691906114d9565b6104c5565b005b61013561084d565b6040516101429190611730565b60405180910390f35b610165600480360381019061016091906114d9565b610876565b005b610181600480360381019061017c919061144b565b610be4565b60405161019093929190611826565b60405180910390f35b6101b360048036038101906101ae919061149d565b610c5e565b005b6101cf60048036038101906101ca919061149d565b610e55565b6040516101dc9190611998565b60405180910390f35b6101ed610e80565b6040516101fa919061180b565b60405180910390f35b61021d600480360381019061021891906113e6565b610ea6565b005b610239600480360381019061023491906113bd565b61118e565b005b6000600280549050905090565b60006002805490508210610291576040517f08c379a0000000000000000000000000000000000000000000000000000000008152600401610288906118d8565b60405180910390fd5b6000600283815481106102cd577f4e487b7100000000000000000000000000000000000000000000000000000000600052603260045260246000fd5b906000526020600020906003020160020160009054906101000a900473ffffffffffffffffffffffffffffffffffffffff1673ffffffffffffffffffffffffffffffffffffffff1663feaf968c6040518163ffffffff1660e01b815260040160a06040518083038186803b15801561034457600080fd5b505afa158015610358573d6000803e3d6000fd5b505050506040513d601f19601f8201168201806040525081019061037c9190611515565b50505091505080915050919050565b610393611337565b73ffffffffffffffffffffffffffffffffffffffff166103b161084d565b73ffffffffffffffffffffffffffffffffffffffff1614610407576040517f08c379a00000000000000000000000000000000000000000000000000000000081526004016103fe90611938565b60405180910390fd5b600073ffffffffffffffffffffffffffffffffffffffff1660008054906101000a900473ffffffffffffffffffffffffffffffffffffffff1673ffffffffffffffffffffffffffffffffffffffff167f8be0079c531659141344cd1fd0a4f28419497f9722a3daafe3b4186f6b6457e060405160405180910390a360008060006101000a81548173ffffffffffffffffffffffffffffffffffffffff021916908373ffffffffffffffffffffffffffffffffffffffff160217905550565b600280549050821061050c576040517f08c379a0000000000000000000000000000000000000000000000000000000008152600401610503906118d8565b60405180910390fd5b6000811161054f576040517f08c379a0000000000000000000000000000000000000000000000000000000008152600401610546906118f8565b60405180910390fd5b60006002838154811061058b577f4e487b7100000000000000000000000000000000000000000000000000000000600052603260045260246000fd5b9060005260206000209060030201905060006003600085815260200190815260200160002060003373ffffffffffffffffffffffffffffffffffffffff1673ffffffffffffffffffffffffffffffffffffffff1681526020019081526020016000209050828260000160009054906101000a900473ffffffffffffffffffffffffffffffffffffffff1673ffffffffffffffffffffffffffffffffffffffff166370a08231336040518263ffffffff1660e01b815260040161064d9190611730565b60206040518083038186803b15801561066557600080fd5b505afa158015610679573d6000803e3d6000fd5b505050506040513d601f19601f8201168201806040525081019061069d9190611474565b10156106de576040517f08c379a00000000000000000000000000000000000000000000000000000000081526004016106d590611918565b60405180910390fd5b828160000160008282546106f29190611a32565b925050819055508282600101600082825461070d9190611a32565b9250508190555060008260000160009054906101000a900473ffffffffffffffffffffffffffffffffffffffff1673ffffffffffffffffffffffffffffffffffffffff166323b872dd3330876040518463ffffffff1660e01b81526004016107779392919061174b565b602060405180830381600087803b15801561079157600080fd5b505af11580156107a5573d6000803e3d6000fd5b505050506040513d601f19601f820116820180604052508101906107c99190611422565b90508061080b576040517f08c379a000000000000000000000000000000000000000000000000000000000815260040161080290611978565b60405180910390fd5b7f1449c6dd7851abc30abf37f57715f492010519147cc2652fbc38202c18a6ee9033868660405161083e939291906117d4565b60405180910390a15050505050565b60008060009054906101000a900473ffffffffffffffffffffffffffffffffffffffff16905090565b60028054905082106108bd576040517f08c379a00000000000000000000000000000000000000000000000000000000081526004016108b4906118d8565b60405180910390fd5b60008111610900576040517f08c379a00000000000000000000000000000000000000000000000000000000081526004016108f7906118f8565b60405180910390fd5b60006002838154811061093c577f4e487b7100000000000000000000000000000000000000000000000000000000600052603260045260246000fd5b9060005260206000209060030201905060006003600085815260200190815260200160002060003373ffffffffffffffffffffffffffffffffffffffff1673ffffffffffffffffffffffffffffffffffffffff168152602001908152602001600020905080600001548311156109e7576040517f08c379a00000000000000000000000000000000000000000000000000000000081526004016109de90611878565b60405180910390fd5b828160000160008282546109fb9190611a88565b9250508190555082826001016000828254610a169190611a88565b9250508190555060008260000160009054906101000a900473ffffffffffffffffffffffffffffffffffffffff1673ffffffffffffffffffffffffffffffffffffffff1663a9059cbb33866040518363ffffffff1660e01b8152600401610a7e9291906117ab565b602060405180830381600087803b158015610a9857600080fd5b505af1158015610aac573d6000803e3d6000fd5b505050506040513d601f19601f82011682018060405250810190610ad09190611422565b905080610b12576040517f08c379a0000000000000000000000000000000000000000000000000000000008152600401610b09906118b8565b60405180910390fd5b600160009054906101000a900473ffffffffffffffffffffffffffffffffffffffff1673ffffffffffffffffffffffffffffffffffffffff166340c10f1933600a6040518363ffffffff1660e01b8152600401610b70929190611782565b600060405180830381600087803b158015610b8a57600080fd5b505af1158015610b9e573d6000803e3d6000fd5b505050507f7fc4727e062e336010f2c282598ef5f14facb3de68cf8195c2f23e1454b2b74e338686604051610bd5939291906117d4565b60405180910390a15050505050565b60028181548110610bf457600080fd5b90600052602060002090600302016000915090508060000160009054906101000a900473ffffffffffffffffffffffffffffffffffffffff16908060010154908060020160009054906101000a900473ffffffffffffffffffffffffffffffffffffffff16905083565b610c66611337565b73ffffffffffffffffffffffffffffffffffffffff16610c8461084d565b73ffffffffffffffffffffffffffffffffffffffff1614610cda576040517f08c379a0000000000000000000000000000000000000000000000000000000008152600401610cd190611938565b60405180910390fd5b6002805490508210610d21576040517f08c379a0000000000000000000000000000000000000000000000000000000008152600401610d18906118d8565b60405180910390fd5b8060028381548110610d5c577f4e487b7100000000000000000000000000000000000000000000000000000000600052603260045260246000fd5b906000526020600020906003020160020160006101000a81548173ffffffffffffffffffffffffffffffffffffffff021916908373ffffffffffffffffffffffffffffffffffffffff1602179055507fc3e39387fdacfa0aa44a6d39dd701900d533b3e515d42054f6389321a06af71e8260028481548110610e07577f4e487b7100000000000000000000000000000000000000000000000000000000600052603260045260246000fd5b906000526020600020906003020160000160009054906101000a900473ffffffffffffffffffffffffffffffffffffffff1683604051610e49939291906119ea565b60405180910390a15050565b6003602052816000526040600020602052806000526040600020600091509150508060000154905081565b600160009054906101000a900473ffffffffffffffffffffffffffffffffffffffff1681565b610eae611337565b73ffffffffffffffffffffffffffffffffffffffff16610ecc61084d565b73ffffffffffffffffffffffffffffffffffffffff1614610f22576040517f08c379a0000000000000000000000000000000000000000000000000000000008152600401610f1990611938565b60405180910390fd5b6000805b600280549050811015610fee578373ffffffffffffffffffffffffffffffffffffffff1660028281548110610f84577f4e487b7100000000000000000000000000000000000000000000000000000000600052603260045260246000fd5b906000526020600020906003020160000160009054906101000a900473ffffffffffffffffffffffffffffffffffffffff1673ffffffffffffffffffffffffffffffffffffffff161415610fdb5760019150610fee565b8080610fe690611ba2565b915050610f26565b508015611030576040517f08c379a000000000000000000000000000000000000000000000000000000000815260040161102790611958565b60405180910390fd5b600260405180606001604052808573ffffffffffffffffffffffffffffffffffffffff168152602001600081526020018473ffffffffffffffffffffffffffffffffffffffff16815250908060018154018082558091505060019003906000526020600020906003020160009091909190915060008201518160000160006101000a81548173ffffffffffffffffffffffffffffffffffffffff021916908373ffffffffffffffffffffffffffffffffffffffff1602179055506020820151816001015560408201518160020160006101000a81548173ffffffffffffffffffffffffffffffffffffffff021916908373ffffffffffffffffffffffffffffffffffffffff16021790555050507ff526af69faf759a24b780dee9d979f542b6a5e8bfa39c7b04fcce83cb9982b8a60016002805490506111709190611a88565b8484604051611181939291906119b3565b60405180910390a1505050565b611196611337565b73ffffffffffffffffffffffffffffffffffffffff166111b461084d565b73ffffffffffffffffffffffffffffffffffffffff161461120a576040517f08c379a000000000000000000000000000000000000000000000000000000000815260040161120190611938565b60405180910390fd5b600073ffffffffffffffffffffffffffffffffffffffff168173ffffffffffffffffffffffffffffffffffffffff16141561127a576040517f08c379a000000000000000000000000000000000000000000000000000000000815260040161127190611898565b60405180910390fd5b8073ffffffffffffffffffffffffffffffffffffffff1660008054906101000a900473ffffffffffffffffffffffffffffffffffffffff1673ffffffffffffffffffffffffffffffffffffffff167f8be0079c531659141344cd1fd0a4f28419497f9722a3daafe3b4186f6b6457e060405160405180910390a3806000806101000a81548173ffffffffffffffffffffffffffffffffffffffff021916908373ffffffffffffffffffffffffffffffffffffffff16021790555050565b600033905090565b60008135905061134e81611dd7565b92915050565b60008151905061136381611dee565b92915050565b60008151905061137881611e05565b92915050565b60008135905061138d81611e1c565b92915050565b6000815190506113a281611e1c565b92915050565b6000815190506113b781611e33565b92915050565b6000602082840312156113cf57600080fd5b60006113dd8482850161133f565b91505092915050565b600080604083850312156113f957600080fd5b60006114078582860161133f565b92505060206114188582860161133f565b9150509250929050565b60006020828403121561143457600080fd5b600061144284828501611354565b91505092915050565b60006020828403121561145d57600080fd5b600061146b8482850161137e565b91505092915050565b60006020828403121561148657600080fd5b600061149484828501611393565b91505092915050565b600080604083850312156114b057600080fd5b60006114be8582860161137e565b92505060206114cf8582860161133f565b9150509250929050565b600080604083850312156114ec57600080fd5b60006114fa8582860161137e565b925050602061150b8582860161137e565b9150509250929050565b600080600080600060a0868803121561152d57600080fd5b600061153b888289016113a8565b955050602061154c88828901611369565b945050604061155d88828901611393565b935050606061156e88828901611393565b925050608061157f888289016113a8565b9150509295509295909350565b61159581611abc565b82525050565b6115a481611b24565b82525050565b6115b381611b48565b82525050565b6115c281611b6c565b82525050565b6115d181611ada565b82525050565b6115e081611b90565b82525050565b60006115f3601a83611a21565b91506115fe82611c1a565b602082019050919050565b6000611616602683611a21565b915061162182611c43565b604082019050919050565b6000611639600f83611a21565b915061164482611c92565b602082019050919050565b600061165c600e83611a21565b915061166782611cbb565b602082019050919050565b600061167f600d83611a21565b915061168a82611ce4565b602082019050919050565b60006116a2601483611a21565b91506116ad82611d0d565b602082019050919050565b60006116c5602083611a21565b91506116d082611d36565b602082019050919050565b60006116e8602483611a21565b91506116f382611d5f565b604082019050919050565b600061170b601383611a21565b915061171682611dae565b602082019050919050565b61172a81611b04565b82525050565b6000602082019050611745600083018461158c565b92915050565b6000606082019050611760600083018661158c565b61176d602083018561158c565b61177a6040830184611721565b949350505050565b6000604082019050611797600083018561158c565b6117a460208301846115d7565b9392505050565b60006040820190506117c0600083018561158c565b6117cd6020830184611721565b9392505050565b60006060820190506117e9600083018661158c565b6117f66020830185611721565b6118036040830184611721565b949350505050565b600060208201905061182060008301846115aa565b92915050565b600060608201905061183b60008301866115b9565b6118486020830185611721565b611855604083018461159b565b949350505050565b600060208201905061187260008301846115c8565b92915050565b60006020820190508181036000830152611891816115e6565b9050919050565b600060208201905081810360008301526118b181611609565b9050919050565b600060208201905081810360008301526118d18161162c565b9050919050565b600060208201905081810360008301526118f18161164f565b9050919050565b6000602082019050818103600083015261191181611672565b9050919050565b6000602082019050818103600083015261193181611695565b9050919050565b60006020820190508181036000830152611951816116b8565b9050919050565b60006020820190508181036000830152611971816116db565b9050919050565b60006020820190508181036000830152611991816116fe565b9050919050565b60006020820190506119ad6000830184611721565b92915050565b60006060820190506119c86000830186611721565b6119d5602083018561158c565b6119e2604083018461158c565b949350505050565b60006060820190506119ff6000830186611721565b611a0c60208301856115b9565b611a19604083018461158c565b949350505050565b600082825260208201905092915050565b6000611a3d82611b04565b9150611a4883611b04565b9250827fffffffffffffffffffffffffffffffffffffffffffffffffffffffffffffffff03821115611a7d57611a7c611beb565b5b828201905092915050565b6000611a9382611b04565b9150611a9e83611b04565b925082821015611ab157611ab0611beb565b5b828203905092915050565b6000611ac782611ae4565b9050919050565b60008115159050919050565b6000819050919050565b600073ffffffffffffffffffffffffffffffffffffffff82169050919050565b6000819050919050565b600069ffffffffffffffffffff82169050919050565b6000611b2f82611b36565b9050919050565b6000611b4182611ae4565b9050919050565b6000611b5382611b5a565b9050919050565b6000611b6582611ae4565b9050919050565b6000611b7782611b7e565b9050919050565b6000611b8982611ae4565b9050919050565b6000611b9b82611b04565b9050919050565b6000611bad82611b04565b91507fffffffffffffffffffffffffffffffffffffffffffffffffffffffffffffffff821415611be057611bdf611beb565b5b600182019050919050565b7f4e487b7100000000000000000000000000000000000000000000000000000000600052601160045260246000fd5b7f496e73756666696369656e74207374616b656420616d6f756e74000000000000600082015250565b7f4f776e61626c653a206e6577206f776e657220697320746865207a65726f206160008201527f6464726573730000000000000000000000000000000000000000000000000000602082015250565b7f5472616e73666572206661696c65640000000000000000000000000000000000600082015250565b7f496e76616c696420706f6f6c4964000000000000000000000000000000000000600082015250565b7f416d6f756e74206e656564656400000000000000000000000000000000000000600082015250565b7f496e73756666696369656e742062616c616e6365000000000000000000000000600082015250565b7f4f776e61626c653a2063616c6c6572206973206e6f7420746865206f776e6572600082015250565b7f506f6f6c2077697468207468697320746f6b656e20616c72656164792065786960008201527f7374732e00000000000000000000000000000000000000000000000000000000602082015250565b7f5472616e7366657246726f6d206661696c656400000000000000000000000000600082015250565b611de081611abc565b8114611deb57600080fd5b50565b611df781611ace565b8114611e0257600080fd5b50565b611e0e81611ada565b8114611e1957600080fd5b50565b611e2581611b04565b8114611e3057600080fd5b50565b611e3c81611b0e565b8114611e4757600080fd5b5056fea2646970667358221220ab9942a3da240a5663ead03ee82950099439d11a9e1e7fbe25693960a2b3477b64736f6c63430008030033",
  "immutableReferences": {},
  "source": "// SPDX-License-Identifier: MIT\r\npragma solidity 0.8.3;\r\n\r\nimport '@openzeppelin/contracts/access/Ownable.sol';\r\nimport '@openzeppelin/contracts/token/ERC20/IERC20.sol';\r\nimport '@chainlink/contracts/src/v0.8/interfaces/AggregatorV3Interface.sol';\r\n\r\nimport './Happy.sol';\r\n\r\n\r\ncontract HappyChef is Ownable {\r\n\r\n    struct UserInfo {\r\n        uint256 amount;\r\n    }\r\n\r\n    struct PoolInfo {\r\n        IERC20 token;\r\n        uint256 amount;\r\n        AggregatorV3Interface priceFeed;    \r\n    }\r\n\r\n    // The reward token\r\n    Happy public happy;\r\n\r\n    // The staking pools\r\n    PoolInfo[] public pools;\r\n\r\n    // For each pool, user info\r\n    mapping (uint256 => mapping(address => UserInfo)) public users;\r\n\r\n\r\n    event PoolAdded(uint256 poolId, address token, address priceFeed);\r\n    event PriceFeedUpdated(uint256 poolId, IERC20 token, address priceFeed);\r\n    event Staked(address user, uint256 poolId, uint256 amount);\r\n    event Unstaked(address user, uint256 poolId, uint256 amount);\r\n    event Redeemed(address user, uint256 poolId, uint256 amount);\r\n\r\n\r\n    constructor(Happy _happy) {\r\n        happy = _happy;\r\n    }\r\n\r\n\r\n    function addPool(address token, address priceFeed) external onlyOwner {\r\n        // Check if pool already added\r\n        bool found = false;\r\n        for (uint i = 0; i < pools.length; i++) {\r\n            if (pools[i].token == IERC20(token)) {\r\n                found = true;\r\n                break;\r\n            }\r\n        }\r\n        require(!found, \"Pool with this token already exists.\");\r\n\r\n        pools.push(PoolInfo({\r\n            token: IERC20(token),\r\n            amount: 0,\r\n            priceFeed: AggregatorV3Interface(priceFeed)\r\n        }));\r\n\r\n        emit PoolAdded(pools.length - 1, token, priceFeed);\r\n    }\r\n\r\n\r\n    function updatePriceFeed(uint256 _poolId, address priceFeed) external onlyOwner {\r\n        require(_poolId < pools.length, \"Invalid poolId\");\r\n\r\n        pools[_poolId].priceFeed = AggregatorV3Interface(priceFeed);\r\n\r\n        emit PriceFeedUpdated(_poolId, pools[_poolId].token, priceFeed);\r\n    }\r\n\r\n\r\n    function getNbPools() external view returns (uint256) {\r\n        return pools.length;\r\n    }\r\n\r\n    \r\n    // Token approval is needed before calling this function.\r\n    function stake(uint256 _poolId, uint256 _amount) external {\r\n        require(_poolId < pools.length, \"Invalid poolId\");\r\n        require(_amount > 0, \"Amount needed\");\r\n\r\n        PoolInfo storage pool = pools[_poolId];\r\n        UserInfo storage user = users[_poolId][msg.sender];\r\n        require(pool.token.balanceOf(msg.sender) >= _amount, \"Insufficient balance\");\r\n\r\n        if (user.amount > 0) {\r\n            // user had already staked, calculate reward until now\r\n            // TODO\r\n        }\r\n    \r\n        user.amount += _amount;\r\n        pool.amount += _amount;\r\n        bool ret = pool.token.transferFrom(msg.sender, address(this), _amount);\r\n        require(ret, \"TransferFrom failed\");\r\n\r\n        emit Staked(msg.sender, _poolId, _amount);\r\n    }\r\n\r\n\r\n    // function redeem/harvest ?\r\n\r\n    function unstake(uint256 _poolId, uint256 _amount) external {\r\n        require(_poolId < pools.length, \"Invalid poolId\");\r\n        require(_amount > 0, \"Amount needed\");\r\n\r\n        PoolInfo storage pool = pools[_poolId];\r\n        UserInfo storage user = users[_poolId][msg.sender];\r\n        require(_amount <= user.amount, \"Insufficient staked amount\");\r\n\r\n        // TODO calculate reward\r\n\r\n        user.amount -= _amount;\r\n        pool.amount -= _amount;\r\n        bool ret = pool.token.transfer(msg.sender, _amount);\r\n        require(ret, \"Transfer failed\");\r\n\r\n        // TODO Calculate & mint reward\r\n        happy.mint(msg.sender, 10);\r\n\r\n        emit Unstaked(msg.sender, _poolId, _amount);\r\n    }\r\n\r\n\r\n    function getLastPrice(uint256 _poolId) public view returns (int) {\r\n        require(_poolId < pools.length, \"Invalid poolId\");\r\n        \r\n        (\r\n            /*uint80 roundId*/,\r\n            int price,\r\n            /*uint startAt*/,\r\n            /*uint timestamp*/,\r\n            /*uint80 answeredInRound*/\r\n        ) = pools[_poolId].priceFeed.latestRoundData();\r\n\r\n        return price;\r\n    }\r\n\r\n}\r\n",
  "sourcePath": "C:/ws/alyra/dapp-staking/contracts/HappyChef.sol",
  "compiler": {
    "name": "solc",
    "version": "0.8.3+commit.8d00100c.Emscripten.clang"
  },
  "schemaVersion": "3.3.4",
  "updatedAt": "2021-05-04T12:38:37.585Z",
  "networkType": "ethereum",
  "devdoc": {
    "kind": "dev",
    "methods": {
      "owner()": {
        "details": "Returns the address of the current owner."
      },
      "renounceOwnership()": {
        "details": "Leaves the contract without owner. It will not be possible to call `onlyOwner` functions anymore. Can only be called by the current owner. NOTE: Renouncing ownership will leave the contract without an owner, thereby removing any functionality that is only available to the owner."
      },
      "transferOwnership(address)": {
        "details": "Transfers ownership of the contract to a new account (`newOwner`). Can only be called by the current owner."
      }
    },
    "version": 1
  },
  "userdoc": {
    "kind": "user",
    "methods": {},
    "version": 1
  }
}