{
  "contractName": "HappyChef",
  "abi": [
    {
      "inputs": [
        {
          "internalType": "contract Happy",
          "name": "_happy",
          "type": "address"
        },
        {
          "internalType": "uint256",
          "name": "_rewardPerBlock",
          "type": "uint256"
        }
      ],
      "stateMutability": "nonpayable",
      "type": "constructor"
    },
    {
      "anonymous": false,
      "inputs": [
        {
          "indexed": true,
          "internalType": "address",
          "name": "previousOwner",
          "type": "address"
        },
        {
          "indexed": true,
          "internalType": "address",
          "name": "newOwner",
          "type": "address"
        }
      ],
      "name": "OwnershipTransferred",
      "type": "event"
    },
    {
      "anonymous": false,
      "inputs": [
        {
          "indexed": false,
          "internalType": "uint256",
          "name": "poolId",
          "type": "uint256"
        },
        {
          "indexed": false,
          "internalType": "address",
          "name": "token",
          "type": "address"
        },
        {
          "indexed": false,
          "internalType": "address",
          "name": "priceFeed",
          "type": "address"
        }
      ],
      "name": "PoolAdded",
      "type": "event"
    },
    {
      "anonymous": false,
      "inputs": [
        {
          "indexed": false,
          "internalType": "uint256",
          "name": "poolId",
          "type": "uint256"
        },
        {
          "indexed": false,
          "internalType": "contract IERC20",
          "name": "token",
          "type": "address"
        },
        {
          "indexed": false,
          "internalType": "address",
          "name": "priceFeed",
          "type": "address"
        }
      ],
      "name": "PriceFeedUpdated",
      "type": "event"
    },
    {
      "anonymous": false,
      "inputs": [
        {
          "indexed": false,
          "internalType": "address",
          "name": "user",
          "type": "address"
        },
        {
          "indexed": false,
          "internalType": "uint256",
          "name": "poolId",
          "type": "uint256"
        },
        {
          "indexed": false,
          "internalType": "uint256",
          "name": "amount",
          "type": "uint256"
        }
      ],
      "name": "Redeemed",
      "type": "event"
    },
    {
      "anonymous": false,
      "inputs": [
        {
          "indexed": false,
          "internalType": "address",
          "name": "user",
          "type": "address"
        },
        {
          "indexed": false,
          "internalType": "uint256",
          "name": "poolId",
          "type": "uint256"
        },
        {
          "indexed": false,
          "internalType": "uint256",
          "name": "amount",
          "type": "uint256"
        }
      ],
      "name": "Staked",
      "type": "event"
    },
    {
      "anonymous": false,
      "inputs": [
        {
          "indexed": false,
          "internalType": "address",
          "name": "user",
          "type": "address"
        },
        {
          "indexed": false,
          "internalType": "uint256",
          "name": "poolId",
          "type": "uint256"
        },
        {
          "indexed": false,
          "internalType": "uint256",
          "name": "amount",
          "type": "uint256"
        }
      ],
      "name": "Unstaked",
      "type": "event"
    },
    {
      "inputs": [],
      "name": "happy",
      "outputs": [
        {
          "internalType": "contract Happy",
          "name": "",
          "type": "address"
        }
      ],
      "stateMutability": "view",
      "type": "function",
      "constant": true
    },
    {
      "inputs": [],
      "name": "owner",
      "outputs": [
        {
          "internalType": "address",
          "name": "",
          "type": "address"
        }
      ],
      "stateMutability": "view",
      "type": "function",
      "constant": true
    },
    {
      "inputs": [
        {
          "internalType": "uint256",
          "name": "",
          "type": "uint256"
        }
      ],
      "name": "pools",
      "outputs": [
        {
          "internalType": "contract IERC20",
          "name": "token",
          "type": "address"
        },
        {
          "internalType": "uint256",
          "name": "allocation",
          "type": "uint256"
        },
        {
          "internalType": "uint256",
          "name": "accRewardPerShare",
          "type": "uint256"
        },
        {
          "internalType": "uint256",
          "name": "lastRewardBlock",
          "type": "uint256"
        },
        {
          "internalType": "contract AggregatorV3Interface",
          "name": "priceFeed",
          "type": "address"
        }
      ],
      "stateMutability": "view",
      "type": "function",
      "constant": true
    },
    {
      "inputs": [],
      "name": "renounceOwnership",
      "outputs": [],
      "stateMutability": "nonpayable",
      "type": "function"
    },
    {
      "inputs": [
        {
          "internalType": "address",
          "name": "newOwner",
          "type": "address"
        }
      ],
      "name": "transferOwnership",
      "outputs": [],
      "stateMutability": "nonpayable",
      "type": "function"
    },
    {
      "inputs": [
        {
          "internalType": "uint256",
          "name": "",
          "type": "uint256"
        },
        {
          "internalType": "address",
          "name": "",
          "type": "address"
        }
      ],
      "name": "users",
      "outputs": [
        {
          "internalType": "uint256",
          "name": "amount",
          "type": "uint256"
        },
        {
          "internalType": "uint256",
          "name": "rewardDebt",
          "type": "uint256"
        }
      ],
      "stateMutability": "view",
      "type": "function",
      "constant": true
    },
    {
      "inputs": [],
      "name": "getNbPools",
      "outputs": [
        {
          "internalType": "uint256",
          "name": "",
          "type": "uint256"
        }
      ],
      "stateMutability": "view",
      "type": "function",
      "constant": true
    },
    {
      "inputs": [
        {
          "internalType": "uint256",
          "name": "poolId",
          "type": "uint256"
        },
        {
          "internalType": "address",
          "name": "user",
          "type": "address"
        }
      ],
      "name": "getUserBalance",
      "outputs": [
        {
          "internalType": "uint256",
          "name": "",
          "type": "uint256"
        }
      ],
      "stateMutability": "view",
      "type": "function",
      "constant": true
    },
    {
      "inputs": [
        {
          "internalType": "uint256",
          "name": "poolId",
          "type": "uint256"
        }
      ],
      "name": "getPoolBalance",
      "outputs": [
        {
          "internalType": "uint256",
          "name": "",
          "type": "uint256"
        }
      ],
      "stateMutability": "view",
      "type": "function",
      "constant": true
    },
    {
      "inputs": [
        {
          "internalType": "address",
          "name": "_token",
          "type": "address"
        },
        {
          "internalType": "address",
          "name": "_priceFeed",
          "type": "address"
        },
        {
          "internalType": "uint256",
          "name": "_allocation",
          "type": "uint256"
        }
      ],
      "name": "addPool",
      "outputs": [],
      "stateMutability": "nonpayable",
      "type": "function"
    },
    {
      "inputs": [
        {
          "internalType": "uint256",
          "name": "_poolId",
          "type": "uint256"
        },
        {
          "internalType": "address",
          "name": "priceFeed",
          "type": "address"
        }
      ],
      "name": "updatePriceFeed",
      "outputs": [],
      "stateMutability": "nonpayable",
      "type": "function"
    },
    {
      "inputs": [
        {
          "internalType": "uint256",
          "name": "_poolId",
          "type": "uint256"
        },
        {
          "internalType": "uint256",
          "name": "_amount",
          "type": "uint256"
        }
      ],
      "name": "stake",
      "outputs": [],
      "stateMutability": "nonpayable",
      "type": "function"
    },
    {
      "inputs": [
        {
          "internalType": "uint256",
          "name": "_poolId",
          "type": "uint256"
        }
      ],
      "name": "updatePool",
      "outputs": [],
      "stateMutability": "nonpayable",
      "type": "function"
    },
    {
      "inputs": [
        {
          "internalType": "uint256",
          "name": "_poolId",
          "type": "uint256"
        },
        {
          "internalType": "uint256",
          "name": "_amount",
          "type": "uint256"
        }
      ],
      "name": "unstake",
      "outputs": [],
      "stateMutability": "nonpayable",
      "type": "function"
    },
    {
      "inputs": [
        {
          "internalType": "uint256",
          "name": "_poolId",
          "type": "uint256"
        },
        {
          "internalType": "address",
          "name": "_user",
          "type": "address"
        }
      ],
      "name": "pendingReward",
      "outputs": [
        {
          "internalType": "uint256",
          "name": "",
          "type": "uint256"
        }
      ],
      "stateMutability": "view",
      "type": "function",
      "constant": true
    },
    {
      "inputs": [
        {
          "internalType": "uint256",
          "name": "_poolId",
          "type": "uint256"
        }
      ],
      "name": "getLastPrice",
      "outputs": [
        {
          "internalType": "int256",
          "name": "",
          "type": "int256"
        }
      ],
      "stateMutability": "view",
      "type": "function",
      "constant": true
    }
  ],
  "bytecode": "0x60806040523480156200001157600080fd5b506040516200297538038062002975833981810160405281019062000037919062000174565b6000620000496200013e60201b60201c565b9050806000806101000a81548173ffffffffffffffffffffffffffffffffffffffff021916908373ffffffffffffffffffffffffffffffffffffffff1602179055508073ffffffffffffffffffffffffffffffffffffffff16600073ffffffffffffffffffffffffffffffffffffffff167f8be0079c531659141344cd1fd0a4f28419497f9722a3daafe3b4186f6b6457e060405160405180910390a3506001808190555081600260006101000a81548173ffffffffffffffffffffffffffffffffffffffff021916908373ffffffffffffffffffffffffffffffffffffffff1602179055508060038190555050506200023b565b600033905090565b600081519050620001578162000207565b92915050565b6000815190506200016e8162000221565b92915050565b600080604083850312156200018857600080fd5b6000620001988582860162000146565b9250506020620001ab858286016200015d565b9150509250929050565b6000620001c282620001dd565b9050919050565b6000620001d682620001b5565b9050919050565b600073ffffffffffffffffffffffffffffffffffffffff82169050919050565b6000819050919050565b6200021281620001c9565b81146200021e57600080fd5b50565b6200022c81620001fd565b81146200023857600080fd5b50565b61272a806200024b6000396000f3fe608060405234801561001057600080fd5b50600436106101005760003560e01c80639e2c8a5b11610097578063cdfb6cf311610066578063cdfb6cf31461029c578063e0d7cb6f146102cc578063ed1375d5146102ea578063f2fde38b1461031a57610100565b80639e2c8a5b146101ff578063ac4afa381461021b578063acfc827e1461024f578063b9d02df41461026b57610100565b80637b0472f0116100d35780637b0472f0146101795780637e29d6c2146101955780638da5cb5b146101b157806398969e82146101cf57610100565b806351eb05a61461010557806352918b761461012157806365fa2f7f1461013f578063715018a61461016f575b600080fd5b61011f600480360381019061011a9190611cac565b610336565b005b6101296105ab565b604051610136919061219a565b60405180910390f35b61015960048036038101906101549190611cac565b6105b8565b604051610166919061207f565b60405180910390f35b6101776106fd565b005b610193600480360381019061018e9190611d3a565b610837565b005b6101af60048036038101906101aa9190611c34565b610bed565b005b6101b9610f0f565b6040516101c69190611f5f565b60405180910390f35b6101e960048036038101906101e49190611cfe565b610f38565b6040516101f6919061219a565b60405180910390f35b61021960048036038101906102149190611d3a565b61119f565b005b61023560048036038101906102309190611cac565b611462565b60405161024695949392919061202c565b60405180910390f35b61026960048036038101906102649190611cfe565b6114e8565b005b61028560048036038101906102809190611cfe565b6116e1565b604051610293929190612223565b60405180910390f35b6102b660048036038101906102b19190611cfe565b611712565b6040516102c3919061219a565b60405180910390f35b6102d4611770565b6040516102e19190612011565b60405180910390f35b61030460048036038101906102ff9190611cac565b611796565b604051610311919061219a565b60405180910390f35b610334600480360381019061032f9190611c0b565b611893565b005b80600580549050811061037e576040517f08c379a0000000000000000000000000000000000000000000000000000000008152600401610375906120fa565b60405180910390fd5b6000600583815481106103ba577f4e487b7100000000000000000000000000000000000000000000000000000000600052603260045260246000fd5b90600052602060002090600502019050806003015443116103db57506105a7565b60008160000160009054906101000a900473ffffffffffffffffffffffffffffffffffffffff1673ffffffffffffffffffffffffffffffffffffffff166370a08231306040518263ffffffff1660e01b815260040161043a9190611f5f565b60206040518083038186803b15801561045257600080fd5b505afa158015610466573d6000803e3d6000fd5b505050506040513d601f19601f8201168201806040525081019061048a9190611cd5565b90506000811461059b57600060045483600101546003548560030154436104b1919061233e565b6104bb91906122e4565b6104c591906122e4565b6104cf91906122b3565b9050600260009054906101000a900473ffffffffffffffffffffffffffffffffffffffff1673ffffffffffffffffffffffffffffffffffffffff166340c10f1930836040518363ffffffff1660e01b815260040161052e929190611fb1565b600060405180830381600087803b15801561054857600080fd5b505af115801561055c573d6000803e3d6000fd5b5050505081670de0b6b3a76400008261057591906122e4565b61057f91906122b3565b836002016000828254610592919061225d565b92505081905550505b43826003018190555050505b5050565b6000600580549050905090565b6000816005805490508110610602576040517f08c379a00000000000000000000000000000000000000000000000000000000081526004016105f9906120fa565b60405180910390fd5b60006005848154811061063e577f4e487b7100000000000000000000000000000000000000000000000000000000600052603260045260246000fd5b906000526020600020906005020160040160009054906101000a900473ffffffffffffffffffffffffffffffffffffffff1673ffffffffffffffffffffffffffffffffffffffff1663feaf968c6040518163ffffffff1660e01b815260040160a06040518083038186803b1580156106b557600080fd5b505afa1580156106c9573d6000803e3d6000fd5b505050506040513d601f19601f820116820180604052508101906106ed9190611d76565b5050509150508092505050919050565b610705611a3c565b73ffffffffffffffffffffffffffffffffffffffff16610723610f0f565b73ffffffffffffffffffffffffffffffffffffffff1614610779576040517f08c379a00000000000000000000000000000000000000000000000000000000081526004016107709061213a565b60405180910390fd5b600073ffffffffffffffffffffffffffffffffffffffff1660008054906101000a900473ffffffffffffffffffffffffffffffffffffffff1673ffffffffffffffffffffffffffffffffffffffff167f8be0079c531659141344cd1fd0a4f28419497f9722a3daafe3b4186f6b6457e060405160405180910390a360008060006101000a81548173ffffffffffffffffffffffffffffffffffffffff021916908373ffffffffffffffffffffffffffffffffffffffff160217905550565b81600580549050811061087f576040517f08c379a0000000000000000000000000000000000000000000000000000000008152600401610876906120fa565b60405180910390fd5b81600081116108c3576040517f08c379a00000000000000000000000000000000000000000000000000000000081526004016108ba906120da565b60405180910390fd5b60026001541415610909576040517f08c379a00000000000000000000000000000000000000000000000000000000081526004016109009061217a565b60405180910390fd5b600260018190555060006005858154811061094d577f4e487b7100000000000000000000000000000000000000000000000000000000600052603260045260246000fd5b9060005260206000209060050201905060006006600087815260200190815260200160002060003373ffffffffffffffffffffffffffffffffffffffff1673ffffffffffffffffffffffffffffffffffffffff1681526020019081526020016000209050848260000160009054906101000a900473ffffffffffffffffffffffffffffffffffffffff1673ffffffffffffffffffffffffffffffffffffffff166370a08231336040518263ffffffff1660e01b8152600401610a0f9190611f5f565b60206040518083038186803b158015610a2757600080fd5b505afa158015610a3b573d6000803e3d6000fd5b505050506040513d601f19601f82011682018060405250810190610a5f9190611cd5565b1015610aa0576040517f08c379a0000000000000000000000000000000000000000000000000000000008152600401610a979061211a565b60405180910390fd5b610aa986610336565b600081600001541115610ac257610ac1868383611a44565b5b84816000016000828254610ad6919061225d565b92505081905550610ae78282611b5c565b81600101819055508160000160009054906101000a900473ffffffffffffffffffffffffffffffffffffffff1673ffffffffffffffffffffffffffffffffffffffff166323b872dd3330886040518463ffffffff1660e01b8152600401610b5093929190611f7a565b602060405180830381600087803b158015610b6a57600080fd5b505af1158015610b7e573d6000803e3d6000fd5b505050506040513d601f19601f82011682018060405250810190610ba29190611c83565b507f1449c6dd7851abc30abf37f57715f492010519147cc2652fbc38202c18a6ee90338787604051610bd693929190611fda565b60405180910390a150506001808190555050505050565b610bf5611a3c565b73ffffffffffffffffffffffffffffffffffffffff16610c13610f0f565b73ffffffffffffffffffffffffffffffffffffffff1614610c69576040517f08c379a0000000000000000000000000000000000000000000000000000000008152600401610c609061213a565b60405180910390fd5b6000805b600580549050811015610d35578473ffffffffffffffffffffffffffffffffffffffff1660058281548110610ccb577f4e487b7100000000000000000000000000000000000000000000000000000000600052603260045260246000fd5b906000526020600020906005020160000160009054906101000a900473ffffffffffffffffffffffffffffffffffffffff1673ffffffffffffffffffffffffffffffffffffffff161415610d225760019150610d35565b8080610d2d90612446565b915050610c6d565b508015610d77576040517f08c379a0000000000000000000000000000000000000000000000000000000008152600401610d6e9061215a565b60405180910390fd5b60056040518060a001604052808673ffffffffffffffffffffffffffffffffffffffff168152602001848152602001600081526020014381526020018573ffffffffffffffffffffffffffffffffffffffff16815250908060018154018082558091505060019003906000526020600020906005020160009091909190915060008201518160000160006101000a81548173ffffffffffffffffffffffffffffffffffffffff021916908373ffffffffffffffffffffffffffffffffffffffff16021790555060208201518160010155604082015181600201556060820151816003015560808201518160040160006101000a81548173ffffffffffffffffffffffffffffffffffffffff021916908373ffffffffffffffffffffffffffffffffffffffff16021790555050508160046000828254610eb6919061225d565b925050819055507ff526af69faf759a24b780dee9d979f542b6a5e8bfa39c7b04fcce83cb9982b8a6001600580549050610ef0919061233e565b8585604051610f01939291906121b5565b60405180910390a150505050565b60008060009054906101000a900473ffffffffffffffffffffffffffffffffffffffff16905090565b6000826005805490508110610f82576040517f08c379a0000000000000000000000000000000000000000000000000000000008152600401610f79906120fa565b60405180910390fd5b600060058581548110610fbe577f4e487b7100000000000000000000000000000000000000000000000000000000600052603260045260246000fd5b9060005260206000209060050201905060006006600087815260200190815260200160002060008673ffffffffffffffffffffffffffffffffffffffff1673ffffffffffffffffffffffffffffffffffffffff168152602001908152602001600020905060008260020154905060008360000160009054906101000a900473ffffffffffffffffffffffffffffffffffffffff1673ffffffffffffffffffffffffffffffffffffffff166370a08231306040518263ffffffff1660e01b815260040161108a9190611f5f565b60206040518083038186803b1580156110a257600080fd5b505afa1580156110b6573d6000803e3d6000fd5b505050506040513d601f19601f820116820180604052508101906110da9190611cd5565b90508360030154431180156110f0575060008114155b156111605760006004548560010154600354876003015443611112919061233e565b61111c91906122e4565b61112691906122e4565b61113091906122b3565b905081670de0b6b3a76400008261114791906122e4565b61115191906122b3565b8361115c919061225d565b9250505b8260010154670de0b6b3a764000083856000015461117e91906122e4565b61118891906122b3565b611192919061233e565b9550505050505092915050565b8160058054905081106111e7576040517f08c379a00000000000000000000000000000000000000000000000000000000081526004016111de906120fa565b60405180910390fd5b6002600154141561122d576040517f08c379a00000000000000000000000000000000000000000000000000000000081526004016112249061217a565b60405180910390fd5b6002600181905550600060058481548110611271577f4e487b7100000000000000000000000000000000000000000000000000000000600052603260045260246000fd5b9060005260206000209060050201905060006006600086815260200190815260200160002060003373ffffffffffffffffffffffffffffffffffffffff1673ffffffffffffffffffffffffffffffffffffffff1681526020019081526020016000209050806000015484111561131c576040517f08c379a00000000000000000000000000000000000000000000000000000000081526004016113139061209a565b60405180910390fd5b61132585610336565b611330858383611a44565b6000841115611407578381600001600082825461134d919061233e565b925050819055508160000160009054906101000a900473ffffffffffffffffffffffffffffffffffffffff1673ffffffffffffffffffffffffffffffffffffffff1663a9059cbb33866040518363ffffffff1660e01b81526004016113b3929190611fb1565b602060405180830381600087803b1580156113cd57600080fd5b505af11580156113e1573d6000803e3d6000fd5b505050506040513d601f19601f820116820180604052508101906114059190611c83565b505b6114118282611b5c565b81600101819055507f7fc4727e062e336010f2c282598ef5f14facb3de68cf8195c2f23e1454b2b74e33868660405161144c93929190611fda565b60405180910390a1505060018081905550505050565b6005818154811061147257600080fd5b90600052602060002090600502016000915090508060000160009054906101000a900473ffffffffffffffffffffffffffffffffffffffff16908060010154908060020154908060030154908060040160009054906101000a900473ffffffffffffffffffffffffffffffffffffffff16905085565b816005805490508110611530576040517f08c379a0000000000000000000000000000000000000000000000000000000008152600401611527906120fa565b60405180910390fd5b611538611a3c565b73ffffffffffffffffffffffffffffffffffffffff16611556610f0f565b73ffffffffffffffffffffffffffffffffffffffff16146115ac576040517f08c379a00000000000000000000000000000000000000000000000000000000081526004016115a39061213a565b60405180910390fd5b81600584815481106115e7577f4e487b7100000000000000000000000000000000000000000000000000000000600052603260045260246000fd5b906000526020600020906005020160040160006101000a81548173ffffffffffffffffffffffffffffffffffffffff021916908373ffffffffffffffffffffffffffffffffffffffff1602179055507fc3e39387fdacfa0aa44a6d39dd701900d533b3e515d42054f6389321a06af71e8360058581548110611692577f4e487b7100000000000000000000000000000000000000000000000000000000600052603260045260246000fd5b906000526020600020906005020160000160009054906101000a900473ffffffffffffffffffffffffffffffffffffffff16846040516116d4939291906121ec565b60405180910390a1505050565b6006602052816000526040600020602052806000526040600020600091509150508060000154908060010154905082565b60006006600084815260200190815260200160002060008373ffffffffffffffffffffffffffffffffffffffff1673ffffffffffffffffffffffffffffffffffffffff16815260200190815260200160002060000154905092915050565b600260009054906101000a900473ffffffffffffffffffffffffffffffffffffffff1681565b6000600582815481106117d2577f4e487b7100000000000000000000000000000000000000000000000000000000600052603260045260246000fd5b906000526020600020906005020160000160009054906101000a900473ffffffffffffffffffffffffffffffffffffffff1673ffffffffffffffffffffffffffffffffffffffff166370a08231306040518263ffffffff1660e01b815260040161183c9190611f5f565b60206040518083038186803b15801561185457600080fd5b505afa158015611868573d6000803e3d6000fd5b505050506040513d601f19601f8201168201806040525081019061188c9190611cd5565b9050919050565b61189b611a3c565b73ffffffffffffffffffffffffffffffffffffffff166118b9610f0f565b73ffffffffffffffffffffffffffffffffffffffff161461190f576040517f08c379a00000000000000000000000000000000000000000000000000000000081526004016119069061213a565b60405180910390fd5b600073ffffffffffffffffffffffffffffffffffffffff168173ffffffffffffffffffffffffffffffffffffffff16141561197f576040517f08c379a0000000000000000000000000000000000000000000000000000000008152600401611976906120ba565b60405180910390fd5b8073ffffffffffffffffffffffffffffffffffffffff1660008054906101000a900473ffffffffffffffffffffffffffffffffffffffff1673ffffffffffffffffffffffffffffffffffffffff167f8be0079c531659141344cd1fd0a4f28419497f9722a3daafe3b4186f6b6457e060405160405180910390a3806000806101000a81548173ffffffffffffffffffffffffffffffffffffffff021916908373ffffffffffffffffffffffffffffffffffffffff16021790555050565b600033905090565b60008160010154611a558484611b5c565b611a5f919061233e565b90506000811115611b5657600260009054906101000a900473ffffffffffffffffffffffffffffffffffffffff1673ffffffffffffffffffffffffffffffffffffffff1663a9059cbb33836040518363ffffffff1660e01b8152600401611ac7929190611fb1565b602060405180830381600087803b158015611ae157600080fd5b505af1158015611af5573d6000803e3d6000fd5b505050506040513d601f19601f82011682018060405250810190611b199190611c83565b507ff3a670cd3af7d64b488926880889d08a8585a138ff455227af6737339a1ec262338583604051611b4d93929190611fda565b60405180910390a15b50505050565b6000670de0b6b3a764000083600201548360000154611b7b91906122e4565b611b8591906122b3565b905092915050565b600081359050611b9c81612681565b92915050565b600081519050611bb181612698565b92915050565b600081519050611bc6816126af565b92915050565b600081359050611bdb816126c6565b92915050565b600081519050611bf0816126c6565b92915050565b600081519050611c05816126dd565b92915050565b600060208284031215611c1d57600080fd5b6000611c2b84828501611b8d565b91505092915050565b600080600060608486031215611c4957600080fd5b6000611c5786828701611b8d565b9350506020611c6886828701611b8d565b9250506040611c7986828701611bcc565b9150509250925092565b600060208284031215611c9557600080fd5b6000611ca384828501611ba2565b91505092915050565b600060208284031215611cbe57600080fd5b6000611ccc84828501611bcc565b91505092915050565b600060208284031215611ce757600080fd5b6000611cf584828501611be1565b91505092915050565b60008060408385031215611d1157600080fd5b6000611d1f85828601611bcc565b9250506020611d3085828601611b8d565b9150509250929050565b60008060408385031215611d4d57600080fd5b6000611d5b85828601611bcc565b9250506020611d6c85828601611bcc565b9150509250929050565b600080600080600060a08688031215611d8e57600080fd5b6000611d9c88828901611bf6565b9550506020611dad88828901611bb7565b9450506040611dbe88828901611be1565b9350506060611dcf88828901611be1565b9250506080611de088828901611bf6565b9150509295509295909350565b611df681612372565b82525050565b611e05816123da565b82525050565b611e14816123fe565b82525050565b611e2381612422565b82525050565b611e3281612390565b82525050565b6000611e45601a8361224c565b9150611e50826124ed565b602082019050919050565b6000611e6860268361224c565b9150611e7382612516565b604082019050919050565b6000611e8b60118361224c565b9150611e9682612565565b602082019050919050565b6000611eae600e8361224c565b9150611eb98261258e565b602082019050919050565b6000611ed160148361224c565b9150611edc826125b7565b602082019050919050565b6000611ef460208361224c565b9150611eff826125e0565b602082019050919050565b6000611f1760248361224c565b9150611f2282612609565b604082019050919050565b6000611f3a601f8361224c565b9150611f4582612658565b602082019050919050565b611f59816123ba565b82525050565b6000602082019050611f746000830184611ded565b92915050565b6000606082019050611f8f6000830186611ded565b611f9c6020830185611ded565b611fa96040830184611f50565b949350505050565b6000604082019050611fc66000830185611ded565b611fd36020830184611f50565b9392505050565b6000606082019050611fef6000830186611ded565b611ffc6020830185611f50565b6120096040830184611f50565b949350505050565b60006020820190506120266000830184611e0b565b92915050565b600060a0820190506120416000830188611e1a565b61204e6020830187611f50565b61205b6040830186611f50565b6120686060830185611f50565b6120756080830184611dfc565b9695505050505050565b60006020820190506120946000830184611e29565b92915050565b600060208201905081810360008301526120b381611e38565b9050919050565b600060208201905081810360008301526120d381611e5b565b9050919050565b600060208201905081810360008301526120f381611e7e565b9050919050565b6000602082019050818103600083015261211381611ea1565b9050919050565b6000602082019050818103600083015261213381611ec4565b9050919050565b6000602082019050818103600083015261215381611ee7565b9050919050565b6000602082019050818103600083015261217381611f0a565b9050919050565b6000602082019050818103600083015261219381611f2d565b9050919050565b60006020820190506121af6000830184611f50565b92915050565b60006060820190506121ca6000830186611f50565b6121d76020830185611ded565b6121e46040830184611ded565b949350505050565b60006060820190506122016000830186611f50565b61220e6020830185611e1a565b61221b6040830184611ded565b949350505050565b60006040820190506122386000830185611f50565b6122456020830184611f50565b9392505050565b600082825260208201905092915050565b6000612268826123ba565b9150612273836123ba565b9250827fffffffffffffffffffffffffffffffffffffffffffffffffffffffffffffffff038211156122a8576122a761248f565b5b828201905092915050565b60006122be826123ba565b91506122c9836123ba565b9250826122d9576122d86124be565b5b828204905092915050565b60006122ef826123ba565b91506122fa836123ba565b9250817fffffffffffffffffffffffffffffffffffffffffffffffffffffffffffffffff04831182151516156123335761233261248f565b5b828202905092915050565b6000612349826123ba565b9150612354836123ba565b9250828210156123675761236661248f565b5b828203905092915050565b600061237d8261239a565b9050919050565b60008115159050919050565b6000819050919050565b600073ffffffffffffffffffffffffffffffffffffffff82169050919050565b6000819050919050565b600069ffffffffffffffffffff82169050919050565b60006123e5826123ec565b9050919050565b60006123f78261239a565b9050919050565b600061240982612410565b9050919050565b600061241b8261239a565b9050919050565b600061242d82612434565b9050919050565b600061243f8261239a565b9050919050565b6000612451826123ba565b91507fffffffffffffffffffffffffffffffffffffffffffffffffffffffffffffffff8214156124845761248361248f565b5b600182019050919050565b7f4e487b7100000000000000000000000000000000000000000000000000000000600052601160045260246000fd5b7f4e487b7100000000000000000000000000000000000000000000000000000000600052601260045260246000fd5b7f496e73756666696369656e74207374616b656420616d6f756e74000000000000600082015250565b7f4f776e61626c653a206e6577206f776e657220697320746865207a65726f206160008201527f6464726573730000000000000000000000000000000000000000000000000000602082015250565b7f416d6f756e74206d757374206265203e30000000000000000000000000000000600082015250565b7f496e76616c696420706f6f6c4964000000000000000000000000000000000000600082015250565b7f496e73756666696369656e742062616c616e6365000000000000000000000000600082015250565b7f4f776e61626c653a2063616c6c6572206973206e6f7420746865206f776e6572600082015250565b7f506f6f6c2077697468207468697320746f6b656e20616c72656164792065786960008201527f7374732e00000000000000000000000000000000000000000000000000000000602082015250565b7f5265656e7472616e637947756172643a207265656e7472616e742063616c6c00600082015250565b61268a81612372565b811461269557600080fd5b50565b6126a181612384565b81146126ac57600080fd5b50565b6126b881612390565b81146126c357600080fd5b50565b6126cf816123ba565b81146126da57600080fd5b50565b6126e6816123c4565b81146126f157600080fd5b5056fea264697066735822122039e148d7fc08748ab5ff9b364dc271587224bf831fc98948634865bbb7ec3d8564736f6c63430008030033",
  "immutableReferences": {},
  "source": "// SPDX-License-Identifier: MIT\r\npragma solidity 0.8.3;\r\n\r\nimport '@openzeppelin/contracts/access/Ownable.sol';\r\nimport '@openzeppelin/contracts/security/ReentrancyGuard.sol';\r\nimport '@openzeppelin/contracts/token/ERC20/IERC20.sol';\r\nimport '@chainlink/contracts/src/v0.8/interfaces/AggregatorV3Interface.sol';\r\n\r\nimport './Happy.sol';\r\n\r\n\r\ncontract HappyChef is Ownable, ReentrancyGuard {\r\n\r\n    struct UserInfo {\r\n        uint256 amount;     // Amount of staked token provided\r\n        uint256 rewardDebt; // Amount of reward already withdrawn\r\n    }\r\n\r\n    struct PoolInfo {\r\n        IERC20 token;               // Address of the staked token\r\n        uint256 allocation;         // Pool allocation points, see totalAllocation for details\r\n        uint256 accRewardPerShare;  // Accumulated reward per 1 token\r\n        uint256 lastRewardBlock;    // Last reward for minting\r\n        AggregatorV3Interface priceFeed;    // ChainLink oracle for the staked token\r\n    }\r\n\r\n    // The reward token\r\n    Happy public happy;\r\n\r\n    // Reward token minted for each block\r\n    uint256 rewardPerBlock;\r\n\r\n    // Sum of allocation for all the pools, for dispatching the reward token\r\n    // For example if we have the following pools:\r\n    //   Pools              |   1  |   2  |   3\r\n    //   Allocation points  | 1000 | 1000 | 2000   totalAllocation = 4000\r\n    // and a rewardPerBlock of 10, the reward per block for each pool will be:\r\n    //   Pools              |   1  |   2  |   3\r\n    //   Token reward/block | 2.50 | 2.50 | 5.00\r\n    uint256 totalAllocation;\r\n\r\n    // The staking pools\r\n    PoolInfo[] public pools;\r\n\r\n    // For each pool, user info\r\n    mapping (uint256 => mapping(address => UserInfo)) public users;\r\n\r\n\r\n    event PoolAdded(uint256 poolId, address token, address priceFeed);\r\n    event PriceFeedUpdated(uint256 poolId, IERC20 token, address priceFeed);\r\n    event Staked(address user, uint256 poolId, uint256 amount);\r\n    event Unstaked(address user, uint256 poolId, uint256 amount);\r\n    event Redeemed(address user, uint256 poolId, uint256 amount);\r\n\r\n\r\n    // Check that the pool id is in the array range.\r\n    modifier validPool(uint256 _poolId) {\r\n        require(_poolId < pools.length, \"Invalid poolId\");\r\n        _;\r\n    }\r\n\r\n\r\n    modifier validAmount(uint256 _amount) {\r\n        require(_amount > 0, \"Amount must be >0\");\r\n        _;\r\n    }\r\n\r\n\r\n    constructor(Happy _happy, uint256 _rewardPerBlock) {\r\n        happy = _happy;\r\n        rewardPerBlock = _rewardPerBlock;\r\n    }\r\n\r\n\r\n    function getNbPools() external view returns (uint256) {\r\n        return pools.length;\r\n    }\r\n\r\n\r\n    function getUserBalance(uint256 poolId, address user) external view returns (uint256) {\r\n        return users[poolId][user].amount;\r\n    }\r\n\r\n\r\n    function getPoolBalance(uint256 poolId) external view returns (uint256) {\r\n        return pools[poolId].token.balanceOf(address(this));\r\n    }\r\n\r\n\r\n    function addPool(address _token, address _priceFeed, uint256 _allocation) external onlyOwner {\r\n        // Check if pool already added\r\n        bool found = false;\r\n        for (uint i = 0; i < pools.length; i++) {\r\n            if (pools[i].token == IERC20(_token)) {\r\n                found = true;\r\n                break;\r\n            }\r\n        }\r\n        require(!found, \"Pool with this token already exists.\");\r\n\r\n        pools.push(PoolInfo({\r\n            token: IERC20(_token),\r\n            allocation: _allocation,\r\n            accRewardPerShare: 0,\r\n            lastRewardBlock: block.number,\r\n            priceFeed: AggregatorV3Interface(_priceFeed)\r\n        }));\r\n\r\n        totalAllocation += _allocation;\r\n\r\n        emit PoolAdded(pools.length - 1, _token, _priceFeed);\r\n    }\r\n\r\n\r\n    function updatePriceFeed(uint256 _poolId, address priceFeed) external validPool(_poolId) onlyOwner {\r\n        pools[_poolId].priceFeed = AggregatorV3Interface(priceFeed);\r\n\r\n        emit PriceFeedUpdated(_poolId, pools[_poolId].token, priceFeed);\r\n    }\r\n\r\n    \r\n    // Token approval is needed before calling this function.\r\n    function stake(uint256 _poolId, uint256 _amount) external validPool(_poolId) validAmount(_amount) nonReentrant {\r\n        PoolInfo storage pool = pools[_poolId];\r\n        UserInfo storage user = users[_poolId][msg.sender];\r\n        require(pool.token.balanceOf(msg.sender) >= _amount, \"Insufficient balance\");\r\n\r\n        updatePool(_poolId);\r\n\r\n        if (user.amount > 0) {\r\n            // User had already staked, distribute reward\r\n            _distributeReward(_poolId, pool, user);\r\n        }\r\n    \r\n        user.amount += _amount;\r\n        user.rewardDebt = _calculateReward(pool, user);\r\n\r\n        pool.token.transferFrom(msg.sender, address(this), _amount);\r\n\r\n        emit Staked(msg.sender, _poolId, _amount);\r\n    }\r\n\r\n\r\n    function _calculateReward(PoolInfo storage pool, UserInfo storage user) internal view returns (uint256) {\r\n        return user.amount * pool.accRewardPerShare / 1e18;\r\n    }\r\n\r\n\r\n    function _distributeReward(uint256 poolId, PoolInfo storage pool, UserInfo storage user) internal {\r\n        uint256 pending = _calculateReward(pool, user) - user.rewardDebt;\r\n        if (pending > 0) {\r\n            happy.transfer(msg.sender, pending);\r\n\r\n            emit Redeemed(msg.sender, poolId, pending);\r\n        }\r\n    }\r\n\r\n\r\n    function updatePool(uint256 _poolId) public validPool(_poolId) {\r\n        PoolInfo storage pool = pools[_poolId];\r\n        if (block.number <= pool.lastRewardBlock) {\r\n            return;\r\n        }\r\n\r\n        uint256 supply = pool.token.balanceOf(address(this));\r\n        if (supply != 0) {\r\n            uint256 reward = (block.number - pool.lastRewardBlock) * rewardPerBlock * pool.allocation / totalAllocation;\r\n            happy.mint(address(this), reward);\r\n            pool.accRewardPerShare += reward * 1e18 / supply;\r\n        }\r\n\r\n        pool.lastRewardBlock = block.number;\r\n    }\r\n\r\n\r\n    // If this function is called with 0 as amount, it withdraw only the reward\r\n    function unstake(uint256 _poolId, uint256 _amount) external validPool(_poolId) nonReentrant {\r\n        PoolInfo storage pool = pools[_poolId];\r\n        UserInfo storage user = users[_poolId][msg.sender];\r\n        require(_amount <= user.amount, \"Insufficient staked amount\");\r\n\r\n        updatePool(_poolId);\r\n\r\n        _distributeReward(_poolId, pool, user);\r\n\r\n        if (_amount > 0) {\r\n            user.amount -= _amount;\r\n            pool.token.transfer(msg.sender, _amount);\r\n        }\r\n\r\n        // Recalculate rewardDebt (if user partially unstake, will be zero if unstake all)\r\n        user.rewardDebt = _calculateReward(pool, user);\r\n\r\n        emit Unstaked(msg.sender, _poolId, _amount);\r\n    }\r\n\r\n\r\n    function pendingReward(uint256 _poolId, address _user) external view validPool(_poolId) returns (uint256) {\r\n        PoolInfo storage pool = pools[_poolId];\r\n        UserInfo storage user = users[_poolId][_user];\r\n        \r\n        uint256 accRewardPerShare = pool.accRewardPerShare;\r\n        uint256 supply = pool.token.balanceOf(address(this));\r\n        if (block.number > pool.lastRewardBlock && supply != 0) {\r\n            uint256 reward = (block.number - pool.lastRewardBlock) * rewardPerBlock * pool.allocation / totalAllocation;\r\n            accRewardPerShare += reward * 1e18 / supply;\r\n        }\r\n\r\n        return user.amount * accRewardPerShare / 1e18 - user.rewardDebt;\r\n    }\r\n\r\n\r\n    function getLastPrice(uint256 _poolId) public view validPool(_poolId) returns (int) {        \r\n        (\r\n            /*uint80 roundId*/,\r\n            int price,\r\n            /*uint startAt*/,\r\n            /*uint timestamp*/,\r\n            /*uint80 answeredInRound*/\r\n        ) = pools[_poolId].priceFeed.latestRoundData();\r\n\r\n        return price;\r\n    }\r\n\r\n}\r\n",
  "sourcePath": "C:/ws/alyra/dapp-staking/contracts/HappyChef.sol",
  "compiler": {
    "name": "solc",
    "version": "0.8.3+commit.8d00100c.Emscripten.clang"
  },
  "schemaVersion": "3.3.4",
  "updatedAt": "2021-05-16T10:42:51.506Z",
  "networkType": "ethereum",
  "devdoc": {
    "kind": "dev",
    "methods": {
      "owner()": {
        "details": "Returns the address of the current owner."
      },
      "renounceOwnership()": {
        "details": "Leaves the contract without owner. It will not be possible to call `onlyOwner` functions anymore. Can only be called by the current owner. NOTE: Renouncing ownership will leave the contract without an owner, thereby removing any functionality that is only available to the owner."
      },
      "transferOwnership(address)": {
        "details": "Transfers ownership of the contract to a new account (`newOwner`). Can only be called by the current owner."
      }
    },
    "version": 1
  },
  "userdoc": {
    "kind": "user",
    "methods": {},
    "version": 1
  }
}