{
  "contractName": "HappyChef",
  "abi": [
    {
      "inputs": [
        {
          "internalType": "contract Happy",
          "name": "_happy",
          "type": "address"
        },
        {
          "internalType": "address",
          "name": "_happyPriceFeed",
          "type": "address"
        }
      ],
      "stateMutability": "nonpayable",
      "type": "constructor"
    },
    {
      "anonymous": false,
      "inputs": [
        {
          "indexed": true,
          "internalType": "address",
          "name": "previousOwner",
          "type": "address"
        },
        {
          "indexed": true,
          "internalType": "address",
          "name": "newOwner",
          "type": "address"
        }
      ],
      "name": "OwnershipTransferred",
      "type": "event"
    },
    {
      "anonymous": false,
      "inputs": [
        {
          "indexed": false,
          "internalType": "uint256",
          "name": "poolId",
          "type": "uint256"
        },
        {
          "indexed": false,
          "internalType": "address",
          "name": "token",
          "type": "address"
        },
        {
          "indexed": false,
          "internalType": "address",
          "name": "priceFeed",
          "type": "address"
        }
      ],
      "name": "PoolAdded",
      "type": "event"
    },
    {
      "anonymous": false,
      "inputs": [
        {
          "indexed": false,
          "internalType": "uint256",
          "name": "poolId",
          "type": "uint256"
        },
        {
          "indexed": false,
          "internalType": "contract ERC20",
          "name": "token",
          "type": "address"
        },
        {
          "indexed": false,
          "internalType": "address",
          "name": "priceFeed",
          "type": "address"
        }
      ],
      "name": "PriceFeedUpdated",
      "type": "event"
    },
    {
      "anonymous": false,
      "inputs": [
        {
          "indexed": false,
          "internalType": "address",
          "name": "user",
          "type": "address"
        },
        {
          "indexed": false,
          "internalType": "uint256",
          "name": "poolId",
          "type": "uint256"
        },
        {
          "indexed": false,
          "internalType": "uint256",
          "name": "amount",
          "type": "uint256"
        }
      ],
      "name": "Redeemed",
      "type": "event"
    },
    {
      "anonymous": false,
      "inputs": [
        {
          "indexed": false,
          "internalType": "address",
          "name": "user",
          "type": "address"
        },
        {
          "indexed": false,
          "internalType": "uint256",
          "name": "poolId",
          "type": "uint256"
        },
        {
          "indexed": false,
          "internalType": "uint256",
          "name": "amount",
          "type": "uint256"
        }
      ],
      "name": "Staked",
      "type": "event"
    },
    {
      "anonymous": false,
      "inputs": [
        {
          "indexed": false,
          "internalType": "address",
          "name": "user",
          "type": "address"
        },
        {
          "indexed": false,
          "internalType": "uint256",
          "name": "poolId",
          "type": "uint256"
        },
        {
          "indexed": false,
          "internalType": "uint256",
          "name": "amount",
          "type": "uint256"
        }
      ],
      "name": "Unstaked",
      "type": "event"
    },
    {
      "inputs": [],
      "name": "happy",
      "outputs": [
        {
          "internalType": "contract Happy",
          "name": "",
          "type": "address"
        }
      ],
      "stateMutability": "view",
      "type": "function",
      "constant": true
    },
    {
      "inputs": [],
      "name": "happyPriceFeed",
      "outputs": [
        {
          "internalType": "contract AggregatorV3Interface",
          "name": "",
          "type": "address"
        }
      ],
      "stateMutability": "view",
      "type": "function",
      "constant": true
    },
    {
      "inputs": [],
      "name": "owner",
      "outputs": [
        {
          "internalType": "address",
          "name": "",
          "type": "address"
        }
      ],
      "stateMutability": "view",
      "type": "function",
      "constant": true
    },
    {
      "inputs": [
        {
          "internalType": "uint256",
          "name": "",
          "type": "uint256"
        }
      ],
      "name": "pools",
      "outputs": [
        {
          "internalType": "contract ERC20",
          "name": "token",
          "type": "address"
        },
        {
          "internalType": "uint256",
          "name": "yield",
          "type": "uint256"
        },
        {
          "internalType": "contract AggregatorV3Interface",
          "name": "priceFeed",
          "type": "address"
        }
      ],
      "stateMutability": "view",
      "type": "function",
      "constant": true
    },
    {
      "inputs": [],
      "name": "renounceOwnership",
      "outputs": [],
      "stateMutability": "nonpayable",
      "type": "function"
    },
    {
      "inputs": [
        {
          "internalType": "address",
          "name": "newOwner",
          "type": "address"
        }
      ],
      "name": "transferOwnership",
      "outputs": [],
      "stateMutability": "nonpayable",
      "type": "function"
    },
    {
      "inputs": [
        {
          "internalType": "uint256",
          "name": "",
          "type": "uint256"
        },
        {
          "internalType": "address",
          "name": "",
          "type": "address"
        }
      ],
      "name": "users",
      "outputs": [
        {
          "internalType": "uint256",
          "name": "amount",
          "type": "uint256"
        },
        {
          "internalType": "uint256",
          "name": "depositDate",
          "type": "uint256"
        }
      ],
      "stateMutability": "view",
      "type": "function",
      "constant": true
    },
    {
      "inputs": [],
      "name": "getNbPools",
      "outputs": [
        {
          "internalType": "uint256",
          "name": "",
          "type": "uint256"
        }
      ],
      "stateMutability": "view",
      "type": "function",
      "constant": true
    },
    {
      "inputs": [
        {
          "internalType": "uint256",
          "name": "poolId",
          "type": "uint256"
        },
        {
          "internalType": "address",
          "name": "user",
          "type": "address"
        }
      ],
      "name": "getUserBalance",
      "outputs": [
        {
          "internalType": "uint256",
          "name": "",
          "type": "uint256"
        }
      ],
      "stateMutability": "view",
      "type": "function",
      "constant": true
    },
    {
      "inputs": [
        {
          "internalType": "uint256",
          "name": "poolId",
          "type": "uint256"
        }
      ],
      "name": "getPoolBalance",
      "outputs": [
        {
          "internalType": "uint256",
          "name": "",
          "type": "uint256"
        }
      ],
      "stateMutability": "view",
      "type": "function",
      "constant": true
    },
    {
      "inputs": [
        {
          "internalType": "address",
          "name": "_token",
          "type": "address"
        },
        {
          "internalType": "address",
          "name": "_priceFeed",
          "type": "address"
        },
        {
          "internalType": "uint256",
          "name": "_yield",
          "type": "uint256"
        }
      ],
      "name": "addPool",
      "outputs": [],
      "stateMutability": "nonpayable",
      "type": "function"
    },
    {
      "inputs": [
        {
          "internalType": "uint256",
          "name": "_poolId",
          "type": "uint256"
        },
        {
          "internalType": "address",
          "name": "priceFeed",
          "type": "address"
        }
      ],
      "name": "updatePriceFeed",
      "outputs": [],
      "stateMutability": "nonpayable",
      "type": "function"
    },
    {
      "inputs": [
        {
          "internalType": "uint256",
          "name": "_poolId",
          "type": "uint256"
        },
        {
          "internalType": "uint256",
          "name": "_amount",
          "type": "uint256"
        }
      ],
      "name": "stake",
      "outputs": [],
      "stateMutability": "nonpayable",
      "type": "function"
    },
    {
      "inputs": [
        {
          "internalType": "uint256",
          "name": "_poolId",
          "type": "uint256"
        },
        {
          "internalType": "address",
          "name": "_user",
          "type": "address"
        }
      ],
      "name": "calculateRewardDebug",
      "outputs": [
        {
          "internalType": "uint256",
          "name": "amount",
          "type": "uint256"
        },
        {
          "internalType": "uint256",
          "name": "delta",
          "type": "uint256"
        },
        {
          "internalType": "uint256",
          "name": "yield",
          "type": "uint256"
        },
        {
          "internalType": "uint256",
          "name": "tokenPrice",
          "type": "uint256"
        },
        {
          "internalType": "uint256",
          "name": "happyPrice",
          "type": "uint256"
        }
      ],
      "stateMutability": "view",
      "type": "function",
      "constant": true
    },
    {
      "inputs": [
        {
          "internalType": "uint256",
          "name": "_poolId",
          "type": "uint256"
        },
        {
          "internalType": "uint256",
          "name": "_amount",
          "type": "uint256"
        }
      ],
      "name": "unstake",
      "outputs": [],
      "stateMutability": "nonpayable",
      "type": "function"
    },
    {
      "inputs": [
        {
          "internalType": "uint256",
          "name": "_poolId",
          "type": "uint256"
        },
        {
          "internalType": "address",
          "name": "_user",
          "type": "address"
        }
      ],
      "name": "pendingReward",
      "outputs": [
        {
          "internalType": "uint256",
          "name": "",
          "type": "uint256"
        }
      ],
      "stateMutability": "view",
      "type": "function",
      "constant": true
    },
    {
      "inputs": [
        {
          "internalType": "uint256",
          "name": "_poolId",
          "type": "uint256"
        }
      ],
      "name": "getLastPrice",
      "outputs": [
        {
          "internalType": "uint256",
          "name": "",
          "type": "uint256"
        }
      ],
      "stateMutability": "view",
      "type": "function",
      "constant": true
    },
    {
      "inputs": [],
      "name": "getLastHappyPrice",
      "outputs": [
        {
          "internalType": "uint256",
          "name": "",
          "type": "uint256"
        }
      ],
      "stateMutability": "view",
      "type": "function",
      "constant": true
    }
  ],
  "bytecode": "0x60806040523480156200001157600080fd5b5060405162002c8538038062002c858339818101604052810190620000379190620001ae565b6000620000496200017860201b60201c565b9050806000806101000a81548173ffffffffffffffffffffffffffffffffffffffff021916908373ffffffffffffffffffffffffffffffffffffffff1602179055508073ffffffffffffffffffffffffffffffffffffffff16600073ffffffffffffffffffffffffffffffffffffffff167f8be0079c531659141344cd1fd0a4f28419497f9722a3daafe3b4186f6b6457e060405160405180910390a3506001808190555081600260006101000a81548173ffffffffffffffffffffffffffffffffffffffff021916908373ffffffffffffffffffffffffffffffffffffffff16021790555080600560006101000a81548173ffffffffffffffffffffffffffffffffffffffff021916908373ffffffffffffffffffffffffffffffffffffffff16021790555050506200026b565b600033905090565b600081519050620001918162000237565b92915050565b600081519050620001a88162000251565b92915050565b60008060408385031215620001c257600080fd5b6000620001d28582860162000197565b9250506020620001e58582860162000180565b9150509250929050565b6000620001fc8262000217565b9050919050565b60006200021082620001ef565b9050919050565b600073ffffffffffffffffffffffffffffffffffffffff82169050919050565b6200024281620001ef565b81146200024e57600080fd5b50565b6200025c8162000203565b81146200026857600080fd5b50565b612a0a806200027b6000396000f3fe608060405234801561001057600080fd5b50600436106101165760003560e01c806398969e82116100a2578063b9d02df411610071578063b9d02df4146102d3578063cdfb6cf314610304578063e0d7cb6f14610334578063ed1375d514610352578063f2fde38b1461038257610116565b806398969e82146102395780639e2c8a5b14610269578063ac4afa3814610285578063acfc827e146102b757610116565b8063715018a6116100e9578063715018a6146101bb5780637b0472f0146101c55780637e29d6c2146101e157806386a7a170146101fd5780638da5cb5b1461021b57610116565b806311df50d81461011b578063344e516d1461013957806352918b761461016d57806365fa2f7f1461018b575b600080fd5b61012361039e565b60405161013091906120e4565b60405180910390f35b610153600480360381019061014e9190611db7565b6103c4565b604051610164959493929190612303565b60405180910390f35b6101756104f6565b6040516101829190612251565b60405180910390f35b6101a560048036038101906101a09190611d65565b610503565b6040516101b29190612251565b60405180910390f35b6101c36107c8565b005b6101df60048036038101906101da9190611df3565b610902565b005b6101fb60048036038101906101f69190611ced565b610ca6565b005b610205610f8e565b6040516102129190612251565b60405180910390f35b61022361103e565b6040516102309190612032565b60405180910390f35b610253600480360381019061024e9190611db7565b611067565b6040516102609190612251565b60405180910390f35b610283600480360381019061027e9190611df3565b611167565b005b61029f600480360381019061029a9190611d65565b61140f565b6040516102ae939291906120ff565b60405180910390f35b6102d160048036038101906102cc9190611db7565b611489565b005b6102ed60048036038101906102e89190611db7565b611682565b6040516102fb9291906122da565b60405180910390f35b61031e60048036038101906103199190611db7565b6116b3565b60405161032b9190612251565b60405180910390f35b61033c611711565b6040516103499190612136565b60405180910390f35b61036c60048036038101906103679190611d65565b611737565b6040516103799190612251565b60405180910390f35b61039c60048036038101906103979190611cc4565b611834565b005b600560009054906101000a900473ffffffffffffffffffffffffffffffffffffffff1681565b6000806000806000866003805490508110610414576040517f08c379a000000000000000000000000000000000000000000000000000000000815260040161040b906121b1565b60405180910390fd5b600060038981548110610450577f4e487b7100000000000000000000000000000000000000000000000000000000600052603260045260246000fd5b906000526020600020906003020190506000600460008b815260200190815260200160002060008a73ffffffffffffffffffffffffffffffffffffffff1673ffffffffffffffffffffffffffffffffffffffff1681526020019081526020016000209050806000015497508060010154426104cb91906125b9565b9650816001015495506104dd8a610503565b94506104e7610f8e565b93505050509295509295909350565b6000600380549050905090565b600081600380549050811061054d576040517f08c379a0000000000000000000000000000000000000000000000000000000008152600401610544906121b1565b60405180910390fd5b600060038481548110610589577f4e487b7100000000000000000000000000000000000000000000000000000000600052603260045260246000fd5b9060005260206000209060030201905060008160020160009054906101000a900473ffffffffffffffffffffffffffffffffffffffff1673ffffffffffffffffffffffffffffffffffffffff1663feaf968c6040518163ffffffff1660e01b815260040160a06040518083038186803b15801561060557600080fd5b505afa158015610619573d6000803e3d6000fd5b505050506040513d601f19601f8201168201806040525081019061063d9190611e2f565b505050915050600081905060128360000160009054906101000a900473ffffffffffffffffffffffffffffffffffffffff1673ffffffffffffffffffffffffffffffffffffffff1663313ce5676040518163ffffffff1660e01b815260040160206040518083038186803b1580156106b457600080fd5b505afa1580156106c8573d6000803e3d6000fd5b505050506040513d601f19601f820116820180604052508101906106ec9190611ea6565b60ff16146107bc578260000160009054906101000a900473ffffffffffffffffffffffffffffffffffffffff1673ffffffffffffffffffffffffffffffffffffffff1663313ce5676040518163ffffffff1660e01b815260040160206040518083038186803b15801561075e57600080fd5b505afa158015610772573d6000803e3d6000fd5b505050506040513d601f19601f820116820180604052508101906107969190611ea6565b60126107a291906125ed565b600a6107ae9190612441565b816107b9919061255f565b90505b80945050505050919050565b6107d06119dd565b73ffffffffffffffffffffffffffffffffffffffff166107ee61103e565b73ffffffffffffffffffffffffffffffffffffffff1614610844576040517f08c379a000000000000000000000000000000000000000000000000000000000815260040161083b906121f1565b60405180910390fd5b600073ffffffffffffffffffffffffffffffffffffffff1660008054906101000a900473ffffffffffffffffffffffffffffffffffffffff1673ffffffffffffffffffffffffffffffffffffffff167f8be0079c531659141344cd1fd0a4f28419497f9722a3daafe3b4186f6b6457e060405160405180910390a360008060006101000a81548173ffffffffffffffffffffffffffffffffffffffff021916908373ffffffffffffffffffffffffffffffffffffffff160217905550565b81600380549050811061094a576040517f08c379a0000000000000000000000000000000000000000000000000000000008152600401610941906121b1565b60405180910390fd5b816000811161098e576040517f08c379a000000000000000000000000000000000000000000000000000000000815260040161098590612191565b60405180910390fd5b600260015414156109d4576040517f08c379a00000000000000000000000000000000000000000000000000000000081526004016109cb90612231565b60405180910390fd5b6002600181905550600060038581548110610a18577f4e487b7100000000000000000000000000000000000000000000000000000000600052603260045260246000fd5b9060005260206000209060030201905060006004600087815260200190815260200160002060003373ffffffffffffffffffffffffffffffffffffffff1673ffffffffffffffffffffffffffffffffffffffff1681526020019081526020016000209050848260000160009054906101000a900473ffffffffffffffffffffffffffffffffffffffff1673ffffffffffffffffffffffffffffffffffffffff166370a08231336040518263ffffffff1660e01b8152600401610ada9190612032565b60206040518083038186803b158015610af257600080fd5b505afa158015610b06573d6000803e3d6000fd5b505050506040513d601f19601f82011682018060405250810190610b2a9190611d8e565b1015610b6b576040517f08c379a0000000000000000000000000000000000000000000000000000000008152600401610b62906121d1565b60405180910390fd5b600081600001541115610b8457610b838683836119e5565b5b84816000016000828254610b989190612367565b925050819055504281600101819055508160000160009054906101000a900473ffffffffffffffffffffffffffffffffffffffff1673ffffffffffffffffffffffffffffffffffffffff166323b872dd3330886040518463ffffffff1660e01b8152600401610c099392919061204d565b602060405180830381600087803b158015610c2357600080fd5b505af1158015610c37573d6000803e3d6000fd5b505050506040513d601f19601f82011682018060405250810190610c5b9190611d3c565b507f1449c6dd7851abc30abf37f57715f492010519147cc2652fbc38202c18a6ee90338787604051610c8f939291906120ad565b60405180910390a150506001808190555050505050565b610cae6119dd565b73ffffffffffffffffffffffffffffffffffffffff16610ccc61103e565b73ffffffffffffffffffffffffffffffffffffffff1614610d22576040517f08c379a0000000000000000000000000000000000000000000000000000000008152600401610d19906121f1565b60405180910390fd5b6000805b600380549050811015610dee578473ffffffffffffffffffffffffffffffffffffffff1660038281548110610d84577f4e487b7100000000000000000000000000000000000000000000000000000000600052603260045260246000fd5b906000526020600020906003020160000160009054906101000a900473ffffffffffffffffffffffffffffffffffffffff1673ffffffffffffffffffffffffffffffffffffffff161415610ddb5760019150610dee565b8080610de690612702565b915050610d26565b508015610e30576040517f08c379a0000000000000000000000000000000000000000000000000000000008152600401610e2790612211565b60405180910390fd5b600360405180606001604052808673ffffffffffffffffffffffffffffffffffffffff1681526020018481526020018573ffffffffffffffffffffffffffffffffffffffff16815250908060018154018082558091505060019003906000526020600020906003020160009091909190915060008201518160000160006101000a81548173ffffffffffffffffffffffffffffffffffffffff021916908373ffffffffffffffffffffffffffffffffffffffff1602179055506020820151816001015560408201518160020160006101000a81548173ffffffffffffffffffffffffffffffffffffffff021916908373ffffffffffffffffffffffffffffffffffffffff16021790555050507ff526af69faf759a24b780dee9d979f542b6a5e8bfa39c7b04fcce83cb9982b8a6001600380549050610f6f91906125b9565b8585604051610f809392919061226c565b60405180910390a150505050565b600080600560009054906101000a900473ffffffffffffffffffffffffffffffffffffffff1673ffffffffffffffffffffffffffffffffffffffff1663feaf968c6040518163ffffffff1660e01b815260040160a06040518083038186803b158015610ff957600080fd5b505afa15801561100d573d6000803e3d6000fd5b505050506040513d601f19601f820116820180604052508101906110319190611e2f565b5050509150508091505090565b60008060009054906101000a900473ffffffffffffffffffffffffffffffffffffffff16905090565b60008260038054905081106110b1576040517f08c379a00000000000000000000000000000000000000000000000000000000081526004016110a8906121b1565b60405180910390fd5b6000600385815481106110ed577f4e487b7100000000000000000000000000000000000000000000000000000000600052603260045260246000fd5b9060005260206000209060030201905060006004600087815260200190815260200160002060008673ffffffffffffffffffffffffffffffffffffffff1673ffffffffffffffffffffffffffffffffffffffff168152602001908152602001600020905061115c868383611b87565b935050505092915050565b8160038054905081106111af576040517f08c379a00000000000000000000000000000000000000000000000000000000081526004016111a6906121b1565b60405180910390fd5b600260015414156111f5576040517f08c379a00000000000000000000000000000000000000000000000000000000081526004016111ec90612231565b60405180910390fd5b6002600181905550600060038481548110611239577f4e487b7100000000000000000000000000000000000000000000000000000000600052603260045260246000fd5b9060005260206000209060030201905060006004600086815260200190815260200160002060003373ffffffffffffffffffffffffffffffffffffffff1673ffffffffffffffffffffffffffffffffffffffff168152602001908152602001600020905080600001548411156112e4576040517f08c379a00000000000000000000000000000000000000000000000000000000081526004016112db90612151565b60405180910390fd5b6112ef8583836119e5565b60008411156113c6578381600001600082825461130c91906125b9565b925050819055508160000160009054906101000a900473ffffffffffffffffffffffffffffffffffffffff1673ffffffffffffffffffffffffffffffffffffffff1663a9059cbb33866040518363ffffffff1660e01b8152600401611372929190612084565b602060405180830381600087803b15801561138c57600080fd5b505af11580156113a0573d6000803e3d6000fd5b505050506040513d601f19601f820116820180604052508101906113c49190611d3c565b505b7f7fc4727e062e336010f2c282598ef5f14facb3de68cf8195c2f23e1454b2b74e3386866040516113f9939291906120ad565b60405180910390a1505060018081905550505050565b6003818154811061141f57600080fd5b90600052602060002090600302016000915090508060000160009054906101000a900473ffffffffffffffffffffffffffffffffffffffff16908060010154908060020160009054906101000a900473ffffffffffffffffffffffffffffffffffffffff16905083565b8160038054905081106114d1576040517f08c379a00000000000000000000000000000000000000000000000000000000081526004016114c8906121b1565b60405180910390fd5b6114d96119dd565b73ffffffffffffffffffffffffffffffffffffffff166114f761103e565b73ffffffffffffffffffffffffffffffffffffffff161461154d576040517f08c379a0000000000000000000000000000000000000000000000000000000008152600401611544906121f1565b60405180910390fd5b8160038481548110611588577f4e487b7100000000000000000000000000000000000000000000000000000000600052603260045260246000fd5b906000526020600020906003020160020160006101000a81548173ffffffffffffffffffffffffffffffffffffffff021916908373ffffffffffffffffffffffffffffffffffffffff1602179055507fc3e39387fdacfa0aa44a6d39dd701900d533b3e515d42054f6389321a06af71e8360038581548110611633577f4e487b7100000000000000000000000000000000000000000000000000000000600052603260045260246000fd5b906000526020600020906003020160000160009054906101000a900473ffffffffffffffffffffffffffffffffffffffff1684604051611675939291906122a3565b60405180910390a1505050565b6004602052816000526040600020602052806000526040600020600091509150508060000154908060010154905082565b60006004600084815260200190815260200160002060008373ffffffffffffffffffffffffffffffffffffffff1673ffffffffffffffffffffffffffffffffffffffff16815260200190815260200160002060000154905092915050565b600260009054906101000a900473ffffffffffffffffffffffffffffffffffffffff1681565b600060038281548110611773577f4e487b7100000000000000000000000000000000000000000000000000000000600052603260045260246000fd5b906000526020600020906003020160000160009054906101000a900473ffffffffffffffffffffffffffffffffffffffff1673ffffffffffffffffffffffffffffffffffffffff166370a08231306040518263ffffffff1660e01b81526004016117dd9190612032565b60206040518083038186803b1580156117f557600080fd5b505afa158015611809573d6000803e3d6000fd5b505050506040513d601f19601f8201168201806040525081019061182d9190611d8e565b9050919050565b61183c6119dd565b73ffffffffffffffffffffffffffffffffffffffff1661185a61103e565b73ffffffffffffffffffffffffffffffffffffffff16146118b0576040517f08c379a00000000000000000000000000000000000000000000000000000000081526004016118a7906121f1565b60405180910390fd5b600073ffffffffffffffffffffffffffffffffffffffff168173ffffffffffffffffffffffffffffffffffffffff161415611920576040517f08c379a000000000000000000000000000000000000000000000000000000000815260040161191790612171565b60405180910390fd5b8073ffffffffffffffffffffffffffffffffffffffff1660008054906101000a900473ffffffffffffffffffffffffffffffffffffffff1673ffffffffffffffffffffffffffffffffffffffff167f8be0079c531659141344cd1fd0a4f28419497f9722a3daafe3b4186f6b6457e060405160405180910390a3806000806101000a81548173ffffffffffffffffffffffffffffffffffffffff021916908373ffffffffffffffffffffffffffffffffffffffff16021790555050565b600033905090565b60006119f2848484611b87565b90506000811115611b8157600260009054906101000a900473ffffffffffffffffffffffffffffffffffffffff1673ffffffffffffffffffffffffffffffffffffffff166340c10f1930836040518363ffffffff1660e01b8152600401611a5a929190612084565b600060405180830381600087803b158015611a7457600080fd5b505af1158015611a88573d6000803e3d6000fd5b50505050600260009054906101000a900473ffffffffffffffffffffffffffffffffffffffff1673ffffffffffffffffffffffffffffffffffffffff1663a9059cbb33836040518363ffffffff1660e01b8152600401611ae9929190612084565b602060405180830381600087803b158015611b0357600080fd5b505af1158015611b17573d6000803e3d6000fd5b505050506040513d601f19601f82011682018060405250810190611b3b9190611d3c565b504282600101819055507ff3a670cd3af7d64b488926880889d08a8585a138ff455227af6737339a1ec262338583604051611b78939291906120ad565b60405180910390a15b50505050565b600080611b92610f8e565b611b9b86610503565b61016d60648088600101546018603c808b6001015442611bbb91906125b9565b8c60000154611bca919061255f565b611bd491906123bd565b611bde91906123bd565b611be891906123bd565b611bf2919061255f565b611bfc91906123bd565b611c0691906123bd565b611c1091906123bd565b611c1a919061255f565b611c2491906123bd565b9050809150509392505050565b600081359050611c408161294a565b92915050565b600081519050611c5581612961565b92915050565b600081519050611c6a81612978565b92915050565b600081359050611c7f8161298f565b92915050565b600081519050611c948161298f565b92915050565b600081519050611ca9816129bd565b92915050565b600081519050611cbe816129a6565b92915050565b600060208284031215611cd657600080fd5b6000611ce484828501611c31565b91505092915050565b600080600060608486031215611d0257600080fd5b6000611d1086828701611c31565b9350506020611d2186828701611c31565b9250506040611d3286828701611c70565b9150509250925092565b600060208284031215611d4e57600080fd5b6000611d5c84828501611c46565b91505092915050565b600060208284031215611d7757600080fd5b6000611d8584828501611c70565b91505092915050565b600060208284031215611da057600080fd5b6000611dae84828501611c85565b91505092915050565b60008060408385031215611dca57600080fd5b6000611dd885828601611c70565b9250506020611de985828601611c31565b9150509250929050565b60008060408385031215611e0657600080fd5b6000611e1485828601611c70565b9250506020611e2585828601611c70565b9150509250929050565b600080600080600060a08688031215611e4757600080fd5b6000611e5588828901611c9a565b9550506020611e6688828901611c5b565b9450506040611e7788828901611c85565b9350506060611e8888828901611c85565b9250506080611e9988828901611c9a565b9150509295509295909350565b600060208284031215611eb857600080fd5b6000611ec684828501611caf565b91505092915050565b611ed881612621565b82525050565b611ee781612696565b82525050565b611ef6816126ba565b82525050565b611f05816126de565b82525050565b6000611f18601a83612356565b9150611f23826127b6565b602082019050919050565b6000611f3b602683612356565b9150611f46826127df565b604082019050919050565b6000611f5e601183612356565b9150611f698261282e565b602082019050919050565b6000611f81600e83612356565b9150611f8c82612857565b602082019050919050565b6000611fa4601483612356565b9150611faf82612880565b602082019050919050565b6000611fc7602083612356565b9150611fd2826128a9565b602082019050919050565b6000611fea602483612356565b9150611ff5826128d2565b604082019050919050565b600061200d601f83612356565b915061201882612921565b602082019050919050565b61202c81612669565b82525050565b60006020820190506120476000830184611ecf565b92915050565b60006060820190506120626000830186611ecf565b61206f6020830185611ecf565b61207c6040830184612023565b949350505050565b60006040820190506120996000830185611ecf565b6120a66020830184612023565b9392505050565b60006060820190506120c26000830186611ecf565b6120cf6020830185612023565b6120dc6040830184612023565b949350505050565b60006020820190506120f96000830184611ede565b92915050565b60006060820190506121146000830186611eed565b6121216020830185612023565b61212e6040830184611ede565b949350505050565b600060208201905061214b6000830184611efc565b92915050565b6000602082019050818103600083015261216a81611f0b565b9050919050565b6000602082019050818103600083015261218a81611f2e565b9050919050565b600060208201905081810360008301526121aa81611f51565b9050919050565b600060208201905081810360008301526121ca81611f74565b9050919050565b600060208201905081810360008301526121ea81611f97565b9050919050565b6000602082019050818103600083015261220a81611fba565b9050919050565b6000602082019050818103600083015261222a81611fdd565b9050919050565b6000602082019050818103600083015261224a81612000565b9050919050565b60006020820190506122666000830184612023565b92915050565b60006060820190506122816000830186612023565b61228e6020830185611ecf565b61229b6040830184611ecf565b949350505050565b60006060820190506122b86000830186612023565b6122c56020830185611eed565b6122d26040830184611ecf565b949350505050565b60006040820190506122ef6000830185612023565b6122fc6020830184612023565b9392505050565b600060a0820190506123186000830188612023565b6123256020830187612023565b6123326040830186612023565b61233f6060830185612023565b61234c6080830184612023565b9695505050505050565b600082825260208201905092915050565b600061237282612669565b915061237d83612669565b9250827fffffffffffffffffffffffffffffffffffffffffffffffffffffffffffffffff038211156123b2576123b161274b565b5b828201905092915050565b60006123c882612669565b91506123d383612669565b9250826123e3576123e261277a565b5b828204905092915050565b6000808291508390505b6001851115612438578086048111156124145761241361274b565b5b60018516156124235780820291505b8081029050612431856127a9565b94506123f8565b94509492505050565b600061244c82612669565b915061245783612673565b92506124847fffffffffffffffffffffffffffffffffffffffffffffffffffffffffffffffff848461248c565b905092915050565b60008261249c5760019050612558565b816124aa5760009050612558565b81600181146124c057600281146124ca576124f9565b6001915050612558565b60ff8411156124dc576124db61274b565b5b8360020a9150848211156124f3576124f261274b565b5b50612558565b5060208310610133831016604e8410600b841016171561252e5782820a9050838111156125295761252861274b565b5b612558565b61253b84848460016123ee565b925090508184048111156125525761255161274b565b5b81810290505b9392505050565b600061256a82612669565b915061257583612669565b9250817fffffffffffffffffffffffffffffffffffffffffffffffffffffffffffffffff04831182151516156125ae576125ad61274b565b5b828202905092915050565b60006125c482612669565b91506125cf83612669565b9250828210156125e2576125e161274b565b5b828203905092915050565b60006125f882612673565b915061260383612673565b9250828210156126165761261561274b565b5b828203905092915050565b600061262c82612649565b9050919050565b60008115159050919050565b6000819050919050565b600073ffffffffffffffffffffffffffffffffffffffff82169050919050565b6000819050919050565b600060ff82169050919050565b600069ffffffffffffffffffff82169050919050565b60006126a1826126a8565b9050919050565b60006126b382612649565b9050919050565b60006126c5826126cc565b9050919050565b60006126d782612649565b9050919050565b60006126e9826126f0565b9050919050565b60006126fb82612649565b9050919050565b600061270d82612669565b91507fffffffffffffffffffffffffffffffffffffffffffffffffffffffffffffffff8214156127405761273f61274b565b5b600182019050919050565b7f4e487b7100000000000000000000000000000000000000000000000000000000600052601160045260246000fd5b7f4e487b7100000000000000000000000000000000000000000000000000000000600052601260045260246000fd5b60008160011c9050919050565b7f496e73756666696369656e74207374616b656420616d6f756e74000000000000600082015250565b7f4f776e61626c653a206e6577206f776e657220697320746865207a65726f206160008201527f6464726573730000000000000000000000000000000000000000000000000000602082015250565b7f416d6f756e74206d757374206265203e30000000000000000000000000000000600082015250565b7f496e76616c696420706f6f6c4964000000000000000000000000000000000000600082015250565b7f496e73756666696369656e742062616c616e6365000000000000000000000000600082015250565b7f4f776e61626c653a2063616c6c6572206973206e6f7420746865206f776e6572600082015250565b7f506f6f6c2077697468207468697320746f6b656e20616c72656164792065786960008201527f7374732e00000000000000000000000000000000000000000000000000000000602082015250565b7f5265656e7472616e637947756172643a207265656e7472616e742063616c6c00600082015250565b61295381612621565b811461295e57600080fd5b50565b61296a81612633565b811461297557600080fd5b50565b6129818161263f565b811461298c57600080fd5b50565b61299881612669565b81146129a357600080fd5b50565b6129af81612673565b81146129ba57600080fd5b50565b6129c681612680565b81146129d157600080fd5b5056fea26469706673582212202b9097659b7a3f51b2f8d2067dc844cda2450b432d16271704df1f4e98438a3e64736f6c63430008030033",
  "immutableReferences": {},
  "source": "// SPDX-License-Identifier: MIT\r\npragma solidity 0.8.3;\r\n\r\nimport '@openzeppelin/contracts/access/Ownable.sol';\r\nimport '@openzeppelin/contracts/security/ReentrancyGuard.sol';\r\nimport '@openzeppelin/contracts/token/ERC20/ERC20.sol';\r\nimport '@chainlink/contracts/src/v0.8/interfaces/AggregatorV3Interface.sol';\r\n\r\nimport './Happy.sol';\r\n\r\n\r\ncontract HappyChef is Ownable, ReentrancyGuard {\r\n\r\n    struct UserInfo {\r\n        uint256 amount;         // Amount of staked token provided\r\n        uint256 depositDate;    // Deposit date for interest calculation\r\n    }\r\n\r\n    struct PoolInfo {\r\n        ERC20 token;               // Address of the staked token\r\n        uint256 yield;              // Percentage yield for the pool, with 2 decimals\r\n        AggregatorV3Interface priceFeed;    // ChainLink oracle for the staked token\r\n    }\r\n\r\n    // The reward token\r\n    Happy public happy;\r\n\r\n    // The staking pools\r\n    PoolInfo[] public pools;\r\n\r\n    // For each pool, user info\r\n    mapping (uint256 => mapping(address => UserInfo)) public users;\r\n\r\n    // Price feed for the reward token\r\n    AggregatorV3Interface public happyPriceFeed;\r\n\r\n    event PoolAdded(uint256 poolId, address token, address priceFeed);\r\n    event PriceFeedUpdated(uint256 poolId, ERC20 token, address priceFeed);\r\n    event Staked(address user, uint256 poolId, uint256 amount);\r\n    event Unstaked(address user, uint256 poolId, uint256 amount);\r\n    event Redeemed(address user, uint256 poolId, uint256 amount);\r\n\r\n\r\n    // Check that the pool id is in the array range.\r\n    modifier validPool(uint256 _poolId) {\r\n        require(_poolId < pools.length, \"Invalid poolId\");\r\n        _;\r\n    }\r\n\r\n\r\n    modifier validAmount(uint256 _amount) {\r\n        require(_amount > 0, \"Amount must be >0\");\r\n        _;\r\n    }\r\n\r\n\r\n    constructor(Happy _happy, address _happyPriceFeed) {\r\n        happy = _happy;\r\n        happyPriceFeed = AggregatorV3Interface(_happyPriceFeed);\r\n    }\r\n\r\n\r\n    function getNbPools() external view returns (uint256) {\r\n        return pools.length;\r\n    }\r\n\r\n\r\n    function getUserBalance(uint256 poolId, address user) external view returns (uint256) {\r\n        return users[poolId][user].amount;\r\n    }\r\n\r\n\r\n    function getPoolBalance(uint256 poolId) external view returns (uint256) {\r\n        return pools[poolId].token.balanceOf(address(this));\r\n    }\r\n\r\n\r\n    function addPool(address _token, address _priceFeed, uint256 _yield) external onlyOwner {\r\n        // Check if pool already added\r\n        bool found = false;\r\n        for (uint i = 0; i < pools.length; i++) {\r\n            if (pools[i].token == IERC20(_token)) {\r\n                found = true;\r\n                break;\r\n            }\r\n        }\r\n        require(!found, \"Pool with this token already exists.\");\r\n\r\n        pools.push(PoolInfo({\r\n            token: ERC20(_token),\r\n            yield: _yield,\r\n            priceFeed: AggregatorV3Interface(_priceFeed)\r\n        }));\r\n\r\n        emit PoolAdded(pools.length - 1, _token, _priceFeed);\r\n    }\r\n\r\n\r\n    function updatePriceFeed(uint256 _poolId, address priceFeed) external validPool(_poolId) onlyOwner {\r\n        pools[_poolId].priceFeed = AggregatorV3Interface(priceFeed);\r\n\r\n        emit PriceFeedUpdated(_poolId, pools[_poolId].token, priceFeed);\r\n    }\r\n\r\n    \r\n    // Token approval is needed before calling this function.\r\n    function stake(uint256 _poolId, uint256 _amount) external validPool(_poolId) validAmount(_amount) nonReentrant {\r\n        PoolInfo storage pool = pools[_poolId];\r\n        UserInfo storage user = users[_poolId][msg.sender];\r\n        require(pool.token.balanceOf(msg.sender) >= _amount, \"Insufficient balance\");\r\n\r\n        if (user.amount > 0) {\r\n            // User had already staked, distribute reward\r\n            _distributeReward(_poolId, pool, user);\r\n        }\r\n    \r\n        user.amount += _amount;\r\n        user.depositDate = block.timestamp;\r\n\r\n        pool.token.transferFrom(msg.sender, address(this), _amount);\r\n\r\n        emit Staked(msg.sender, _poolId, _amount);\r\n    }\r\n\r\n\r\n    function _calculateReward(uint256 _poolId, PoolInfo storage _pool, UserInfo storage _user) internal view returns (uint256) {\r\n        uint256 pending = _user.amount \r\n            * (block.timestamp - _user.depositDate) / 60 / 60 / 24   // Datetime pro rata\r\n            * _pool.yield / 100 / 100 / 365                          // Pool yield (First / 100 is for 2 decimals, second is for %)\r\n            * getLastPrice(_poolId) / getLastHappyPrice();           // Adjustment to price\r\n\r\n        return pending;\r\n    }\r\n\r\n\r\n    function calculateRewardDebug(uint256 _poolId, address _user) external validPool(_poolId) view returns (\r\n        uint256 amount, \r\n        uint256 delta, \r\n        uint256 yield, \r\n        uint256 tokenPrice,\r\n        uint256 happyPrice) {\r\n        PoolInfo storage pool = pools[_poolId];\r\n        UserInfo storage user = users[_poolId][_user];\r\n\r\n        amount = user.amount;\r\n        delta = block.timestamp - user.depositDate;\r\n        yield = pool.yield;\r\n        tokenPrice = getLastPrice(_poolId);\r\n        happyPrice = getLastHappyPrice();\r\n    }\r\n\r\n\r\n    function _distributeReward(uint256 _poolId, PoolInfo storage _pool, UserInfo storage _user) internal {\r\n        uint256 pending = _calculateReward(_poolId, _pool, _user);\r\n        if (pending > 0) {\r\n            happy.mint(address(this), pending);\r\n            happy.transfer(msg.sender, pending);\r\n\r\n            _user.depositDate = block.timestamp;\r\n\r\n            emit Redeemed(msg.sender, _poolId, pending);\r\n        }\r\n    }\r\n\r\n\r\n    // If this function is called with 0 as amount, it withdraw only the reward\r\n    function unstake(uint256 _poolId, uint256 _amount) external validPool(_poolId) nonReentrant {\r\n        PoolInfo storage pool = pools[_poolId];\r\n        UserInfo storage user = users[_poolId][msg.sender];\r\n        require(_amount <= user.amount, \"Insufficient staked amount\");\r\n\r\n        _distributeReward(_poolId, pool, user);\r\n\r\n        if (_amount > 0) {\r\n            user.amount -= _amount;\r\n            pool.token.transfer(msg.sender, _amount);\r\n        }\r\n\r\n        emit Unstaked(msg.sender, _poolId, _amount);\r\n    }\r\n\r\n\r\n    function pendingReward(uint256 _poolId, address _user) external view validPool(_poolId) returns (uint256) {\r\n        PoolInfo storage pool = pools[_poolId];\r\n        UserInfo storage user = users[_poolId][_user];\r\n\r\n        return _calculateReward(_poolId, pool, user);\r\n    }\r\n\r\n\r\n    function getLastPrice(uint256 _poolId) public view validPool(_poolId) returns (uint256) {        \r\n        PoolInfo storage pool = pools[_poolId];\r\n\r\n        (\r\n            /*uint80 roundId*/,\r\n            int price,\r\n            /*uint startAt*/,\r\n            /*uint timestamp*/,\r\n            /*uint80 answeredInRound*/\r\n        ) = pool.priceFeed.latestRoundData();\r\n\r\n        uint256 lastPrice = uint256(price);\r\n        if (pool.token.decimals() != 18) {\r\n            lastPrice *= 10 ** (18 - pool.token.decimals());\r\n        }\r\n\r\n        return lastPrice;\r\n    }\r\n\r\n\r\n    function getLastHappyPrice() public view returns (uint256) {\r\n        (\r\n            /*uint80 roundId*/,\r\n            int price,\r\n            /*uint startAt*/,\r\n            /*uint timestamp*/,\r\n            /*uint80 answeredInRound*/\r\n        ) = happyPriceFeed.latestRoundData();\r\n\r\n        return uint256(price);\r\n    }\r\n\r\n}\r\n",
  "sourcePath": "C:/ws/alyra/dapp-staking/contracts/HappyChef.sol",
  "compiler": {
    "name": "solc",
    "version": "0.8.3+commit.8d00100c.Emscripten.clang"
  },
  "schemaVersion": "3.4.1",
  "updatedAt": "2021-05-26T08:36:10.888Z",
  "networkType": "ethereum",
  "devdoc": {
    "kind": "dev",
    "methods": {
      "owner()": {
        "details": "Returns the address of the current owner."
      },
      "renounceOwnership()": {
        "details": "Leaves the contract without owner. It will not be possible to call `onlyOwner` functions anymore. Can only be called by the current owner. NOTE: Renouncing ownership will leave the contract without an owner, thereby removing any functionality that is only available to the owner."
      },
      "transferOwnership(address)": {
        "details": "Transfers ownership of the contract to a new account (`newOwner`). Can only be called by the current owner."
      }
    },
    "version": 1
  },
  "userdoc": {
    "kind": "user",
    "methods": {},
    "version": 1
  }
}